{
  "_format": "hh3-artifact-1",
  "contractName": "FileStorage",
  "sourceName": "contracts/FileStorage.sol",
  "abi": [
    {
      "anonymous": false,
      "inputs": [
        {
          "indexed": true,
          "internalType": "address",
          "name": "user",
          "type": "address"
        },
        {
          "indexed": true,
          "internalType": "uint256",
          "name": "fileIndex",
          "type": "uint256"
        },
        {
          "indexed": false,
          "internalType": "string",
          "name": "fileName",
          "type": "string"
        },
        {
          "indexed": false,
          "internalType": "uint256",
          "name": "freedSize",
          "type": "uint256"
        }
      ],
      "name": "FileDeleted",
      "type": "event"
    },
    {
      "anonymous": false,
      "inputs": [
        {
          "indexed": true,
          "internalType": "address",
          "name": "user",
          "type": "address"
        },
        {
          "indexed": true,
          "internalType": "uint256",
          "name": "fileIndex",
          "type": "uint256"
        },
        {
          "indexed": false,
          "internalType": "string",
          "name": "oldName",
          "type": "string"
        },
        {
          "indexed": false,
          "internalType": "string",
          "name": "newName",
          "type": "string"
        }
      ],
      "name": "FileRenamed",
      "type": "event"
    },
    {
      "anonymous": false,
      "inputs": [
        {
          "indexed": true,
          "internalType": "address",
          "name": "owner",
          "type": "address"
        },
        {
          "indexed": true,
          "internalType": "address",
          "name": "recipient",
          "type": "address"
        },
        {
          "indexed": true,
          "internalType": "uint256",
          "name": "fileIndex",
          "type": "uint256"
        }
      ],
      "name": "FileShareRevoked",
      "type": "event"
    },
    {
      "anonymous": false,
      "inputs": [
        {
          "indexed": true,
          "internalType": "address",
          "name": "owner",
          "type": "address"
        },
        {
          "indexed": true,
          "internalType": "address",
          "name": "recipient",
          "type": "address"
        },
        {
          "indexed": true,
          "internalType": "uint256",
          "name": "fileIndex",
          "type": "uint256"
        }
      ],
      "name": "FileShared",
      "type": "event"
    },
    {
      "anonymous": false,
      "inputs": [
        {
          "indexed": true,
          "internalType": "address",
          "name": "user",
          "type": "address"
        },
        {
          "indexed": true,
          "internalType": "uint256",
          "name": "fileIndex",
          "type": "uint256"
        },
        {
          "indexed": false,
          "internalType": "uint256",
          "name": "newVersion",
          "type": "uint256"
        },
        {
          "indexed": false,
          "internalType": "bytes32",
          "name": "newFileHash",
          "type": "bytes32"
        }
      ],
      "name": "FileUpdated",
      "type": "event"
    },
    {
      "anonymous": false,
      "inputs": [
        {
          "indexed": true,
          "internalType": "address",
          "name": "user",
          "type": "address"
        },
        {
          "indexed": true,
          "internalType": "uint256",
          "name": "fileIndex",
          "type": "uint256"
        },
        {
          "indexed": false,
          "internalType": "string",
          "name": "fileName",
          "type": "string"
        },
        {
          "indexed": false,
          "internalType": "uint256",
          "name": "fileSize",
          "type": "uint256"
        },
        {
          "indexed": false,
          "internalType": "string",
          "name": "fileExtension",
          "type": "string"
        },
        {
          "indexed": false,
          "internalType": "uint256",
          "name": "timestamp",
          "type": "uint256"
        },
        {
          "indexed": false,
          "internalType": "bytes32",
          "name": "fileHash",
          "type": "bytes32"
        }
      ],
      "name": "FileUploaded",
      "type": "event"
    },
    {
      "inputs": [],
      "name": "IV_LENGTH",
      "outputs": [
        {
          "internalType": "uint256",
          "name": "",
          "type": "uint256"
        }
      ],
      "stateMutability": "view",
      "type": "function"
    },
    {
      "inputs": [],
      "name": "MAX_FILE_SIZE",
      "outputs": [
        {
          "internalType": "uint256",
          "name": "",
          "type": "uint256"
        }
      ],
      "stateMutability": "view",
      "type": "function"
    },
    {
      "inputs": [],
      "name": "MAX_STORAGE_BYTES",
      "outputs": [
        {
          "internalType": "uint256",
          "name": "",
          "type": "uint256"
        }
      ],
      "stateMutability": "view",
      "type": "function"
    },
    {
      "inputs": [],
      "name": "SHARD_COUNT",
      "outputs": [
        {
          "internalType": "uint256",
          "name": "",
          "type": "uint256"
        }
      ],
      "stateMutability": "view",
      "type": "function"
    },
    {
      "inputs": [
        {
          "internalType": "uint256",
          "name": "index",
          "type": "uint256"
        }
      ],
      "name": "deleteFile",
      "outputs": [],
      "stateMutability": "nonpayable",
      "type": "function"
    },
    {
      "inputs": [
        {
          "internalType": "uint256",
          "name": "index",
          "type": "uint256"
        }
      ],
      "name": "getFileAt",
      "outputs": [
        {
          "components": [
            {
              "internalType": "string[3]",
              "name": "ipfsHashes",
              "type": "string[3]"
            },
            {
              "internalType": "string",
              "name": "fileName",
              "type": "string"
            },
            {
              "internalType": "string",
              "name": "fileExtension",
              "type": "string"
            },
            {
              "internalType": "uint256",
              "name": "fileSize",
              "type": "uint256"
            },
            {
              "internalType": "uint256",
              "name": "timestamp",
              "type": "uint256"
            },
            {
              "internalType": "string",
              "name": "encryptionIv",
              "type": "string"
            },
            {
              "internalType": "bytes32",
              "name": "fileHash",
              "type": "bytes32"
            },
            {
              "internalType": "uint256",
              "name": "version",
              "type": "uint256"
            },
            {
              "internalType": "bool",
              "name": "exists",
              "type": "bool"
            }
          ],
          "internalType": "struct FileStorage.File",
          "name": "",
          "type": "tuple"
        }
      ],
      "stateMutability": "view",
      "type": "function"
    },
    {
      "inputs": [],
      "name": "getFileCount",
      "outputs": [
        {
          "internalType": "uint256",
          "name": "",
          "type": "uint256"
        }
      ],
      "stateMutability": "view",
      "type": "function"
    },
    {
      "inputs": [],
      "name": "getFilesSharedWithMe",
      "outputs": [
        {
          "internalType": "address[]",
          "name": "owners",
          "type": "address[]"
        },
        {
          "internalType": "uint256[]",
          "name": "fileIndices",
          "type": "uint256[]"
        },
        {
          "components": [
            {
              "internalType": "string[3]",
              "name": "ipfsHashes",
              "type": "string[3]"
            },
            {
              "internalType": "string",
              "name": "fileName",
              "type": "string"
            },
            {
              "internalType": "string",
              "name": "fileExtension",
              "type": "string"
            },
            {
              "internalType": "uint256",
              "name": "fileSize",
              "type": "uint256"
            },
            {
              "internalType": "uint256",
              "name": "timestamp",
              "type": "uint256"
            },
            {
              "internalType": "string",
              "name": "encryptionIv",
              "type": "string"
            },
            {
              "internalType": "bytes32",
              "name": "fileHash",
              "type": "bytes32"
            },
            {
              "internalType": "uint256",
              "name": "version",
              "type": "uint256"
            },
            {
              "internalType": "bool",
              "name": "exists",
              "type": "bool"
            }
          ],
          "internalType": "struct FileStorage.File[]",
          "name": "files",
          "type": "tuple[]"
        },
        {
          "internalType": "bytes[]",
          "name": "encryptedKeys",
          "type": "bytes[]"
        }
      ],
      "stateMutability": "view",
      "type": "function"
    },
    {
      "inputs": [],
      "name": "getRemainingStorage",
      "outputs": [
        {
          "internalType": "uint256",
          "name": "",
          "type": "uint256"
        }
      ],
      "stateMutability": "view",
      "type": "function"
    },
    {
      "inputs": [
        {
          "internalType": "address",
          "name": "owner",
          "type": "address"
        },
        {
          "internalType": "uint256",
          "name": "fileIndex",
          "type": "uint256"
        }
      ],
      "name": "getSharedFile",
      "outputs": [
        {
          "components": [
            {
              "internalType": "string[3]",
              "name": "ipfsHashes",
              "type": "string[3]"
            },
            {
              "internalType": "string",
              "name": "fileName",
              "type": "string"
            },
            {
              "internalType": "string",
              "name": "fileExtension",
              "type": "string"
            },
            {
              "internalType": "uint256",
              "name": "fileSize",
              "type": "uint256"
            },
            {
              "internalType": "uint256",
              "name": "timestamp",
              "type": "uint256"
            },
            {
              "internalType": "string",
              "name": "encryptionIv",
              "type": "string"
            },
            {
              "internalType": "bytes32",
              "name": "fileHash",
              "type": "bytes32"
            },
            {
              "internalType": "uint256",
              "name": "version",
              "type": "uint256"
            },
            {
              "internalType": "bool",
              "name": "exists",
              "type": "bool"
            }
          ],
          "internalType": "struct FileStorage.File",
          "name": "file",
          "type": "tuple"
        },
        {
          "internalType": "bytes",
          "name": "encryptedKey",
          "type": "bytes"
        }
      ],
      "stateMutability": "view",
      "type": "function"
    },
    {
      "inputs": [
        {
          "internalType": "address",
          "name": "owner",
          "type": "address"
        },
        {
          "internalType": "uint256",
          "name": "fileIndex",
          "type": "uint256"
        }
      ],
      "name": "getSharedKey",
      "outputs": [
        {
          "internalType": "bytes",
          "name": "",
          "type": "bytes"
        }
      ],
      "stateMutability": "view",
      "type": "function"
    },
    {
      "inputs": [],
      "name": "getUserFiles",
      "outputs": [
        {
          "components": [
            {
              "internalType": "string[3]",
              "name": "ipfsHashes",
              "type": "string[3]"
            },
            {
              "internalType": "string",
              "name": "fileName",
              "type": "string"
            },
            {
              "internalType": "string",
              "name": "fileExtension",
              "type": "string"
            },
            {
              "internalType": "uint256",
              "name": "fileSize",
              "type": "uint256"
            },
            {
              "internalType": "uint256",
              "name": "timestamp",
              "type": "uint256"
            },
            {
              "internalType": "string",
              "name": "encryptionIv",
              "type": "string"
            },
            {
              "internalType": "bytes32",
              "name": "fileHash",
              "type": "bytes32"
            },
            {
              "internalType": "uint256",
              "name": "version",
              "type": "uint256"
            },
            {
              "internalType": "bool",
              "name": "exists",
              "type": "bool"
            }
          ],
          "internalType": "struct FileStorage.File[]",
          "name": "",
          "type": "tuple[]"
        }
      ],
      "stateMutability": "view",
      "type": "function"
    },
    {
      "inputs": [
        {
          "internalType": "address",
          "name": "owner",
          "type": "address"
        },
        {
          "internalType": "uint256",
          "name": "fileIndex",
          "type": "uint256"
        },
        {
          "internalType": "address",
          "name": "viewer",
          "type": "address"
        }
      ],
      "name": "hasAccess",
      "outputs": [
        {
          "internalType": "bool",
          "name": "",
          "type": "bool"
        }
      ],
      "stateMutability": "view",
      "type": "function"
    },
    {
      "inputs": [
        {
          "internalType": "uint256",
          "name": "index",
          "type": "uint256"
        },
        {
          "internalType": "string",
          "name": "newName",
          "type": "string"
        }
      ],
      "name": "renameFile",
      "outputs": [],
      "stateMutability": "nonpayable",
      "type": "function"
    },
    {
      "inputs": [
        {
          "internalType": "uint256",
          "name": "index",
          "type": "uint256"
        },
        {
          "internalType": "address",
          "name": "recipient",
          "type": "address"
        }
      ],
      "name": "revokeShare",
      "outputs": [],
      "stateMutability": "nonpayable",
      "type": "function"
    },
    {
      "inputs": [
        {
          "internalType": "uint256",
          "name": "index",
          "type": "uint256"
        },
        {
          "internalType": "address",
          "name": "recipient",
          "type": "address"
        },
        {
          "internalType": "bytes",
          "name": "encryptedKeyForRecipient",
          "type": "bytes"
        }
      ],
      "name": "shareFile",
      "outputs": [],
      "stateMutability": "nonpayable",
      "type": "function"
    },
    {
      "inputs": [
        {
          "internalType": "address",
          "name": "",
          "type": "address"
        }
      ],
      "name": "totalStorageUsed",
      "outputs": [
        {
          "internalType": "uint256",
          "name": "",
          "type": "uint256"
        }
      ],
      "stateMutability": "view",
      "type": "function"
    },
    {
      "inputs": [
        {
          "internalType": "uint256",
          "name": "index",
          "type": "uint256"
        },
        {
          "internalType": "string[3]",
          "name": "_ipfsHashes",
          "type": "string[3]"
        },
        {
          "internalType": "uint256",
          "name": "_fileSize",
          "type": "uint256"
        },
        {
          "internalType": "string",
          "name": "_encryptionIv",
          "type": "string"
        },
        {
          "internalType": "bytes32",
          "name": "_fileHash",
          "type": "bytes32"
        }
      ],
      "name": "updateFile",
      "outputs": [],
      "stateMutability": "nonpayable",
      "type": "function"
    },
    {
      "inputs": [
        {
          "internalType": "string[3]",
          "name": "_ipfsHashes",
          "type": "string[3]"
        },
        {
          "internalType": "string",
          "name": "_fileName",
          "type": "string"
        },
        {
          "internalType": "string",
          "name": "_fileExtension",
          "type": "string"
        },
        {
          "internalType": "uint256",
          "name": "_fileSize",
          "type": "uint256"
        },
        {
          "internalType": "string",
          "name": "_encryptionIv",
          "type": "string"
        },
        {
          "internalType": "bytes32",
          "name": "_fileHash",
          "type": "bytes32"
        }
      ],
      "name": "uploadFile",
      "outputs": [],
      "stateMutability": "nonpayable",
      "type": "function"
    },
    {
      "inputs": [
        {
          "components": [
            {
              "internalType": "string[3]",
              "name": "ipfsHashes",
              "type": "string[3]"
            },
            {
              "internalType": "string",
              "name": "fileName",
              "type": "string"
            },
            {
              "internalType": "string",
              "name": "fileExtension",
              "type": "string"
            },
            {
              "internalType": "uint256",
              "name": "fileSize",
              "type": "uint256"
            },
            {
              "internalType": "string",
              "name": "encryptionIv",
              "type": "string"
            },
            {
              "internalType": "bytes32",
              "name": "fileHash",
              "type": "bytes32"
            }
          ],
          "internalType": "struct FileStorage.FileInput[]",
          "name": "files",
          "type": "tuple[]"
        }
      ],
      "name": "uploadMultipleFiles",
      "outputs": [],
      "stateMutability": "nonpayable",
      "type": "function"
    }
  ],
  "bytecode": "0x6080604052348015600e575f5ffd5b506136688061001c5f395ff3fe608060405234801561000f575f5ffd5b5060043610610127575f3560e01c8063912822f9116100a9578063bab50cc91161006e578063bab50cc914610275578063c32c7c131461027d578063c5b4200614610290578063e4f45eef146102a3578063f1438968146102c3575f5ffd5b8063912822f91461020e57806396dc7c3314610216578063a1ef4fa91461022e578063a2f0c5ee14610241578063a9bb697214610254575f5ffd5b806342a568d1116100ef57806342a568d1146101b55780635a9baf37146101c85780636524d54a146101d35780636c5dee17146101db5780636e71c19a146101fb575f5ffd5b806307cd68551461012b57806309a937fb1461015d57806311942989146101805780632df294ee14610195578063362e85cd146101aa575b5f5ffd5b61014a610139366004612a4f565b60016020525f908152604090205481565b6040519081526020015b60405180910390f35b61017061016b366004612a68565b6102cb565b6040519015158152602001610154565b610188610329565b6040516101549190612c17565b6101a86101a3366004612d95565b6106fb565b005b61014a634000000081565b6101a86101c3366004612e5d565b610711565b61014a630640000081565b61014a61087e565b6101ee6101e9366004612ffa565b6108a0565b6040516101549190613011565b6101a8610209366004613023565b610c16565b61014a601881565b61021e610e94565b60405161015494939291906130d6565b6101a861023c366004613181565b61166f565b6101a861024f3660046131ab565b61177b565b610267610262366004613227565b611b41565b60405161015492919061324f565b61014a611fc7565b6101a861028b36600461327c565b611fd1565b6101a861029e366004612ffa565b6121fe565b6102b66102b1366004613227565b612348565b60405161015491906132bf565b61014a600381565b5f816001600160a01b0316846001600160a01b0316036102ed57506001610322565b506001600160a01b038084165f90815260026020908152604080832086845282528083209385168352929052206001015460ff165b9392505050565b60605f6103353361244d565b90505f816001600160401b0381111561035057610350612c29565b60405190808252806020026020018201604052801561038957816020015b61037661290b565b81526020019060019003908161036e5790505b5090505f805b335f908152602081905260409020548110156106f257335f9081526020819052604090208054829081106103c5576103c56132d1565b5f9182526020909120600a600b90920201015460ff16156106ea57335f908152602081905260409020805482908110610400576104006132d1565b5f9182526020822060408051610180810190915292600b909202019082906101208201908390600390835b828210156104cc578382018054610441906132e5565b80601f016020809104026020016040519081016040528092919081815260200182805461046d906132e5565b80156104b85780601f1061048f576101008083540402835291602001916104b8565b820191905f5260205f20905b81548152906001019060200180831161049b57829003601f168201915b50505050508152602001906001019061042b565b5050505081526020016003820180546104e4906132e5565b80601f0160208091040260200160405190810160405280929190818152602001828054610510906132e5565b801561055b5780601f106105325761010080835404028352916020019161055b565b820191905f5260205f20905b81548152906001019060200180831161053e57829003601f168201915b50505050508152602001600482018054610574906132e5565b80601f01602080910402602001604051908101604052809291908181526020018280546105a0906132e5565b80156105eb5780601f106105c2576101008083540402835291602001916105eb565b820191905f5260205f20905b8154815290600101906020018083116105ce57829003601f168201915b505050505081526020016005820154815260200160068201548152602001600782018054610618906132e5565b80601f0160208091040260200160405190810160405280929190818152602001828054610644906132e5565b801561068f5780601f106106665761010080835404028352916020019161068f565b820191905f5260205f20905b81548152906001019060200180831161067257829003601f168201915b50505091835250506008820154602082015260098201546040820152600a9091015460ff16151560609091015283518490849081106106d0576106d06132d1565b602002602001018190525081806106e69061332b565b9250505b60010161038f565b50909392505050565b6107098686868686866124cf565b505050505050565b5f81511161075a5760405162461bcd60e51b8152602060048201526011602482015270139bc8199a5b195cc81c1c9bdd9a591959607a1b60448201526064015b60405180910390fd5b600a815111156107ac5760405162461bcd60e51b815260206004820152601a60248201527f4d6178696d756d2031302066696c6573207065722062617463680000000000006044820152606401610751565b5f5b815181101561087a576108728282815181106107cc576107cc6132d1565b60200260200101515f01518383815181106107e9576107e96132d1565b602002602001015160200151848481518110610807576108076132d1565b602002602001015160400151858581518110610825576108256132d1565b602002602001015160600151868681518110610843576108436132d1565b602002602001015160800151878781518110610861576108616132d1565b602002602001015160a001516124cf565b6001016107ae565b5050565b335f9081526001602052604081205461089b906340000000613343565b905090565b6108a861290b565b335f81815260208190526040902054839081106108d75760405162461bcd60e51b815260040161075190613356565b6001600160a01b0382165f908152602081905260409020805482908110610900576109006132d1565b5f9182526020909120600a600b90920201015460ff166109325760405162461bcd60e51b815260040161075190613382565b335f908152602081905260409020805485908110610952576109526132d1565b5f9182526020822060408051610180810190915292600b909202019082906101208201908390600390835b82821015610a1e578382018054610993906132e5565b80601f01602080910402602001604051908101604052809291908181526020018280546109bf906132e5565b8015610a0a5780601f106109e157610100808354040283529160200191610a0a565b820191905f5260205f20905b8154815290600101906020018083116109ed57829003601f168201915b50505050508152602001906001019061097d565b505050508152602001600382018054610a36906132e5565b80601f0160208091040260200160405190810160405280929190818152602001828054610a62906132e5565b8015610aad5780601f10610a8457610100808354040283529160200191610aad565b820191905f5260205f20905b815481529060010190602001808311610a9057829003601f168201915b50505050508152602001600482018054610ac6906132e5565b80601f0160208091040260200160405190810160405280929190818152602001828054610af2906132e5565b8015610b3d5780601f10610b1457610100808354040283529160200191610b3d565b820191905f5260205f20905b815481529060010190602001808311610b2057829003601f168201915b505050505081526020016005820154815260200160068201548152602001600782018054610b6a906132e5565b80601f0160208091040260200160405190810160405280929190818152602001828054610b96906132e5565b8015610be15780601f10610bb857610100808354040283529160200191610be1565b820191905f5260205f20905b815481529060010190602001808311610bc457829003601f168201915b50505091835250506008820154602082015260098201546040820152600a9091015460ff161515606090910152949350505050565b335f8181526020819052604090205484908110610c455760405162461bcd60e51b815260040161075190613356565b6001600160a01b0382165f908152602081905260409020805482908110610c6e57610c6e6132d1565b5f9182526020909120600a600b90920201015460ff16610ca05760405162461bcd60e51b815260040161075190613382565b6001600160a01b038416610cf65760405162461bcd60e51b815260206004820152601960248201527f496e76616c696420726563697069656e742061646472657373000000000000006044820152606401610751565b336001600160a01b03851603610d4e5760405162461bcd60e51b815260206004820152601a60248201527f43616e6e6f74207368617265207769746820796f757273656c660000000000006044820152606401610751565b5f835111610d9e5760405162461bcd60e51b815260206004820152601d60248201527f456e63727970746564206b65792063616e6e6f7420626520656d7074790000006044820152606401610751565b6040805180820182528481526001602080830191909152335f9081526002825283812089825282528381206001600160a01b03891682529091529190912081518190610dea90826133fd565b506020918201516001918201805460ff19169115159190911790556001600160a01b038681165f81815260038552604080822081518083018352338082528189018e81528354808a0185559386529885209151600290930290910180546001600160a01b031916929096169190911785559551939094019290925591518893917fea0152f949ed651939c4bf8dcd455aac3da0e3653a7bbe192face036f7730bf391a45050505050565b6060806060805f60035f336001600160a01b03166001600160a01b031681526020019081526020015f20805480602002602001604051908101604052809291908181526020015f905b82821015610f24575f848152602090819020604080518082019091526002850290910180546001600160a01b03168252600190810154828401529083529092019101610edd565b509293505f9250829150505b825181101561101d575f838281518110610f4c57610f4c6132d1565b60209081029190910181015180516001600160a01b03165f9081526002835260408082208385015183528452808220338352909352919091206001015490915060ff168015610fb6575080516001600160a01b03165f908152602081815260409091205490820151105b8015611001575080516001600160a01b03165f908152602081815260409091209082015181548110610fea57610fea6132d1565b5f9182526020909120600a600b90920201015460ff165b1561101457826110108161332b565b9350505b50600101610f30565b50806001600160401b0381111561103657611036612c29565b60405190808252806020026020018201604052801561105f578160200160208202803683370190505b509550806001600160401b0381111561107a5761107a612c29565b6040519080825280602002602001820160405280156110a3578160200160208202803683370190505b509450806001600160401b038111156110be576110be612c29565b6040519080825280602002602001820160405280156110f757816020015b6110e461290b565b8152602001906001900390816110dc5790505b509350806001600160401b0381111561111257611112612c29565b60405190808252806020026020018201604052801561114557816020015b60608152602001906001900390816111305790505b5092505f805b8351811015611665575f848281518110611167576111676132d1565b60209081029190910181015180516001600160a01b03165f908152600283526040808220838501518352845280822033835290935282812083518085019094528054929450909291829082906111bc906132e5565b80601f01602080910402602001604051908101604052809291908181526020018280546111e8906132e5565b80156112335780601f1061120a57610100808354040283529160200191611233565b820191905f5260205f20905b81548152906001019060200180831161121657829003601f168201915b50505091835250506001919091015460ff161515602091820152810151909150801561127a575081516001600160a01b03165f908152602081815260409091205490830151105b80156112c5575081516001600160a01b03165f9081526020818152604090912090830151815481106112ae576112ae6132d1565b5f9182526020909120600a600b90920201015460ff165b1561165b57815f01518a85815181106112e0576112e06132d1565b60200260200101906001600160a01b031690816001600160a01b0316815250508160200151898581518110611317576113176132d1565b60209081029190910181019190915282516001600160a01b03165f908152808252604090209083015181548110611350576113506132d1565b5f9182526020822060408051610180810190915292600b909202019082906101208201908390600390835b8282101561141c578382018054611391906132e5565b80601f01602080910402602001604051908101604052809291908181526020018280546113bd906132e5565b80156114085780601f106113df57610100808354040283529160200191611408565b820191905f5260205f20905b8154815290600101906020018083116113eb57829003601f168201915b50505050508152602001906001019061137b565b505050508152602001600382018054611434906132e5565b80601f0160208091040260200160405190810160405280929190818152602001828054611460906132e5565b80156114ab5780601f10611482576101008083540402835291602001916114ab565b820191905f5260205f20905b81548152906001019060200180831161148e57829003601f168201915b505050505081526020016004820180546114c4906132e5565b80601f01602080910402602001604051908101604052809291908181526020018280546114f0906132e5565b801561153b5780601f106115125761010080835404028352916020019161153b565b820191905f5260205f20905b81548152906001019060200180831161151e57829003601f168201915b505050505081526020016005820154815260200160068201548152602001600782018054611568906132e5565b80601f0160208091040260200160405190810160405280929190818152602001828054611594906132e5565b80156115df5780601f106115b6576101008083540402835291602001916115df565b820191905f5260205f20905b8154815290600101906020018083116115c257829003601f168201915b50505091835250506008820154602082015260098201546040820152600a9091015460ff1615156060909101528851899086908110611620576116206132d1565b6020026020010181905250805f0151878581518110611641576116416132d1565b602002602001018190525083806116579061332b565b9450505b505060010161114b565b5050505090919293565b335f90815260208190526040902054821061169c5760405162461bcd60e51b815260040161075190613356565b335f90815260026020908152604080832085845282528083206001600160a01b038516845290915290206001015460ff166117195760405162461bcd60e51b815260206004820152601960248201527f4e6f2061637469766520736861726520746f207265766f6b65000000000000006044820152606401610751565b335f81815260026020908152604080832086845282528083206001600160a01b0386168085529252808320600101805460ff1916905551859391927f1dc389edfae8b5aa7f185bb3095491ae43d431a742d6e19c596c16863d53473d91a45050565b335f81815260208190526040902054869081106117aa5760405162461bcd60e51b815260040161075190613356565b6001600160a01b0382165f9081526020819052604090208054829081106117d3576117d36132d1565b5f9182526020909120600a600b90920201015460ff166118055760405162461bcd60e51b815260040161075190613382565b8551516118545760405162461bcd60e51b815260206004820152601b60248201527f53686172642030204349442063616e6e6f7420626520656d70747900000000006044820152606401610751565b6020860151516118a65760405162461bcd60e51b815260206004820152601b60248201527f53686172642031204349442063616e6e6f7420626520656d70747900000000006044820152606401610751565b6040860151516118f85760405162461bcd60e51b815260206004820152601b60248201527f53686172642032204349442063616e6e6f7420626520656d70747900000000006044820152606401610751565b5f8511801561190b575063064000008511155b61194b5760405162461bcd60e51b8152602060048201526011602482015270496e76616c69642066696c652073697a6560781b6044820152606401610751565b601884511461196c5760405162461bcd60e51b8152600401610751906134b7565b826119b45760405162461bcd60e51b815260206004820152601860248201527746696c6520686173682063616e6e6f74206265207a65726f60401b6044820152606401610751565b335f9081526020819052604081208054899081106119d4576119d46132d1565b905f5260205f2090600b02019050806005015460015f336001600160a01b03166001600160a01b031681526020019081526020015f205f828254611a189190613343565b9091555050335f90815260016020526040902054634000000090611a3d9088906134fb565b1115611a845760405162461bcd60e51b815260206004820152601660248201527514dd1bdc9859d9481c5d5bdd1848195e18d95959195960521b6044820152606401610751565b335f9081526001602052604081208054889290611aa29084906134fb565b90915550611ab490508188600361295a565b506005810186905560078101611aca86826133fd565b5060088101849055426006820155600981018054600191905f90611aef9084906134fb565b909155505060098101546040805191825260208201869052899133917fa1f10b0df85a157d3525a3e8dd528683dcc62161cf54b18d20cff0aaa522a81191015b60405180910390a35050505050505050565b611b4961290b565b6001600160a01b0383165f90815260026020908152604080832085845282528083203384529091528082208151808301909252805460609392919082908290611b91906132e5565b80601f0160208091040260200160405190810160405280929190818152602001828054611bbd906132e5565b8015611c085780601f10611bdf57610100808354040283529160200191611c08565b820191905f5260205f20905b815481529060010190602001808311611beb57829003601f168201915b50505091835250506001919091015460ff161515602091820152810151909150611c445760405162461bcd60e51b81526004016107519061350e565b6001600160a01b0385165f908152602081905260409020548410611c7a5760405162461bcd60e51b815260040161075190613356565b6001600160a01b0385165f908152602081905260409020805485908110611ca357611ca36132d1565b5f9182526020909120600a600b90920201015460ff16611cd55760405162461bcd60e51b815260040161075190613382565b6001600160a01b0385165f908152602081905260409020805485908110611cfe57611cfe6132d1565b5f9182526020822060408051610180810190915292600b909202019082906101208201908390600390835b82821015611dca578382018054611d3f906132e5565b80601f0160208091040260200160405190810160405280929190818152602001828054611d6b906132e5565b8015611db65780601f10611d8d57610100808354040283529160200191611db6565b820191905f5260205f20905b815481529060010190602001808311611d9957829003601f168201915b505050505081526020019060010190611d29565b505050508152602001600382018054611de2906132e5565b80601f0160208091040260200160405190810160405280929190818152602001828054611e0e906132e5565b8015611e595780601f10611e3057610100808354040283529160200191611e59565b820191905f5260205f20905b815481529060010190602001808311611e3c57829003601f168201915b50505050508152602001600482018054611e72906132e5565b80601f0160208091040260200160405190810160405280929190818152602001828054611e9e906132e5565b8015611ee95780601f10611ec057610100808354040283529160200191611ee9565b820191905f5260205f20905b815481529060010190602001808311611ecc57829003601f168201915b505050505081526020016005820154815260200160068201548152602001600782018054611f16906132e5565b80601f0160208091040260200160405190810160405280929190818152602001828054611f42906132e5565b8015611f8d5780601f10611f6457610100808354040283529160200191611f8d565b820191905f5260205f20905b815481529060010190602001808311611f7057829003601f168201915b50505091835250506008820154602082015260098201546040820152600a9091015460ff1615156060909101529051909590945092505050565b5f61089b3361244d565b335f81815260208190526040902054839081106120005760405162461bcd60e51b815260040161075190613356565b6001600160a01b0382165f908152602081905260409020805482908110612029576120296132d1565b5f9182526020909120600a600b90920201015460ff1661205b5760405162461bcd60e51b815260040161075190613382565b5f8351116120ab5760405162461bcd60e51b815260206004820152601860248201527f4e6577206e616d652063616e6e6f7420626520656d70747900000000000000006044820152606401610751565b335f9081526020819052604081208054869081106120cb576120cb6132d1565b905f5260205f2090600b020160030180546120e5906132e5565b80601f0160208091040260200160405190810160405280929190818152602001828054612111906132e5565b801561215c5780601f106121335761010080835404028352916020019161215c565b820191905f5260205f20905b81548152906001019060200180831161213f57829003601f168201915b50505050509050835f5f336001600160a01b03166001600160a01b031681526020019081526020015f208681548110612197576121976132d1565b905f5260205f2090600b020160030190816121b291906133fd565b5084336001600160a01b03167f1b92805a13f2a3aaae8bb07149c963127d3670d447e4782488078146cb09110a83876040516121ef929190613552565b60405180910390a35050505050565b335f818152602081905260409020548290811061222d5760405162461bcd60e51b815260040161075190613356565b6001600160a01b0382165f908152602081905260409020805482908110612256576122566132d1565b5f9182526020909120600a600b90920201015460ff166122885760405162461bcd60e51b815260040161075190613382565b335f9081526020819052604081208054859081106122a8576122a86132d1565b905f5260205f2090600b02019050806005015460015f336001600160a01b03166001600160a01b031681526020019081526020015f205f8282546122ec9190613343565b9091555050600a8101805460ff191690556005810154604051859133917f89cc0a907a88e94dcd694852dfe9a98748064760342b65e5f82a1597c34c86e79161233a91600387019190613564565b60405180910390a350505050565b6001600160a01b0382165f90815260026020908152604080832084845282528083203384529091528082208151808301909252805460609392919082908290612390906132e5565b80601f01602080910402602001604051908101604052809291908181526020018280546123bc906132e5565b80156124075780601f106123de57610100808354040283529160200191612407565b820191905f5260205f20905b8154815290600101906020018083116123ea57829003601f168201915b50505091835250506001919091015460ff1615156020918201528101519091506124435760405162461bcd60e51b81526004016107519061350e565b5190505b92915050565b5f805b6001600160a01b0383165f908152602081905260409020548110156124c9576001600160a01b0383165f908152602081905260409020805482908110612498576124986132d1565b5f9182526020909120600a600b90920201015460ff16156124c157816124bd8161332b565b9250505b600101612450565b50919050565b85515161251e5760405162461bcd60e51b815260206004820152601b60248201527f53686172642030204349442063616e6e6f7420626520656d70747900000000006044820152606401610751565b6020860151516125705760405162461bcd60e51b815260206004820152601b60248201527f53686172642031204349442063616e6e6f7420626520656d70747900000000006044820152606401610751565b6040860151516125c25760405162461bcd60e51b815260206004820152601b60248201527f53686172642032204349442063616e6e6f7420626520656d70747900000000006044820152606401610751565b5f8551116126125760405162461bcd60e51b815260206004820152601960248201527f46696c65206e616d652063616e6e6f7420626520656d707479000000000000006044820152606401610751565b5f83116126615760405162461bcd60e51b815260206004820152601a60248201527f46696c652073697a65206d75737420626520706f7369746976650000000000006044820152606401610751565b63064000008311156126b55760405162461bcd60e51b815260206004820152601860248201527f46696c652065786365656473203130304d42206c696d697400000000000000006044820152606401610751565b60188251146126d65760405162461bcd60e51b8152600401610751906134b7565b8061271e5760405162461bcd60e51b815260206004820152601860248201527746696c6520686173682063616e6e6f74206265207a65726f60401b6044820152606401610751565b335f9081526001602052604090205463400000009061273e9085906134fb565b111561278c5760405162461bcd60e51b815260206004820181905260248201527f53746f726167652071756f74612065786365656465642028314742206d6178296044820152606401610751565b604080516101208101825287815260208082018890528183018790526060820186905242608083015260a0820185905260c08201849052600160e083018190526101008301819052335f9081528083529384208054918201815584529220815191928392600b90910290910190612806908290600361295a565b506020820151600382019061281b90826133fd565b506040820151600482019061283090826133fd565b50606082015160058201556080820151600682015560a0820151600782019061285990826133fd565b5060c0820151600882015560e0820151600982015561010090910151600a909101805460ff1916911515919091179055335f90815260016020526040812080548692906128a79084906134fb565b9091555050335f908152602081905260408120546128c790600190613343565b905080336001600160a01b03167fbe3ace123f34dd67d35e870b0e009099aad0c958c650e361fdf675f6aac9262489888a4289604051611b2f9594939291906135f3565b60405180610120016040528061291f6129a3565b815260200160608152602001606081526020015f81526020015f8152602001606081526020015f81526020015f81526020015f151581525090565b8260038101928215612993579160200282015b82811115612993578251829061298390826133fd565b509160200191906001019061296d565b5061299f9291506129ca565b5090565b60405180606001604052806003905b60608152602001906001900390816129b25790505090565b8082111561299f575f6129dd82826129e6565b506001016129ca565b5080546129f2906132e5565b5f825580601f10612a01575050565b601f0160209004905f5260205f2090810190612a1d9190612a20565b50565b5b8082111561299f575f8155600101612a21565b80356001600160a01b0381168114612a4a575f5ffd5b919050565b5f60208284031215612a5f575f5ffd5b61032282612a34565b5f5f5f60608486031215612a7a575f5ffd5b612a8384612a34565b925060208401359150612a9860408501612a34565b90509250925092565b5f81518084528060208401602086015e5f602082860101526020601f19601f83011685010191505092915050565b5f8260608101835f5b6003811015612b07578383038752612af1838351612aa1565b6020978801979093509190910190600101612ad8565b509095945050505050565b5f81516101208452612b28610120850182612acf565b905060208301518482036020860152612b418282612aa1565b91505060408301518482036040860152612b5b8282612aa1565b915050606083015160608501526080830151608085015260a083015184820360a0860152612b898282612aa1565b91505060c083015160c085015260e083015160e0850152610100830151612bb561010086018215159052565b509392505050565b5f82825180855260208501945060208160051b830101602085015f5b83811015612c0b57601f19858403018852612bf5838351612b12565b6020988901989093509190910190600101612bd9565b50909695505050505050565b602081525f6103226020830184612bbd565b634e487b7160e01b5f52604160045260245ffd5b60405160c081016001600160401b0381118282101715612c5f57612c5f612c29565b60405290565b604051601f8201601f191681016001600160401b0381118282101715612c8d57612c8d612c29565b604052919050565b5f5f6001600160401b03841115612cae57612cae612c29565b50601f8301601f1916602001612cc381612c65565b915050828152838383011115612cd7575f5ffd5b828260208301375f602084830101529392505050565b5f82601f830112612cfc575f5ffd5b61032283833560208501612c95565b5f82601f830112612d1a575f5ffd5b604051606081016001600160401b0381118282101715612d3c57612d3c612c29565b604052806060840185811115612d50575f5ffd5b845b81811015612d8a5780356001600160401b03811115612d6f575f5ffd5b612d7b88828901612ced565b84525060209283019201612d52565b509195945050505050565b5f5f5f5f5f5f60c08789031215612daa575f5ffd5b86356001600160401b03811115612dbf575f5ffd5b612dcb89828a01612d0b565b96505060208701356001600160401b03811115612de6575f5ffd5b612df289828a01612ced565b95505060408701356001600160401b03811115612e0d575f5ffd5b612e1989828a01612ced565b9450506060870135925060808701356001600160401b03811115612e3b575f5ffd5b612e4789828a01612ced565b9699959850939692959460a09093013593505050565b5f60208284031215612e6d575f5ffd5b81356001600160401b03811115612e82575f5ffd5b8201601f81018413612e92575f5ffd5b80356001600160401b03811115612eab57612eab612c29565b8060051b612ebb60208201612c65565b91825260208184018101929081019087841115612ed6575f5ffd5b6020850192505b83831015612fef5782356001600160401b03811115612efa575f5ffd5b850160c0818a03601f19011215612f0f575f5ffd5b612f17612c3d565b60208201356001600160401b03811115612f2f575f5ffd5b612f3e8b602083860101612d0b565b82525060408201356001600160401b03811115612f59575f5ffd5b612f688b602083860101612ced565b60208301525060608201356001600160401b03811115612f86575f5ffd5b612f958b602083860101612ced565b6040830152506080820135606082015260a08201356001600160401b03811115612fbd575f5ffd5b612fcc8b602083860101612ced565b60808301525060c0919091013560a0820152825260209283019290910190612edd565b979650505050505050565b5f6020828403121561300a575f5ffd5b5035919050565b602081525f6103226020830184612b12565b5f5f5f60608486031215613035575f5ffd5b8335925061304560208501612a34565b915060408401356001600160401b0381111561305f575f5ffd5b8401601f8101861361306f575f5ffd5b61307e86823560208401612c95565b9150509250925092565b5f82825180855260208501945060208160051b830101602085015f5b83811015612c0b57601f198584030188526130c0838351612aa1565b60209889019890935091909101906001016130a4565b608080825285519082018190525f90602087019060a0840190835b818110156131185783516001600160a01b03168352602093840193909201916001016130f1565b505083810360208501528091505f87518083526020830193506020890192505f5b81811015613157578351855260209485019490930192600101613139565b50505050828103604084015261316d8186612bbd565b90508281036060840152612fef8185613088565b5f5f60408385031215613192575f5ffd5b823591506131a260208401612a34565b90509250929050565b5f5f5f5f5f60a086880312156131bf575f5ffd5b8535945060208601356001600160401b038111156131db575f5ffd5b6131e788828901612d0b565b9450506040860135925060608601356001600160401b03811115613209575f5ffd5b61321588828901612ced565b95989497509295608001359392505050565b5f5f60408385031215613238575f5ffd5b61324183612a34565b946020939093013593505050565b604081525f6132616040830185612b12565b82810360208401526132738185612aa1565b95945050505050565b5f5f6040838503121561328d575f5ffd5b8235915060208301356001600160401b038111156132a9575f5ffd5b6132b585828601612ced565b9150509250929050565b602081525f6103226020830184612aa1565b634e487b7160e01b5f52603260045260245ffd5b600181811c908216806132f957607f821691505b6020821081036124c957634e487b7160e01b5f52602260045260245ffd5b634e487b7160e01b5f52601160045260245ffd5b5f6001820161333c5761333c613317565b5060010190565b8181038181111561244757612447613317565b602080825260129082015271092dcecc2d8d2c840ccd2d8ca40d2dcc8caf60731b604082015260600190565b602080825260159082015274119a5b19481a185cc81899595b8819195b195d1959605a1b604082015260600190565b601f8211156133f857805f5260205f20601f840160051c810160208510156133d65750805b601f840160051c820191505b818110156133f5575f81556001016133e2565b50505b505050565b81516001600160401b0381111561341657613416612c29565b61342a8161342484546132e5565b846133b1565b6020601f82116001811461345c575f83156134455750848201515b5f19600385901b1c1916600184901b1784556133f5565b5f84815260208120601f198516915b8281101561348b578785015182556020948501946001909201910161346b565b50848210156134a857868401515f19600387901b60f8161c191681555b50505050600190811b01905550565b60208082526024908201527f4956206d7573742062652065786163746c7920323420686578206368617261636040820152637465727360e01b606082015260800190565b8082018082111561244757612447613317565b60208082526024908201527f4e6f2061637469766520616363657373206772616e7420666f7220746869732060408201526366696c6560e01b606082015260800190565b604081525f6132616040830185612aa1565b604081525f5f8454613575816132e5565b806040860152600182165f811461359357600181146135af576135e0565b60ff1983166060870152606082151560051b87010193506135e0565b875f5260205f205f5b838110156135d7578154888201606001526001909101906020016135b8565b87016060019450505b5050506020929092019290925292915050565b60a081525f61360560a0830188612aa1565b866020840152828103604084015261361d8187612aa1565b6060840195909552505060800152939250505056fea2646970667358221220abc8e14a933f65a146759f79fcc14a4634c83c97285b50e28c1fedf7fc3d0f4864736f6c634300081c0033",
  "linkReferences": {},
  "deployedLinkReferences": {},
  "immutableReferences": {},
  "inputSourceName": "project/contracts/FileStorage.sol",
  "buildInfoId": "solc-0_8_28-ceae36dfe51ac84d544258451b6413ceef50953d"
}