{
  "_format": "hh3-artifact-1",
  "contractName": "FileStorage",
  "sourceName": "contracts/FileStorage.sol",
  "abi": [
    {
      "anonymous": false,
      "inputs": [
        {
          "indexed": true,
          "internalType": "address",
          "name": "user",
          "type": "address"
        },
        {
          "indexed": false,
          "internalType": "uint256",
          "name": "index",
          "type": "uint256"
        },
        {
          "indexed": false,
          "internalType": "uint256",
          "name": "freedSize",
          "type": "uint256"
        }
      ],
      "name": "FileDeleted",
      "type": "event"
    },
    {
      "anonymous": false,
      "inputs": [
        {
          "indexed": true,
          "internalType": "address",
          "name": "user",
          "type": "address"
        },
        {
          "indexed": false,
          "internalType": "string[]",
          "name": "ipfsHash",
          "type": "string[]"
        },
        {
          "indexed": false,
          "internalType": "string",
          "name": "fileName",
          "type": "string"
        },
        {
          "indexed": false,
          "internalType": "uint256",
          "name": "fileSize",
          "type": "uint256"
        },
        {
          "indexed": false,
          "internalType": "string",
          "name": "exts",
          "type": "string"
        },
        {
          "indexed": false,
          "internalType": "uint256",
          "name": "timestamp",
          "type": "uint256"
        },
        {
          "indexed": false,
          "internalType": "string",
          "name": "encryptionIv",
          "type": "string"
        }
      ],
      "name": "FileUploaded",
      "type": "event"
    },
    {
      "inputs": [
        {
          "internalType": "uint256",
          "name": "index",
          "type": "uint256"
        }
      ],
      "name": "deleteFile",
      "outputs": [],
      "stateMutability": "nonpayable",
      "type": "function"
    },
    {
      "inputs": [],
      "name": "getFileCount",
      "outputs": [
        {
          "internalType": "uint256",
          "name": "",
          "type": "uint256"
        }
      ],
      "stateMutability": "view",
      "type": "function"
    },
    {
      "inputs": [],
      "name": "getUserFiles",
      "outputs": [
        {
          "components": [
            {
              "internalType": "string[]",
              "name": "ipfsHash",
              "type": "string[]"
            },
            {
              "internalType": "string",
              "name": "fileName",
              "type": "string"
            },
            {
              "internalType": "string",
              "name": "exts",
              "type": "string"
            },
            {
              "internalType": "uint256",
              "name": "fileSize",
              "type": "uint256"
            },
            {
              "internalType": "uint256",
              "name": "timestamp",
              "type": "uint256"
            },
            {
              "internalType": "string",
              "name": "encryptionIv",
              "type": "string"
            }
          ],
          "internalType": "struct FileStorage.File[]",
          "name": "",
          "type": "tuple[]"
        }
      ],
      "stateMutability": "view",
      "type": "function"
    },
    {
      "inputs": [
        {
          "internalType": "address",
          "name": "",
          "type": "address"
        }
      ],
      "name": "totalStorageUsed",
      "outputs": [
        {
          "internalType": "uint256",
          "name": "",
          "type": "uint256"
        }
      ],
      "stateMutability": "view",
      "type": "function"
    },
    {
      "inputs": [
        {
          "internalType": "string[]",
          "name": "_ipfsHash",
          "type": "string[]"
        },
        {
          "internalType": "string",
          "name": "_fileName",
          "type": "string"
        },
        {
          "internalType": "string",
          "name": "_exts",
          "type": "string"
        },
        {
          "internalType": "uint256",
          "name": "_fileSize",
          "type": "uint256"
        },
        {
          "internalType": "string",
          "name": "_encryptionIv",
          "type": "string"
        }
      ],
      "name": "uploadFile",
      "outputs": [],
      "stateMutability": "nonpayable",
      "type": "function"
    }
  ],
  "bytecode": "0x6080604052348015600e575f5ffd5b506113468061001c5f395ff3fe608060405234801561000f575f5ffd5b5060043610610055575f3560e01c806307cd685514610059578063119429891461008b578063bab50cc9146100a0578063c5b42006146100b4578063f7da18c8146100c9575b5f5ffd5b610078610067366004610c5f565b60016020525f908152604090205481565b6040519081526020015b60405180910390f35b6100936100dc565b6040516100829190610cba565b335f90815260208190526040902054610078565b6100c76100c2366004610dd1565b6103d8565b005b6100c76100d7366004610e99565b6108c6565b335f90815260208181526040808320805482518185028101850190935280835260609492939192909184015b828210156103cf578382905f5260205f2090600602016040518060c00160405290815f8201805480602002602001604051908101604052809291908181526020015f905b828210156101f4578382905f5260205f2001805461016990610fee565b80601f016020809104026020016040519081016040528092919081815260200182805461019590610fee565b80156101e05780601f106101b7576101008083540402835291602001916101e0565b820191905f5260205f20905b8154815290600101906020018083116101c357829003601f168201915b50505050508152602001906001019061014c565b50505050815260200160018201805461020c90610fee565b80601f016020809104026020016040519081016040528092919081815260200182805461023890610fee565b80156102835780601f1061025a57610100808354040283529160200191610283565b820191905f5260205f20905b81548152906001019060200180831161026657829003601f168201915b5050505050815260200160028201805461029c90610fee565b80601f01602080910402602001604051908101604052809291908181526020018280546102c890610fee565b80156103135780601f106102ea57610100808354040283529160200191610313565b820191905f5260205f20905b8154815290600101906020018083116102f657829003601f168201915b50505050508152602001600382015481526020016004820154815260200160058201805461034090610fee565b80601f016020809104026020016040519081016040528092919081815260200182805461036c90610fee565b80156103b75780601f1061038e576101008083540402835291602001916103b7565b820191905f5260205f20905b81548152906001019060200180831161039a57829003601f168201915b50505050508152505081526020019060010190610108565b50505050905090565b335f90815260208190526040902054811061042f5760405162461bcd60e51b8152602060048201526012602482015271092dcecc2d8d2c840ccd2d8ca40d2dcc8caf60731b60448201526064015b60405180910390fd5b335f90815260208190526040812080548390811061044f5761044f611026565b905f5260205f2090600602016040518060c00160405290815f8201805480602002602001604051908101604052809291908181526020015f905b82821015610531578382905f5260205f200180546104a690610fee565b80601f01602080910402602001604051908101604052809291908181526020018280546104d290610fee565b801561051d5780601f106104f45761010080835404028352916020019161051d565b820191905f5260205f20905b81548152906001019060200180831161050057829003601f168201915b505050505081526020019060010190610489565b50505050815260200160018201805461054990610fee565b80601f016020809104026020016040519081016040528092919081815260200182805461057590610fee565b80156105c05780601f10610597576101008083540402835291602001916105c0565b820191905f5260205f20905b8154815290600101906020018083116105a357829003601f168201915b505050505081526020016002820180546105d990610fee565b80601f016020809104026020016040519081016040528092919081815260200182805461060590610fee565b80156106505780601f1061062757610100808354040283529160200191610650565b820191905f5260205f20905b81548152906001019060200180831161063357829003601f168201915b50505050508152602001600382015481526020016004820154815260200160058201805461067d90610fee565b80601f01602080910402602001604051908101604052809291908181526020018280546106a990610fee565b80156106f45780601f106106cb576101008083540402835291602001916106f4565b820191905f5260205f20905b8154815290600101906020018083116106d757829003601f168201915b505050919092525050506060810151335f9081526001602052604081208054939450919261072390849061104e565b9091555050335f90815260208190526040902080546107449060019061104e565b8154811061075457610754611026565b905f5260205f2090600602015f5f336001600160a01b03166001600160a01b031681526020019081526020015f20838154811061079357610793611026565b5f91825260209091208254600690920201906107b29082908490610b42565b506001818101906107c5908401826110b0565b506002818101906107d8908401826110b0565b5060038201548160030155600482015481600401556005820181600501908161080191906110b0565b5050335f90815260208190526040902080549091508061082357610823611188565b5f828152602081205f19909201916006830201906108418282610b96565b61084e600183015f610bb4565b61085b600283015f610bb4565b600382015f9055600482015f9055600582015f6108789190610bb4565b50509055606081015160405133917f63769209c1147ac4294e1623c54c87c883202d8c7b4039470d96488023be9fed916108ba91868252602082015260400190565b60405180910390a25050565b6108d385858585856108da565b5050505050565b5f85511161092a5760405162461bcd60e51b815260206004820152601960248201527f4950465320686173682063616e6e6f7420626520656d707479000000000000006044820152606401610426565b5f84511161097a5760405162461bcd60e51b815260206004820152601960248201527f46696c65206e616d652063616e6e6f7420626520656d707479000000000000006044820152606401610426565b5f82116109c95760405162461bcd60e51b815260206004820152601a60248201527f46696c652073697a65206d75737420626520706f7369746976650000000000006044820152606401610426565b5f815111610a125760405162461bcd60e51b8152602060048201526016602482015275115b98dc9e5c1d1a5bdb881255881c995c5d5a5c995960521b6044820152606401610426565b6040805160c08101825286815260208082018790528183018690526060820185905242608083015260a08201849052335f9081528082529283208054600181018255908452928190208251805193948594600690910290920192610a7b92849290910190610beb565b5060208201516001820190610a90908261119c565b5060408201516002820190610aa5908261119c565b50606082015160038201556080820151600482015560a08201516005820190610ace908261119c565b5050335f9081526001602052604081208054869350909190610af190849061124f565b909155505060405133907ffa1e7df99782ccf53c18ade4a65902641a68aabe4a3a04a9d248226ed96c1d9f90610b32908990899088908a9042908a90611262565b60405180910390a2505050505050565b828054828255905f5260205f20908101928215610b86575f5260205f209182015b82811115610b865781610b7684826110b0565b5091600101919060010190610b63565b50610b92929150610c2f565b5090565b5080545f8255905f5260205f2090810190610bb19190610c2f565b50565b508054610bc090610fee565b5f825580601f10610bcf575050565b601f0160209004905f5260205f2090810190610bb19190610c4b565b828054828255905f5260205f20908101928215610b86579160200282015b82811115610b865782518290610c1f908261119c565b5091602001919060010190610c09565b80821115610b92575f610c428282610bb4565b50600101610c2f565b5b80821115610b92575f8155600101610c4c565b5f60208284031215610c6f575f5ffd5b81356001600160a01b0381168114610c85575f5ffd5b9392505050565b5f81518084528060208401602086015e5f602082860101526020601f19601f83011685010191505092915050565b5f602082016020835280845180835260408501915060408160051b8601019250602086015f5b82811015610dc557603f198786030184528151805160c0808852815190880181905260e0600582901b890181019260200191908901905f5b81811015610d495760df198b8603018352610d34858551610c8c565b94506020938401939290920191600101610d18565b5050505060208201518782036020890152610d648282610c8c565b91505060408201518782036040890152610d7e8282610c8c565b915050606082015160608801526080820151608088015260a0820151915086810360a0880152610dae8183610c8c565b965050506020938401939190910190600101610ce0565b50929695505050505050565b5f60208284031215610de1575f5ffd5b5035919050565b634e487b7160e01b5f52604160045260245ffd5b604051601f8201601f1916810167ffffffffffffffff81118282101715610e2557610e25610de8565b604052919050565b5f82601f830112610e3c575f5ffd5b813567ffffffffffffffff811115610e5657610e56610de8565b610e69601f8201601f1916602001610dfc565b818152846020838601011115610e7d575f5ffd5b816020850160208301375f918101602001919091529392505050565b5f5f5f5f5f60a08688031215610ead575f5ffd5b853567ffffffffffffffff811115610ec3575f5ffd5b8601601f81018813610ed3575f5ffd5b803567ffffffffffffffff811115610eed57610eed610de8565b8060051b610efd60208201610dfc565b9182526020818401810192908101908b841115610f18575f5ffd5b6020850192505b83831015610f5e57823567ffffffffffffffff811115610f3d575f5ffd5b610f4c8d602083890101610e2d565b83525060209283019290910190610f1f565b98505050506020870135905067ffffffffffffffff811115610f7e575f5ffd5b610f8a88828901610e2d565b945050604086013567ffffffffffffffff811115610fa6575f5ffd5b610fb288828901610e2d565b93505060608601359150608086013567ffffffffffffffff811115610fd5575f5ffd5b610fe188828901610e2d565b9150509295509295909350565b600181811c9082168061100257607f821691505b60208210810361102057634e487b7160e01b5f52602260045260245ffd5b50919050565b634e487b7160e01b5f52603260045260245ffd5b634e487b7160e01b5f52601160045260245ffd5b818103818111156110615761106161103a565b92915050565b601f8211156110ab57805f5260205f20601f840160051c8101602085101561108c5750805b601f840160051c820191505b818110156108d3575f8155600101611098565b505050565b8181036110bb575050565b6110c58254610fee565b67ffffffffffffffff8111156110dd576110dd610de8565b6110f1816110eb8454610fee565b84611067565b5f601f821160018114611125575f831561110b5750848201545b600184901b5f19600386901b1c198216175b8555506108d3565b5f8581526020808220868352908220601f198616925b8381101561115b578286015482556001958601959091019060200161113b565b508583101561117857818501545f19600388901b60f8161c191681555b5050505050600190811b01905550565b634e487b7160e01b5f52603160045260245ffd5b815167ffffffffffffffff8111156111b6576111b6610de8565b6111c4816110eb8454610fee565b6020601f8211600181146111f4575f831561110b575081850151600184901b5f19600386901b1c1982161761111d565b5f84815260208120601f198516915b828110156112235787850151825560209485019460019092019101611203565b508482101561124057868401515f19600387901b60f8161c191681555b50505050600190811b01905550565b808201808211156110615761106161103a565b5f60c0820160c0835280895180835260e08501915060e08160051b860101925060208b015f5b828110156112b95760df198786030184526112a4858351610c8c565b94506020938401939190910190600101611288565b5050505082810360208401526112cf8189610c8c565b905086604084015282810360608401526112e98187610c8c565b905084608084015282810360a08401526113038185610c8c565b999850505050505050505056fea2646970667358221220b7430e8439cb16d682869039c62413cc45a53ad1dad91123864e31d1f242b4ba64736f6c634300081c0033",
  "linkReferences": {},
  "deployedLinkReferences": {},
  "immutableReferences": {},
  "inputSourceName": "project/contracts/FileStorage.sol",
  "buildInfoId": "solc-0_8_28-f6f8153e22789ef52b519f3e7c2174a5583108be"
}