{
  "_format": "hh3-artifact-1",
  "contractName": "UniversityDiploma",
  "sourceName": "contracts/Univ.sol",
  "abi": [
    {
      "inputs": [
        {
          "internalType": "address",
          "name": "admin",
          "type": "address"
        }
      ],
      "stateMutability": "nonpayable",
      "type": "constructor"
    },
    {
      "inputs": [],
      "name": "AccessControlBadConfirmation",
      "type": "error"
    },
    {
      "inputs": [
        {
          "internalType": "address",
          "name": "account",
          "type": "address"
        },
        {
          "internalType": "bytes32",
          "name": "neededRole",
          "type": "bytes32"
        }
      ],
      "name": "AccessControlUnauthorizedAccount",
      "type": "error"
    },
    {
      "inputs": [
        {
          "internalType": "uint256",
          "name": "batchId",
          "type": "uint256"
        }
      ],
      "name": "Batch_CannotCancel",
      "type": "error"
    },
    {
      "inputs": [],
      "name": "Batch_EmptyStudentList",
      "type": "error"
    },
    {
      "inputs": [
        {
          "internalType": "uint256",
          "name": "batchId",
          "type": "uint256"
        }
      ],
      "name": "Batch_Expired",
      "type": "error"
    },
    {
      "inputs": [
        {
          "internalType": "uint256",
          "name": "index",
          "type": "uint256"
        },
        {
          "internalType": "uint16",
          "name": "grade",
          "type": "uint16"
        }
      ],
      "name": "Batch_InvalidGrade",
      "type": "error"
    },
    {
      "inputs": [
        {
          "internalType": "uint256",
          "name": "index",
          "type": "uint256"
        }
      ],
      "name": "Batch_InvalidGraduationYear",
      "type": "error"
    },
    {
      "inputs": [
        {
          "internalType": "uint256",
          "name": "batchId",
          "type": "uint256"
        },
        {
          "internalType": "enum UniversityDiploma.BatchStatus",
          "name": "current",
          "type": "uint8"
        },
        {
          "internalType": "enum UniversityDiploma.BatchStatus",
          "name": "required",
          "type": "uint8"
        }
      ],
      "name": "Batch_InvalidStatus",
      "type": "error"
    },
    {
      "inputs": [
        {
          "internalType": "uint256",
          "name": "index",
          "type": "uint256"
        }
      ],
      "name": "Batch_InvalidStudentWallet",
      "type": "error"
    },
    {
      "inputs": [
        {
          "internalType": "string",
          "name": "matricule",
          "type": "string"
        }
      ],
      "name": "Batch_MatriculeAlreadyMinted",
      "type": "error"
    },
    {
      "inputs": [
        {
          "internalType": "uint256",
          "name": "index",
          "type": "uint256"
        }
      ],
      "name": "Batch_MissingCID",
      "type": "error"
    },
    {
      "inputs": [],
      "name": "Batch_MissingCancelReason",
      "type": "error"
    },
    {
      "inputs": [
        {
          "internalType": "uint256",
          "name": "index",
          "type": "uint256"
        }
      ],
      "name": "Batch_MissingDepartment",
      "type": "error"
    },
    {
      "inputs": [
        {
          "internalType": "uint256",
          "name": "index",
          "type": "uint256"
        }
      ],
      "name": "Batch_MissingHash",
      "type": "error"
    },
    {
      "inputs": [
        {
          "internalType": "uint256",
          "name": "index",
          "type": "uint256"
        }
      ],
      "name": "Batch_MissingMatricule",
      "type": "error"
    },
    {
      "inputs": [
        {
          "internalType": "uint256",
          "name": "index",
          "type": "uint256"
        }
      ],
      "name": "Batch_MissingName",
      "type": "error"
    },
    {
      "inputs": [
        {
          "internalType": "uint256",
          "name": "provided",
          "type": "uint256"
        },
        {
          "internalType": "uint256",
          "name": "max",
          "type": "uint256"
        }
      ],
      "name": "Batch_TooLarge",
      "type": "error"
    },
    {
      "inputs": [
        {
          "internalType": "address",
          "name": "sender",
          "type": "address"
        },
        {
          "internalType": "uint256",
          "name": "tokenId",
          "type": "uint256"
        },
        {
          "internalType": "address",
          "name": "owner",
          "type": "address"
        }
      ],
      "name": "ERC721IncorrectOwner",
      "type": "error"
    },
    {
      "inputs": [
        {
          "internalType": "address",
          "name": "operator",
          "type": "address"
        },
        {
          "internalType": "uint256",
          "name": "tokenId",
          "type": "uint256"
        }
      ],
      "name": "ERC721InsufficientApproval",
      "type": "error"
    },
    {
      "inputs": [
        {
          "internalType": "address",
          "name": "approver",
          "type": "address"
        }
      ],
      "name": "ERC721InvalidApprover",
      "type": "error"
    },
    {
      "inputs": [
        {
          "internalType": "address",
          "name": "operator",
          "type": "address"
        }
      ],
      "name": "ERC721InvalidOperator",
      "type": "error"
    },
    {
      "inputs": [
        {
          "internalType": "address",
          "name": "owner",
          "type": "address"
        }
      ],
      "name": "ERC721InvalidOwner",
      "type": "error"
    },
    {
      "inputs": [
        {
          "internalType": "address",
          "name": "receiver",
          "type": "address"
        }
      ],
      "name": "ERC721InvalidReceiver",
      "type": "error"
    },
    {
      "inputs": [
        {
          "internalType": "address",
          "name": "sender",
          "type": "address"
        }
      ],
      "name": "ERC721InvalidSender",
      "type": "error"
    },
    {
      "inputs": [
        {
          "internalType": "uint256",
          "name": "tokenId",
          "type": "uint256"
        }
      ],
      "name": "ERC721NonexistentToken",
      "type": "error"
    },
    {
      "inputs": [],
      "name": "Index_OutOfBounds",
      "type": "error"
    },
    {
      "inputs": [
        {
          "internalType": "uint256",
          "name": "studentIndex",
          "type": "uint256"
        },
        {
          "internalType": "uint16",
          "name": "bumped",
          "type": "uint16"
        }
      ],
      "name": "Rachat_BumpAboveMax",
      "type": "error"
    },
    {
      "inputs": [
        {
          "internalType": "uint256",
          "name": "studentIndex",
          "type": "uint256"
        },
        {
          "internalType": "uint16",
          "name": "base",
          "type": "uint16"
        },
        {
          "internalType": "uint16",
          "name": "bumped",
          "type": "uint16"
        }
      ],
      "name": "Rachat_BumpBelowBase",
      "type": "error"
    },
    {
      "inputs": [
        {
          "internalType": "uint256",
          "name": "studentIndex",
          "type": "uint256"
        },
        {
          "internalType": "uint16",
          "name": "bumped",
          "type": "uint16"
        }
      ],
      "name": "Rachat_BumpBelowPassGrade",
      "type": "error"
    },
    {
      "inputs": [
        {
          "internalType": "uint256",
          "name": "studentIndex",
          "type": "uint256"
        }
      ],
      "name": "Rachat_InvalidStudentIndex",
      "type": "error"
    },
    {
      "inputs": [
        {
          "internalType": "uint256",
          "name": "studentIndex",
          "type": "uint256"
        }
      ],
      "name": "Rachat_MissingReason",
      "type": "error"
    },
    {
      "inputs": [
        {
          "internalType": "uint256",
          "name": "studentIndex",
          "type": "uint256"
        },
        {
          "internalType": "uint16",
          "name": "moyenne",
          "type": "uint16"
        }
      ],
      "name": "Rachat_StudentNotBorderline",
      "type": "error"
    },
    {
      "inputs": [],
      "name": "ReentrancyGuardReentrantCall",
      "type": "error"
    },
    {
      "inputs": [],
      "name": "Role_ZeroAddress",
      "type": "error"
    },
    {
      "inputs": [],
      "name": "SBT_TransferNotAllowed",
      "type": "error"
    },
    {
      "inputs": [
        {
          "internalType": "uint256",
          "name": "tokenId",
          "type": "uint256"
        }
      ],
      "name": "Token_AlreadyRevoked",
      "type": "error"
    },
    {
      "inputs": [
        {
          "internalType": "uint256",
          "name": "tokenId",
          "type": "uint256"
        }
      ],
      "name": "Token_DoesNotExist",
      "type": "error"
    },
    {
      "inputs": [],
      "name": "Token_MissingRevocationReason",
      "type": "error"
    },
    {
      "anonymous": false,
      "inputs": [
        {
          "indexed": true,
          "internalType": "address",
          "name": "owner",
          "type": "address"
        },
        {
          "indexed": true,
          "internalType": "address",
          "name": "approved",
          "type": "address"
        },
        {
          "indexed": true,
          "internalType": "uint256",
          "name": "tokenId",
          "type": "uint256"
        }
      ],
      "name": "Approval",
      "type": "event"
    },
    {
      "anonymous": false,
      "inputs": [
        {
          "indexed": true,
          "internalType": "address",
          "name": "owner",
          "type": "address"
        },
        {
          "indexed": true,
          "internalType": "address",
          "name": "operator",
          "type": "address"
        },
        {
          "indexed": false,
          "internalType": "bool",
          "name": "approved",
          "type": "bool"
        }
      ],
      "name": "ApprovalForAll",
      "type": "event"
    },
    {
      "anonymous": false,
      "inputs": [
        {
          "indexed": true,
          "internalType": "uint256",
          "name": "batchId",
          "type": "uint256"
        },
        {
          "indexed": true,
          "internalType": "address",
          "name": "cancelledBy",
          "type": "address"
        },
        {
          "indexed": false,
          "internalType": "string",
          "name": "reason",
          "type": "string"
        }
      ],
      "name": "BatchCancelled",
      "type": "event"
    },
    {
      "anonymous": false,
      "inputs": [
        {
          "indexed": true,
          "internalType": "uint256",
          "name": "batchId",
          "type": "uint256"
        },
        {
          "indexed": true,
          "internalType": "address",
          "name": "council",
          "type": "address"
        },
        {
          "indexed": false,
          "internalType": "uint256",
          "name": "timestamp",
          "type": "uint256"
        },
        {
          "indexed": false,
          "internalType": "uint256",
          "name": "rachatCount",
          "type": "uint256"
        },
        {
          "indexed": false,
          "internalType": "string",
          "name": "note",
          "type": "string"
        }
      ],
      "name": "BatchDeliberated",
      "type": "event"
    },
    {
      "anonymous": false,
      "inputs": [
        {
          "indexed": true,
          "internalType": "uint256",
          "name": "batchId",
          "type": "uint256"
        },
        {
          "indexed": false,
          "internalType": "uint256[]",
          "name": "tokenIds",
          "type": "uint256[]"
        },
        {
          "indexed": false,
          "internalType": "uint256",
          "name": "totalStudents",
          "type": "uint256"
        },
        {
          "indexed": false,
          "internalType": "uint256",
          "name": "diplomasMinted",
          "type": "uint256"
        }
      ],
      "name": "BatchFinalized",
      "type": "event"
    },
    {
      "anonymous": false,
      "inputs": [
        {
          "indexed": true,
          "internalType": "uint256",
          "name": "batchId",
          "type": "uint256"
        },
        {
          "indexed": true,
          "internalType": "address",
          "name": "proposer",
          "type": "address"
        },
        {
          "indexed": false,
          "internalType": "uint256",
          "name": "studentCount",
          "type": "uint256"
        },
        {
          "indexed": false,
          "internalType": "string",
          "name": "description",
          "type": "string"
        },
        {
          "indexed": false,
          "internalType": "uint256",
          "name": "expiresAt",
          "type": "uint256"
        }
      ],
      "name": "BatchProposed",
      "type": "event"
    },
    {
      "anonymous": false,
      "inputs": [
        {
          "indexed": true,
          "internalType": "uint256",
          "name": "batchId",
          "type": "uint256"
        },
        {
          "indexed": true,
          "internalType": "address",
          "name": "dean",
          "type": "address"
        },
        {
          "indexed": false,
          "internalType": "uint256",
          "name": "timestamp",
          "type": "uint256"
        }
      ],
      "name": "BatchSignedByDean",
      "type": "event"
    },
    {
      "anonymous": false,
      "inputs": [
        {
          "indexed": true,
          "internalType": "uint256",
          "name": "batchId",
          "type": "uint256"
        },
        {
          "indexed": true,
          "internalType": "address",
          "name": "rector",
          "type": "address"
        },
        {
          "indexed": false,
          "internalType": "uint256",
          "name": "timestamp",
          "type": "uint256"
        }
      ],
      "name": "BatchSignedByRector",
      "type": "event"
    },
    {
      "anonymous": false,
      "inputs": [
        {
          "indexed": true,
          "internalType": "address",
          "name": "council",
          "type": "address"
        },
        {
          "indexed": true,
          "internalType": "address",
          "name": "assignedBy",
          "type": "address"
        }
      ],
      "name": "CouncilAssigned",
      "type": "event"
    },
    {
      "anonymous": false,
      "inputs": [
        {
          "indexed": true,
          "internalType": "address",
          "name": "council",
          "type": "address"
        },
        {
          "indexed": true,
          "internalType": "address",
          "name": "removedBy",
          "type": "address"
        }
      ],
      "name": "CouncilRemoved",
      "type": "event"
    },
    {
      "anonymous": false,
      "inputs": [
        {
          "indexed": true,
          "internalType": "address",
          "name": "dean",
          "type": "address"
        },
        {
          "indexed": true,
          "internalType": "address",
          "name": "assignedBy",
          "type": "address"
        }
      ],
      "name": "DeanAssigned",
      "type": "event"
    },
    {
      "anonymous": false,
      "inputs": [
        {
          "indexed": true,
          "internalType": "address",
          "name": "dean",
          "type": "address"
        },
        {
          "indexed": true,
          "internalType": "address",
          "name": "removedBy",
          "type": "address"
        }
      ],
      "name": "DeanRemoved",
      "type": "event"
    },
    {
      "anonymous": false,
      "inputs": [
        {
          "indexed": true,
          "internalType": "uint256",
          "name": "tokenId",
          "type": "uint256"
        },
        {
          "indexed": true,
          "internalType": "address",
          "name": "revokedBy",
          "type": "address"
        },
        {
          "indexed": false,
          "internalType": "string",
          "name": "reason",
          "type": "string"
        },
        {
          "indexed": false,
          "internalType": "uint256",
          "name": "timestamp",
          "type": "uint256"
        }
      ],
      "name": "DiplomaRevoked",
      "type": "event"
    },
    {
      "anonymous": false,
      "inputs": [
        {
          "indexed": true,
          "internalType": "uint256",
          "name": "tokenId",
          "type": "uint256"
        },
        {
          "indexed": true,
          "internalType": "address",
          "name": "verifier",
          "type": "address"
        },
        {
          "indexed": false,
          "internalType": "bool",
          "name": "isAuthentic",
          "type": "bool"
        },
        {
          "indexed": false,
          "internalType": "uint256",
          "name": "count",
          "type": "uint256"
        }
      ],
      "name": "DiplomaVerified",
      "type": "event"
    },
    {
      "anonymous": false,
      "inputs": [
        {
          "indexed": true,
          "internalType": "uint256",
          "name": "batchId",
          "type": "uint256"
        },
        {
          "indexed": true,
          "internalType": "uint256",
          "name": "studentIndex",
          "type": "uint256"
        },
        {
          "indexed": false,
          "internalType": "uint16",
          "name": "baseMoyenne",
          "type": "uint16"
        },
        {
          "indexed": false,
          "internalType": "uint16",
          "name": "bumpedMoyenne",
          "type": "uint16"
        },
        {
          "indexed": false,
          "internalType": "string",
          "name": "reason",
          "type": "string"
        }
      ],
      "name": "RachatApplied",
      "type": "event"
    },
    {
      "anonymous": false,
      "inputs": [
        {
          "indexed": true,
          "internalType": "address",
          "name": "rector",
          "type": "address"
        },
        {
          "indexed": true,
          "internalType": "address",
          "name": "assignedBy",
          "type": "address"
        }
      ],
      "name": "RectorAssigned",
      "type": "event"
    },
    {
      "anonymous": false,
      "inputs": [
        {
          "indexed": true,
          "internalType": "address",
          "name": "rector",
          "type": "address"
        },
        {
          "indexed": true,
          "internalType": "address",
          "name": "removedBy",
          "type": "address"
        }
      ],
      "name": "RectorRemoved",
      "type": "event"
    },
    {
      "anonymous": false,
      "inputs": [
        {
          "indexed": true,
          "internalType": "bytes32",
          "name": "role",
          "type": "bytes32"
        },
        {
          "indexed": true,
          "internalType": "bytes32",
          "name": "previousAdminRole",
          "type": "bytes32"
        },
        {
          "indexed": true,
          "internalType": "bytes32",
          "name": "newAdminRole",
          "type": "bytes32"
        }
      ],
      "name": "RoleAdminChanged",
      "type": "event"
    },
    {
      "anonymous": false,
      "inputs": [
        {
          "indexed": true,
          "internalType": "bytes32",
          "name": "role",
          "type": "bytes32"
        },
        {
          "indexed": true,
          "internalType": "address",
          "name": "account",
          "type": "address"
        },
        {
          "indexed": true,
          "internalType": "address",
          "name": "sender",
          "type": "address"
        }
      ],
      "name": "RoleGranted",
      "type": "event"
    },
    {
      "anonymous": false,
      "inputs": [
        {
          "indexed": true,
          "internalType": "bytes32",
          "name": "role",
          "type": "bytes32"
        },
        {
          "indexed": true,
          "internalType": "address",
          "name": "account",
          "type": "address"
        },
        {
          "indexed": true,
          "internalType": "address",
          "name": "sender",
          "type": "address"
        }
      ],
      "name": "RoleRevoked",
      "type": "event"
    },
    {
      "anonymous": false,
      "inputs": [
        {
          "indexed": true,
          "internalType": "address",
          "name": "from",
          "type": "address"
        },
        {
          "indexed": true,
          "internalType": "address",
          "name": "to",
          "type": "address"
        },
        {
          "indexed": true,
          "internalType": "uint256",
          "name": "tokenId",
          "type": "uint256"
        }
      ],
      "name": "Transfer",
      "type": "event"
    },
    {
      "inputs": [],
      "name": "ADMIN_ROLE",
      "outputs": [
        {
          "internalType": "bytes32",
          "name": "",
          "type": "bytes32"
        }
      ],
      "stateMutability": "view",
      "type": "function"
    },
    {
      "inputs": [],
      "name": "COUNCIL_ROLE",
      "outputs": [
        {
          "internalType": "bytes32",
          "name": "",
          "type": "bytes32"
        }
      ],
      "stateMutability": "view",
      "type": "function"
    },
    {
      "inputs": [],
      "name": "DEAN_ROLE",
      "outputs": [
        {
          "internalType": "bytes32",
          "name": "",
          "type": "bytes32"
        }
      ],
      "stateMutability": "view",
      "type": "function"
    },
    {
      "inputs": [],
      "name": "DEFAULT_ADMIN_ROLE",
      "outputs": [
        {
          "internalType": "bytes32",
          "name": "",
          "type": "bytes32"
        }
      ],
      "stateMutability": "view",
      "type": "function"
    },
    {
      "inputs": [],
      "name": "MAX_BATCH_SIZE",
      "outputs": [
        {
          "internalType": "uint256",
          "name": "",
          "type": "uint256"
        }
      ],
      "stateMutability": "view",
      "type": "function"
    },
    {
      "inputs": [],
      "name": "MAX_GRADE",
      "outputs": [
        {
          "internalType": "uint16",
          "name": "",
          "type": "uint16"
        }
      ],
      "stateMutability": "view",
      "type": "function"
    },
    {
      "inputs": [],
      "name": "PASS_GRADE",
      "outputs": [
        {
          "internalType": "uint16",
          "name": "",
          "type": "uint16"
        }
      ],
      "stateMutability": "view",
      "type": "function"
    },
    {
      "inputs": [],
      "name": "PROPOSAL_EXPIRY",
      "outputs": [
        {
          "internalType": "uint256",
          "name": "",
          "type": "uint256"
        }
      ],
      "stateMutability": "view",
      "type": "function"
    },
    {
      "inputs": [],
      "name": "RACHAT_THRESHOLD",
      "outputs": [
        {
          "internalType": "uint16",
          "name": "",
          "type": "uint16"
        }
      ],
      "stateMutability": "view",
      "type": "function"
    },
    {
      "inputs": [],
      "name": "RECTOR_ROLE",
      "outputs": [
        {
          "internalType": "bytes32",
          "name": "",
          "type": "bytes32"
        }
      ],
      "stateMutability": "view",
      "type": "function"
    },
    {
      "inputs": [
        {
          "internalType": "address",
          "name": "to",
          "type": "address"
        },
        {
          "internalType": "uint256",
          "name": "tokenId",
          "type": "uint256"
        }
      ],
      "name": "approve",
      "outputs": [],
      "stateMutability": "nonpayable",
      "type": "function"
    },
    {
      "inputs": [
        {
          "internalType": "address",
          "name": "c",
          "type": "address"
        }
      ],
      "name": "assignCouncil",
      "outputs": [],
      "stateMutability": "nonpayable",
      "type": "function"
    },
    {
      "inputs": [
        {
          "internalType": "address",
          "name": "d",
          "type": "address"
        }
      ],
      "name": "assignDean",
      "outputs": [],
      "stateMutability": "nonpayable",
      "type": "function"
    },
    {
      "inputs": [
        {
          "internalType": "address",
          "name": "r",
          "type": "address"
        }
      ],
      "name": "assignRector",
      "outputs": [],
      "stateMutability": "nonpayable",
      "type": "function"
    },
    {
      "inputs": [
        {
          "internalType": "address",
          "name": "owner",
          "type": "address"
        }
      ],
      "name": "balanceOf",
      "outputs": [
        {
          "internalType": "uint256",
          "name": "",
          "type": "uint256"
        }
      ],
      "stateMutability": "view",
      "type": "function"
    },
    {
      "inputs": [
        {
          "internalType": "uint256",
          "name": "batchId",
          "type": "uint256"
        },
        {
          "internalType": "string",
          "name": "reason",
          "type": "string"
        }
      ],
      "name": "cancelBatch",
      "outputs": [],
      "stateMutability": "nonpayable",
      "type": "function"
    },
    {
      "inputs": [
        {
          "internalType": "uint16",
          "name": "s1",
          "type": "uint16"
        },
        {
          "internalType": "uint16",
          "name": "s2",
          "type": "uint16"
        }
      ],
      "name": "computeAnnualAverage",
      "outputs": [
        {
          "internalType": "uint16",
          "name": "",
          "type": "uint16"
        }
      ],
      "stateMutability": "pure",
      "type": "function"
    },
    {
      "inputs": [
        {
          "internalType": "uint256",
          "name": "batchId",
          "type": "uint256"
        },
        {
          "components": [
            {
              "internalType": "uint256",
              "name": "studentIndex",
              "type": "uint256"
            },
            {
              "internalType": "uint16",
              "name": "bumpedMoyenne",
              "type": "uint16"
            },
            {
              "internalType": "string",
              "name": "reason",
              "type": "string"
            }
          ],
          "internalType": "struct UniversityDiploma.Rachat[]",
          "name": "rachats",
          "type": "tuple[]"
        },
        {
          "internalType": "string[]",
          "name": "transcriptCIDs",
          "type": "string[]"
        },
        {
          "internalType": "string",
          "name": "note",
          "type": "string"
        }
      ],
      "name": "deliberate",
      "outputs": [],
      "stateMutability": "nonpayable",
      "type": "function"
    },
    {
      "inputs": [
        {
          "internalType": "uint256",
          "name": "batchId",
          "type": "uint256"
        }
      ],
      "name": "finalizeBatch",
      "outputs": [
        {
          "internalType": "uint256[]",
          "name": "tokenIds",
          "type": "uint256[]"
        }
      ],
      "stateMutability": "nonpayable",
      "type": "function"
    },
    {
      "inputs": [
        {
          "internalType": "uint256",
          "name": "tokenId",
          "type": "uint256"
        }
      ],
      "name": "getApproved",
      "outputs": [
        {
          "internalType": "address",
          "name": "",
          "type": "address"
        }
      ],
      "stateMutability": "view",
      "type": "function"
    },
    {
      "inputs": [
        {
          "internalType": "uint256",
          "name": "batchId",
          "type": "uint256"
        }
      ],
      "name": "getBatchCancelReason",
      "outputs": [
        {
          "internalType": "string",
          "name": "",
          "type": "string"
        }
      ],
      "stateMutability": "view",
      "type": "function"
    },
    {
      "inputs": [
        {
          "internalType": "uint256",
          "name": "batchId",
          "type": "uint256"
        }
      ],
      "name": "getBatchDeliberation",
      "outputs": [
        {
          "internalType": "uint256",
          "name": "deliberatedAt",
          "type": "uint256"
        },
        {
          "internalType": "address",
          "name": "deliberatedBy",
          "type": "address"
        },
        {
          "internalType": "string",
          "name": "note",
          "type": "string"
        }
      ],
      "stateMutability": "view",
      "type": "function"
    },
    {
      "inputs": [
        {
          "internalType": "uint256",
          "name": "batchId",
          "type": "uint256"
        }
      ],
      "name": "getBatchDescription",
      "outputs": [
        {
          "internalType": "string",
          "name": "",
          "type": "string"
        }
      ],
      "stateMutability": "view",
      "type": "function"
    },
    {
      "inputs": [
        {
          "internalType": "uint256",
          "name": "batchId",
          "type": "uint256"
        }
      ],
      "name": "getBatchExpiry",
      "outputs": [
        {
          "internalType": "uint256",
          "name": "",
          "type": "uint256"
        }
      ],
      "stateMutability": "view",
      "type": "function"
    },
    {
      "inputs": [
        {
          "internalType": "uint256",
          "name": "batchId",
          "type": "uint256"
        }
      ],
      "name": "getBatchResults",
      "outputs": [
        {
          "internalType": "uint256",
          "name": "total",
          "type": "uint256"
        },
        {
          "internalType": "uint256",
          "name": "admis",
          "type": "uint256"
        },
        {
          "internalType": "uint256",
          "name": "rachat",
          "type": "uint256"
        },
        {
          "internalType": "uint256",
          "name": "ajourne",
          "type": "uint256"
        }
      ],
      "stateMutability": "view",
      "type": "function"
    },
    {
      "inputs": [
        {
          "internalType": "uint256",
          "name": "batchId",
          "type": "uint256"
        }
      ],
      "name": "getBatchSignatures",
      "outputs": [
        {
          "internalType": "uint256",
          "name": "deanSignedAt",
          "type": "uint256"
        },
        {
          "internalType": "uint256",
          "name": "rectorSignedAt",
          "type": "uint256"
        },
        {
          "internalType": "uint256",
          "name": "finalizedAt",
          "type": "uint256"
        }
      ],
      "stateMutability": "view",
      "type": "function"
    },
    {
      "inputs": [
        {
          "internalType": "uint256",
          "name": "batchId",
          "type": "uint256"
        }
      ],
      "name": "getBatchStatus",
      "outputs": [
        {
          "internalType": "enum UniversityDiploma.BatchStatus",
          "name": "",
          "type": "uint8"
        }
      ],
      "stateMutability": "view",
      "type": "function"
    },
    {
      "inputs": [
        {
          "internalType": "uint256",
          "name": "batchId",
          "type": "uint256"
        },
        {
          "internalType": "uint256",
          "name": "idx",
          "type": "uint256"
        }
      ],
      "name": "getBatchStudent",
      "outputs": [
        {
          "components": [
            {
              "internalType": "address",
              "name": "wallet",
              "type": "address"
            },
            {
              "internalType": "string",
              "name": "studentName",
              "type": "string"
            },
            {
              "internalType": "string",
              "name": "matricule",
              "type": "string"
            },
            {
              "internalType": "string",
              "name": "dateOfBirth",
              "type": "string"
            },
            {
              "internalType": "string",
              "name": "placeOfBirth",
              "type": "string"
            },
            {
              "internalType": "string",
              "name": "metadataCID",
              "type": "string"
            },
            {
              "internalType": "bytes32",
              "name": "sha256Hash",
              "type": "bytes32"
            },
            {
              "internalType": "bytes32",
              "name": "gradeTreeRoot",
              "type": "bytes32"
            },
            {
              "internalType": "enum UniversityDiploma.Specialty",
              "name": "specialty",
              "type": "uint8"
            },
            {
              "internalType": "enum UniversityDiploma.Cycle",
              "name": "cycle",
              "type": "uint8"
            },
            {
              "internalType": "uint16",
              "name": "graduationYear",
              "type": "uint16"
            },
            {
              "internalType": "string",
              "name": "department",
              "type": "string"
            },
            {
              "internalType": "uint16",
              "name": "s1Grade",
              "type": "uint16"
            },
            {
              "internalType": "uint16",
              "name": "s2Grade",
              "type": "uint16"
            },
            {
              "internalType": "uint16",
              "name": "baseMoyenne",
              "type": "uint16"
            }
          ],
          "internalType": "struct UniversityDiploma.StudentEntry",
          "name": "",
          "type": "tuple"
        }
      ],
      "stateMutability": "view",
      "type": "function"
    },
    {
      "inputs": [
        {
          "internalType": "uint256",
          "name": "batchId",
          "type": "uint256"
        }
      ],
      "name": "getBatchStudentCount",
      "outputs": [
        {
          "internalType": "uint256",
          "name": "",
          "type": "uint256"
        }
      ],
      "stateMutability": "view",
      "type": "function"
    },
    {
      "inputs": [
        {
          "internalType": "uint256",
          "name": "tokenId",
          "type": "uint256"
        }
      ],
      "name": "getDiplomaRecord",
      "outputs": [
        {
          "components": [
            {
              "internalType": "string",
              "name": "studentName",
              "type": "string"
            },
            {
              "internalType": "string",
              "name": "matricule",
              "type": "string"
            },
            {
              "internalType": "string",
              "name": "dateOfBirth",
              "type": "string"
            },
            {
              "internalType": "string",
              "name": "placeOfBirth",
              "type": "string"
            },
            {
              "internalType": "string",
              "name": "metadataCID",
              "type": "string"
            },
            {
              "internalType": "bytes32",
              "name": "sha256Hash",
              "type": "bytes32"
            },
            {
              "internalType": "bytes32",
              "name": "gradeTreeRoot",
              "type": "bytes32"
            },
            {
              "internalType": "enum UniversityDiploma.Specialty",
              "name": "specialty",
              "type": "uint8"
            },
            {
              "internalType": "enum UniversityDiploma.Cycle",
              "name": "cycle",
              "type": "uint8"
            },
            {
              "internalType": "enum UniversityDiploma.Mention",
              "name": "mention",
              "type": "uint8"
            },
            {
              "internalType": "uint16",
              "name": "moyenne",
              "type": "uint16"
            },
            {
              "internalType": "uint16",
              "name": "graduationYear",
              "type": "uint16"
            },
            {
              "internalType": "string",
              "name": "department",
              "type": "string"
            },
            {
              "internalType": "uint256",
              "name": "batchId",
              "type": "uint256"
            },
            {
              "internalType": "uint256",
              "name": "mintedAt",
              "type": "uint256"
            },
            {
              "internalType": "bool",
              "name": "valid",
              "type": "bool"
            },
            {
              "internalType": "string",
              "name": "revocationReason",
              "type": "string"
            }
          ],
          "internalType": "struct UniversityDiploma.DiplomaRecord",
          "name": "",
          "type": "tuple"
        }
      ],
      "stateMutability": "view",
      "type": "function"
    },
    {
      "inputs": [
        {
          "internalType": "bytes32",
          "name": "role",
          "type": "bytes32"
        }
      ],
      "name": "getRoleAdmin",
      "outputs": [
        {
          "internalType": "bytes32",
          "name": "",
          "type": "bytes32"
        }
      ],
      "stateMutability": "view",
      "type": "function"
    },
    {
      "inputs": [
        {
          "internalType": "address",
          "name": "student",
          "type": "address"
        }
      ],
      "name": "getStudentDiplomas",
      "outputs": [
        {
          "internalType": "uint256[]",
          "name": "",
          "type": "uint256[]"
        }
      ],
      "stateMutability": "view",
      "type": "function"
    },
    {
      "inputs": [
        {
          "internalType": "uint256",
          "name": "batchId",
          "type": "uint256"
        },
        {
          "internalType": "uint256",
          "name": "idx",
          "type": "uint256"
        }
      ],
      "name": "getStudentPV",
      "outputs": [
        {
          "components": [
            {
              "internalType": "uint16",
              "name": "s1Grade",
              "type": "uint16"
            },
            {
              "internalType": "uint16",
              "name": "s2Grade",
              "type": "uint16"
            },
            {
              "internalType": "uint16",
              "name": "baseMoyenne",
              "type": "uint16"
            },
            {
              "internalType": "uint16",
              "name": "finalMoyenne",
              "type": "uint16"
            },
            {
              "internalType": "enum UniversityDiploma.Mention",
              "name": "mention",
              "type": "uint8"
            },
            {
              "internalType": "enum UniversityDiploma.DeliberationResult",
              "name": "result",
              "type": "uint8"
            },
            {
              "internalType": "bool",
              "name": "rachatApplied",
              "type": "bool"
            },
            {
              "internalType": "bool",
              "name": "diplomaEligible",
              "type": "bool"
            },
            {
              "internalType": "string",
              "name": "ipfsTranscriptCID",
              "type": "string"
            }
          ],
          "internalType": "struct UniversityDiploma.StudentPV",
          "name": "",
          "type": "tuple"
        }
      ],
      "stateMutability": "view",
      "type": "function"
    },
    {
      "inputs": [
        {
          "internalType": "string",
          "name": "matricule",
          "type": "string"
        }
      ],
      "name": "getTokenByMatricule",
      "outputs": [
        {
          "internalType": "uint256",
          "name": "tokenId",
          "type": "uint256"
        },
        {
          "internalType": "bool",
          "name": "exists",
          "type": "bool"
        }
      ],
      "stateMutability": "view",
      "type": "function"
    },
    {
      "inputs": [
        {
          "internalType": "uint256",
          "name": "batchId",
          "type": "uint256"
        },
        {
          "internalType": "uint256",
          "name": "idx",
          "type": "uint256"
        }
      ],
      "name": "getTranscriptLink",
      "outputs": [
        {
          "internalType": "string",
          "name": "",
          "type": "string"
        }
      ],
      "stateMutability": "view",
      "type": "function"
    },
    {
      "inputs": [
        {
          "internalType": "bytes32",
          "name": "role",
          "type": "bytes32"
        },
        {
          "internalType": "address",
          "name": "account",
          "type": "address"
        }
      ],
      "name": "grantRole",
      "outputs": [],
      "stateMutability": "nonpayable",
      "type": "function"
    },
    {
      "inputs": [
        {
          "internalType": "bytes32",
          "name": "role",
          "type": "bytes32"
        },
        {
          "internalType": "address",
          "name": "account",
          "type": "address"
        }
      ],
      "name": "hasRole",
      "outputs": [
        {
          "internalType": "bool",
          "name": "",
          "type": "bool"
        }
      ],
      "stateMutability": "view",
      "type": "function"
    },
    {
      "inputs": [
        {
          "internalType": "address",
          "name": "owner",
          "type": "address"
        },
        {
          "internalType": "address",
          "name": "operator",
          "type": "address"
        }
      ],
      "name": "isApprovedForAll",
      "outputs": [
        {
          "internalType": "bool",
          "name": "",
          "type": "bool"
        }
      ],
      "stateMutability": "view",
      "type": "function"
    },
    {
      "inputs": [
        {
          "internalType": "uint16",
          "name": "moyenne",
          "type": "uint16"
        }
      ],
      "name": "isBorderline",
      "outputs": [
        {
          "internalType": "bool",
          "name": "",
          "type": "bool"
        }
      ],
      "stateMutability": "pure",
      "type": "function"
    },
    {
      "inputs": [
        {
          "internalType": "uint256",
          "name": "tokenId",
          "type": "uint256"
        }
      ],
      "name": "isDiplomaValid",
      "outputs": [
        {
          "internalType": "bool",
          "name": "",
          "type": "bool"
        }
      ],
      "stateMutability": "view",
      "type": "function"
    },
    {
      "inputs": [
        {
          "internalType": "string",
          "name": "m",
          "type": "string"
        }
      ],
      "name": "isMatriculeUsed",
      "outputs": [
        {
          "internalType": "bool",
          "name": "",
          "type": "bool"
        }
      ],
      "stateMutability": "view",
      "type": "function"
    },
    {
      "inputs": [
        {
          "internalType": "uint16",
          "name": "m",
          "type": "uint16"
        }
      ],
      "name": "mentionFor",
      "outputs": [
        {
          "internalType": "enum UniversityDiploma.Mention",
          "name": "",
          "type": "uint8"
        }
      ],
      "stateMutability": "pure",
      "type": "function"
    },
    {
      "inputs": [],
      "name": "name",
      "outputs": [
        {
          "internalType": "string",
          "name": "",
          "type": "string"
        }
      ],
      "stateMutability": "view",
      "type": "function"
    },
    {
      "inputs": [],
      "name": "nextBatchId",
      "outputs": [
        {
          "internalType": "uint256",
          "name": "",
          "type": "uint256"
        }
      ],
      "stateMutability": "view",
      "type": "function"
    },
    {
      "inputs": [],
      "name": "nextTokenId",
      "outputs": [
        {
          "internalType": "uint256",
          "name": "",
          "type": "uint256"
        }
      ],
      "stateMutability": "view",
      "type": "function"
    },
    {
      "inputs": [
        {
          "internalType": "uint256",
          "name": "tokenId",
          "type": "uint256"
        }
      ],
      "name": "ownerOf",
      "outputs": [
        {
          "internalType": "address",
          "name": "",
          "type": "address"
        }
      ],
      "stateMutability": "view",
      "type": "function"
    },
    {
      "inputs": [
        {
          "components": [
            {
              "internalType": "address",
              "name": "wallet",
              "type": "address"
            },
            {
              "internalType": "string",
              "name": "studentName",
              "type": "string"
            },
            {
              "internalType": "string",
              "name": "matricule",
              "type": "string"
            },
            {
              "internalType": "string",
              "name": "dateOfBirth",
              "type": "string"
            },
            {
              "internalType": "string",
              "name": "placeOfBirth",
              "type": "string"
            },
            {
              "internalType": "string",
              "name": "metadataCID",
              "type": "string"
            },
            {
              "internalType": "bytes32",
              "name": "sha256Hash",
              "type": "bytes32"
            },
            {
              "internalType": "bytes32",
              "name": "gradeTreeRoot",
              "type": "bytes32"
            },
            {
              "internalType": "enum UniversityDiploma.Specialty",
              "name": "specialty",
              "type": "uint8"
            },
            {
              "internalType": "enum UniversityDiploma.Cycle",
              "name": "cycle",
              "type": "uint8"
            },
            {
              "internalType": "uint16",
              "name": "graduationYear",
              "type": "uint16"
            },
            {
              "internalType": "string",
              "name": "department",
              "type": "string"
            },
            {
              "internalType": "uint16",
              "name": "s1Grade",
              "type": "uint16"
            },
            {
              "internalType": "uint16",
              "name": "s2Grade",
              "type": "uint16"
            },
            {
              "internalType": "uint16",
              "name": "baseMoyenne",
              "type": "uint16"
            }
          ],
          "internalType": "struct UniversityDiploma.StudentEntry[]",
          "name": "inputs",
          "type": "tuple[]"
        },
        {
          "internalType": "string",
          "name": "description",
          "type": "string"
        }
      ],
      "name": "proposeBatch",
      "outputs": [
        {
          "internalType": "uint256",
          "name": "batchId",
          "type": "uint256"
        }
      ],
      "stateMutability": "nonpayable",
      "type": "function"
    },
    {
      "inputs": [
        {
          "internalType": "address",
          "name": "c",
          "type": "address"
        }
      ],
      "name": "removeCouncil",
      "outputs": [],
      "stateMutability": "nonpayable",
      "type": "function"
    },
    {
      "inputs": [
        {
          "internalType": "address",
          "name": "d",
          "type": "address"
        }
      ],
      "name": "removeDean",
      "outputs": [],
      "stateMutability": "nonpayable",
      "type": "function"
    },
    {
      "inputs": [
        {
          "internalType": "address",
          "name": "r",
          "type": "address"
        }
      ],
      "name": "removeRector",
      "outputs": [],
      "stateMutability": "nonpayable",
      "type": "function"
    },
    {
      "inputs": [
        {
          "internalType": "bytes32",
          "name": "role",
          "type": "bytes32"
        },
        {
          "internalType": "address",
          "name": "callerConfirmation",
          "type": "address"
        }
      ],
      "name": "renounceRole",
      "outputs": [],
      "stateMutability": "nonpayable",
      "type": "function"
    },
    {
      "inputs": [
        {
          "internalType": "uint256",
          "name": "tokenId",
          "type": "uint256"
        },
        {
          "internalType": "string",
          "name": "reason",
          "type": "string"
        }
      ],
      "name": "revokeDiploma",
      "outputs": [],
      "stateMutability": "nonpayable",
      "type": "function"
    },
    {
      "inputs": [
        {
          "internalType": "bytes32",
          "name": "role",
          "type": "bytes32"
        },
        {
          "internalType": "address",
          "name": "account",
          "type": "address"
        }
      ],
      "name": "revokeRole",
      "outputs": [],
      "stateMutability": "nonpayable",
      "type": "function"
    },
    {
      "inputs": [
        {
          "internalType": "address",
          "name": "from",
          "type": "address"
        },
        {
          "internalType": "address",
          "name": "to",
          "type": "address"
        },
        {
          "internalType": "uint256",
          "name": "tokenId",
          "type": "uint256"
        }
      ],
      "name": "safeTransferFrom",
      "outputs": [],
      "stateMutability": "nonpayable",
      "type": "function"
    },
    {
      "inputs": [
        {
          "internalType": "address",
          "name": "from",
          "type": "address"
        },
        {
          "internalType": "address",
          "name": "to",
          "type": "address"
        },
        {
          "internalType": "uint256",
          "name": "tokenId",
          "type": "uint256"
        },
        {
          "internalType": "bytes",
          "name": "data",
          "type": "bytes"
        }
      ],
      "name": "safeTransferFrom",
      "outputs": [],
      "stateMutability": "nonpayable",
      "type": "function"
    },
    {
      "inputs": [
        {
          "internalType": "address",
          "name": "operator",
          "type": "address"
        },
        {
          "internalType": "bool",
          "name": "approved",
          "type": "bool"
        }
      ],
      "name": "setApprovalForAll",
      "outputs": [],
      "stateMutability": "nonpayable",
      "type": "function"
    },
    {
      "inputs": [
        {
          "internalType": "uint256",
          "name": "batchId",
          "type": "uint256"
        }
      ],
      "name": "signByDean",
      "outputs": [],
      "stateMutability": "nonpayable",
      "type": "function"
    },
    {
      "inputs": [
        {
          "internalType": "uint256",
          "name": "batchId",
          "type": "uint256"
        }
      ],
      "name": "signByRector",
      "outputs": [],
      "stateMutability": "nonpayable",
      "type": "function"
    },
    {
      "inputs": [
        {
          "internalType": "bytes4",
          "name": "interfaceId",
          "type": "bytes4"
        }
      ],
      "name": "supportsInterface",
      "outputs": [
        {
          "internalType": "bool",
          "name": "",
          "type": "bool"
        }
      ],
      "stateMutability": "view",
      "type": "function"
    },
    {
      "inputs": [],
      "name": "symbol",
      "outputs": [
        {
          "internalType": "string",
          "name": "",
          "type": "string"
        }
      ],
      "stateMutability": "view",
      "type": "function"
    },
    {
      "inputs": [
        {
          "internalType": "uint256",
          "name": "tokenId",
          "type": "uint256"
        }
      ],
      "name": "tokenURI",
      "outputs": [
        {
          "internalType": "string",
          "name": "",
          "type": "string"
        }
      ],
      "stateMutability": "view",
      "type": "function"
    },
    {
      "inputs": [
        {
          "internalType": "address",
          "name": "from",
          "type": "address"
        },
        {
          "internalType": "address",
          "name": "to",
          "type": "address"
        },
        {
          "internalType": "uint256",
          "name": "tokenId",
          "type": "uint256"
        }
      ],
      "name": "transferFrom",
      "outputs": [],
      "stateMutability": "nonpayable",
      "type": "function"
    },
    {
      "inputs": [
        {
          "internalType": "uint256",
          "name": "",
          "type": "uint256"
        }
      ],
      "name": "verificationCount",
      "outputs": [
        {
          "internalType": "uint256",
          "name": "",
          "type": "uint256"
        }
      ],
      "stateMutability": "view",
      "type": "function"
    },
    {
      "inputs": [
        {
          "internalType": "uint256",
          "name": "tokenId",
          "type": "uint256"
        },
        {
          "internalType": "bytes32",
          "name": "pdfHash",
          "type": "bytes32"
        }
      ],
      "name": "verifyDiploma",
      "outputs": [
        {
          "internalType": "bool",
          "name": "isAuthentic",
          "type": "bool"
        }
      ],
      "stateMutability": "nonpayable",
      "type": "function"
    },
    {
      "inputs": [
        {
          "internalType": "uint256",
          "name": "tokenId",
          "type": "uint256"
        },
        {
          "internalType": "bytes32",
          "name": "pdfHash",
          "type": "bytes32"
        }
      ],
      "name": "verifyDiplomaView",
      "outputs": [
        {
          "internalType": "bool",
          "name": "isAuthentic",
          "type": "bool"
        },
        {
          "internalType": "bool",
          "name": "exists",
          "type": "bool"
        },
        {
          "internalType": "bool",
          "name": "isValid",
          "type": "bool"
        }
      ],
      "stateMutability": "view",
      "type": "function"
    },
    {
      "inputs": [
        {
          "internalType": "uint256",
          "name": "tokenId",
          "type": "uint256"
        },
        {
          "internalType": "string",
          "name": "ueName",
          "type": "string"
        },
        {
          "internalType": "string",
          "name": "subjectName",
          "type": "string"
        },
        {
          "internalType": "uint16",
          "name": "ccMark",
          "type": "uint16"
        },
        {
          "internalType": "uint16",
          "name": "examMark",
          "type": "uint16"
        },
        {
          "internalType": "bytes32[]",
          "name": "proof",
          "type": "bytes32[]"
        }
      ],
      "name": "verifySubjectMark",
      "outputs": [
        {
          "internalType": "bool",
          "name": "",
          "type": "bool"
        }
      ],
      "stateMutability": "view",
      "type": "function"
    }
  ],
  "bytecode": "0x608060405234801561000f575f80fd5b50604051615d86380380615d8683398101604081905261002e916101de565b60405180604001604052806011815260200170556e69766572736974794469706c6f6d6160781b815250604051806040016040528060048152602001630554449560e41b815250815f908161008391906102a3565b50600161009082826102a3565b50505060016100a96100a661010d60201b60201c565b90565b556001600160a01b0381166100d15760405163af0849dd60e01b815260040160405180910390fd5b6100db5f82610131565b506101067fa49807205ce4d355092ef5a8a18f56e8913cf4a201fbe287825b095693c2177582610131565b5050610362565b7f9b779b17422d0df92223018b32b4d1fa46e071723d6817e2486d003becc55f0090565b5f8281526006602090815260408083206001600160a01b038516845290915281205460ff166101d5575f8381526006602090815260408083206001600160a01b03861684529091529020805460ff1916600117905561018d3390565b6001600160a01b0316826001600160a01b0316847f2f8788117e7eff1d82e926ec794901d17c78024a50270940304540a733656f0d60405160405180910390a45060016101d8565b505f5b92915050565b5f602082840312156101ee575f80fd5b81516001600160a01b0381168114610204575f80fd5b9392505050565b634e487b7160e01b5f52604160045260245ffd5b600181811c9082168061023357607f821691505b60208210810361025157634e487b7160e01b5f52602260045260245ffd5b50919050565b601f82111561029e57805f5260205f20601f840160051c8101602085101561027c5750805b601f840160051c820191505b8181101561029b575f8155600101610288565b50505b505050565b81516001600160401b038111156102bc576102bc61020b565b6102d0816102ca845461021f565b84610257565b602080601f831160018114610303575f84156102ec5750858301515b5f19600386901b1c1916600185901b17855561035a565b5f85815260208120601f198616915b8281101561033157888601518255948401946001909101908401610312565b508582101561034e57878501515f19600388901b60f8161c191681555b505060018460011b0185555b505050505050565b615a178061036f5f395ff3fe608060405234801561000f575f80fd5b50600436106103d4575f3560e01c80637785113e11610200578063b94f02c11161011f578063d1b93292116100b4578063e33491a711610084578063e33491a714610935578063e669d0f514610948578063e985e9c514610992578063ebe57cd2146109a5578063ee818e20146109c5575f80fd5b8063d1b93292146108dc578063d248a9e0146108fc578063d547741f1461090f578063d57a3c0714610922575f80fd5b8063c44c7e67116100ef578063c44c7e671461088c578063c87b56dd1461089f578063cf543671146108b2578063cfdbf254146108d4575f80fd5b8063b94f02c114610840578063bc37532f14610853578063bd681de114610866578063c02763c314610879575f80fd5b8063a217fddf11610195578063a77dca8811610165578063a77dca88146107f1578063a9ff6e0314610804578063ae058d111461080d578063b88d4fde1461082d575f80fd5b8063a217fddf1461079c578063a22cb465146107a3578063a27f421e146107b6578063a2880099146107bf575f80fd5b80638a14e3d0116101d05780638a14e3d01461076457806391d148541461076e57806395d89b411461078157806395fa12d614610789575f80fd5b80637785113e146107205780638462a7f8146107335780638626d7151461073b578063882b948f14610744575f80fd5b806341cd0977116102f75780635d14a9e11161028c5780636f2ed0841161025c5780636f2ed084146106bf57806370a08231146106de57806370c7e6c3146106f157806375794a3c1461070457806375b238fc1461070c575f80fd5b80635d14a9e11461062b5780636352211e14610653578063658b86f01461066657806368917ac414610699575f80fd5b8063536e448c116102c7578063536e448c146105d057806354f3bce1146105e357806358f956641461060557806358fe72b314610618575f80fd5b806341cd09771461057557806342842e0e14610588578063483028ca1461059b5780634885d287146105bd575f80fd5b8063248a9ca31161036d5780632f2ff15d1161033d5780632f2ff15d1461052957806336568abe1461053c57806337d18db51461054f5780633e1952c614610562575f80fd5b8063248a9ca3146104b057806324d42a37146104d25780632ac7cf45146104e65780632d1bbc8e146104fa575f80fd5b8063081812fc116103a8578063081812fc1461044c578063095ea7b31461047757806315dc36f91461048a57806323b872dd1461049d575f80fd5b80622854d7146103d857806301ffc9a7146103ff57806305beaad51461042257806306fdde0314610437575b5f80fd5b6103ec5f8051602061598283398151915281565b6040519081526020015b60405180910390f35b61041261040d3660046147fc565b6109e5565b60405190151581526020016103f6565b61043561043036600461485b565b6109f5565b005b61043f610afd565b6040516103f691906148d0565b61045f61045a3660046148e2565b610b8c565b6040516001600160a01b0390911681526020016103f6565b610435610485366004614914565b610bb3565b61043f61049836600461493c565b610bc2565b6104356104ab36600461495c565b610ce4565b6103ec6104be3660046148e2565b5f9081526006602052604090206001015490565b6103ec5f805160206159c283398151915281565b6103ec5f8051602061596283398151915281565b61051c6105083660046148e2565b5f9081526009602052604090205460ff1690565b6040516103f691906149bd565b6104356105373660046149cb565b610d6d565b61043561054a3660046149cb565b610d91565b61041261055d3660046149f5565b610dc9565b6103ec610570366004614a73565b610df7565b6104356105833660046148e2565b61138e565b61043561059636600461495c565b61146d565b6103ec6105a93660046148e2565b5f908152600960205260409020600b015490565b6104126105cb366004614ae8565b611487565b6104356105de3660046148e2565b61155e565b6103ec6105f13660046148e2565b5f9081526009602052604090206002015490565b61043f6106133660046148e2565b611634565b610435610626366004614bad565b6116d8565b61063e6106393660046149f5565b611740565b604080519283529015156020830152016103f6565b61045f6106613660046148e2565b611791565b6106796106743660046148e2565b61179b565b6040805194855260208501939093529183015260608201526080016103f6565b6106ac6106a7366004614bc6565b61186c565b60405161ffff90911681526020016103f6565b6103ec6106cd3660046148e2565b600f6020525f908152604090205481565b6103ec6106ec366004614bad565b611891565b6104126106ff3660046148e2565b6118d6565b6007546103ec565b6103ec5f805160206159a283398151915281565b61043f61072e3660046148e2565b611923565b6008546103ec565b6106ac6107d081565b61075761075236600461493c565b611942565b6040516103f69190614c26565b6103ec62093a8081565b61041261077c3660046149cb565b611ddc565b61043f611e06565b61041261079736600461493c565b611e15565b6103ec5f81565b6104356107b1366004614d92565b611ee9565b6106ac6103e881565b6107d26107cd36600461493c565b611ef4565b60408051931515845291151560208401521515908201526060016103f6565b6104356107ff366004614bad565b611f52565b6106ac6103de81565b61082061081b366004614dc0565b611fe1565b6040516103f69190614ddb565b61043561083b366004614e02565b612028565b61043561084e366004614bad565b612040565b610435610861366004614bad565b6120a8565b610435610874366004614bad565b612137565b610435610887366004614bad565b6121c6565b61041261089a366004614dc0565b61222e565b61043f6108ad3660046148e2565b61224f565b6108c56108c03660046148e2565b6122bc565b6040516103f693929190614ed6565b6103ec609681565b6108ef6108ea366004614bad565b612385565b6040516103f69190614f39565b61043561090a366004614f4b565b6123ed565b61043561091d3660046149cb565b6128ba565b61043561093036600461485b565b6128de565b6108ef6109433660046148e2565b6129f2565b6109776109563660046148e2565b5f908152600960205260409020600581015460068201546007909201549092565b604080519384526020840192909252908201526060016103f6565b6104126109a0366004614fe6565b613343565b6109b86109b336600461493c565b613370565b6040516103f6919061500e565b6109d86109d33660046148e2565b613540565b6040516103f691906150bd565b5f6109ef82613a94565b92915050565b5f805160206159a2833981519152610a0c81613ab8565b5f848152600960205260409020805460ff166004816005811115610a3257610a32614995565b1480610a4f57506005816005811115610a4d57610a4d614995565b145b15610a7557604051630aa7920560e31b8152600481018790526024015b60405180910390fd5b5f849003610a965760405163546d6d5960e01b815260040160405180910390fd5b815460ff1916600517825560098201610ab08587836152cf565b50336001600160a01b0316867fc554792a539c0d5fb25762225b65f807a7741dc70229828b2ea03bc3e1bdc2458787604051610aed9291906153ab565b60405180910390a3505050505050565b60605f8054610b0b90615245565b80601f0160208091040260200160405190810160405280929190818152602001828054610b3790615245565b8015610b825780601f10610b5957610100808354040283529160200191610b82565b820191905f5260205f20905b815481529060010190602001808311610b6557829003601f168201915b5050505050905090565b5f610b9682613ac5565b505f828152600460205260409020546001600160a01b03166109ef565b610bbe828233613afc565b5050565b5f828152600960209081526040808320848452600f01909152812080546060929190610bed90615245565b80601f0160208091040260200160405190810160405280929190818152602001828054610c1990615245565b8015610c645780601f10610c3b57610100808354040283529160200191610c64565b820191905f5260205f20905b815481529060010190602001808311610c4757829003601f168201915b505050505090505f815111610cbb5760405162461bcd60e51b815260206004820152601760248201527f4e6f207472616e73637269707420617661696c61626c650000000000000000006044820152606401610a6c565b80604051602001610ccc91906153be565b60405160208183030381529060405291505092915050565b6001600160a01b038216610d0d57604051633250574960e11b81525f6004820152602401610a6c565b5f610d19838333613b09565b9050836001600160a01b0316816001600160a01b031614610d67576040516364283d7b60e01b81526001600160a01b0380861660048301526024820184905282166044820152606401610a6c565b50505050565b5f82815260066020526040902060010154610d8781613ab8565b610d678383613b52565b6001600160a01b0381163314610dba5760405163334bd91960e11b815260040160405180910390fd5b610dc48282613be3565b505050565b5f600b8383604051610ddc9291906153e7565b9081526040519081900360200190205460ff16905092915050565b5f5f805160206159a2833981519152610e0f81613ab8565b5f859003610e3057604051631b10e56960e31b815260040160405180910390fd5b6096851115610e5c5760405163508fa55b60e11b81526004810186905260966024820152604401610a6c565b60088054905f610e6b8361540a565b909155505f81815260096020526040902080546001600160a81b0319163361010002178155426001820181905591935090610eaa9062093a8090615422565b600282015560088101610ebe8587836152cf565b50600b81018690555f5b8681101561133d5736888883818110610ee357610ee3615435565b9050602002810190610ef59190615449565b90505f610f056020830183614bad565b6001600160a01b031603610f2f5760405163de5adc5760e01b815260048101839052602401610a6c565b610f3c6020820182615468565b90505f03610f605760405163d8e4ebe960e01b815260048101839052602401610a6c565b610f6d6040820182615468565b90505f03610f915760405163d9838b0560e01b815260048101839052602401610a6c565b610f9e60a0820182615468565b90505f03610fc25760405163499d57c160e11b815260048101839052602401610a6c565b60c0810135610fe75760405163b03c971560e01b815260048101839052602401610a6c565b610ff5610160820182615468565b90505f0361101957604051638648509960e01b815260048101839052602401610a6c565b6107d061102e61016083016101408401614dc0565b61ffff161080611054575061083461104e61016083016101408401614dc0565b61ffff16115b156110745760405162d3858760e41b815260048101839052602401610a6c565b6107d06110896101a083016101808401614dc0565b61ffff1611156110cc57816110a66101a083016101808401614dc0565b604051631a316f5560e31b8152600481019290925261ffff166024820152604401610a6c565b6107d06110e16101c083016101a08401614dc0565b61ffff1611156110fe57816110a66101c083016101a08401614dc0565b5f828152600c8401602090815260409091209061111d90830183614bad565b81546001600160a01b0319166001600160a01b03919091161781556111456020830183615468565b60018301916111559190836152cf565b506111636040830183615468565b60028301916111739190836152cf565b506111816060830183615468565b60038301916111919190836152cf565b5061119f6080830183615468565b60048301916111af9190836152cf565b506111bd60a0830183615468565b60058301916111cd9190836152cf565b5060c0820135600682015560e082013560078201556111f4610120830161010084016154aa565b60088201805460ff1916600183600381111561121257611212614995565b0217905550611229610140830161012084016154c8565b60088201805461ff00191661010083600181111561124957611249614995565b021790555061126061016083016101408401614dc0565b60088201805461ffff92909216620100000263ffff00001990921691909117905561128f610160830183615468565b600983019161129f9190836152cf565b506112b26101a083016101808401614dc0565b600a8201805461ffff191661ffff929092169190911790556112dc6101c083016101a08401614dc0565b600a8201805461ffff92909216620100000263ffff00001990921691909117905561130f6101e083016101c08401614dc0565b600a909101805461ffff92909216600160201b0265ffff000000001990921691909117905550600101610ec8565b506002810154604051339185917f47a716cb413982e1d1051fa38eb2c3de9b57ae937e17125476d667a8f721d7719161137c918b918b918b91906154e6565b60405180910390a35050949350505050565b5f805160206159c28339815191526113a581613ab8565b5f82815260096020526040902060028101544211156113da57604051635c4307a160e11b815260048101849052602401610a6c565b6002815460ff1660058111156113f2576113f2614995565b1461141d578054604051632373f6fd60e01b8152610a6c91859160ff90911690600290600401615510565b805460ff191660031781554260068201819055604051908152339084907f9b96e7cab3372e0696cb1cc0225c297c6ac2eb98d39fc2509159d6da3b2a112f906020015b60405180910390a3505050565b610dc483838360405180602001604052805f815250612028565b5f806114928b613c4e565b6001600160a01b0316036114bc57604051630f93f59160e31b8152600481018b9052602401610a6c565b5f8989898989896040516020016114d896959493929190615531565b60405160208183030381529060405280519060200120905061154f8484808060200260200160405190810160405280939291908181526020018383602002808284375f81840152601f19601f82011690508083019250505050505050600a5f8e81526020019081526020015f206006015483613c68565b9b9a5050505050505050505050565b5f8051602061596283398151915261157581613ab8565b5f82815260096020526040902060028101544211156115aa57604051635c4307a160e11b815260048101849052602401610a6c565b6001815460ff1660058111156115c2576115c2614995565b146115ed578054604051632373f6fd60e01b8152610a6c91859160ff90911690600190600401615510565b805460ff191660021781554260058201819055604051908152339084907f01dbe9111fada9353a4888fcd49a2b94b1e8b9f93bd2e48fc74d1eb7cdbab8d790602001611460565b606060095f8381526020019081526020015f20600901805461165590615245565b80601f016020809104026020016040519081016040528092919081815260200182805461168190615245565b80156116cc5780601f106116a3576101008083540402835291602001916116cc565b820191905f5260205f20905b8154815290600101906020018083116116af57829003601f168201915b50505050509050919050565b5f805160206159a28339815191526116ef81613ab8565b6117065f8051602061598283398151915283613be3565b5060405133906001600160a01b038416907fcf19d72b9b7afcce4691eff0a9b8ae2b0f9eb4a8e24bd664ae9bab16911a9758905f90a35050565b5f80600b84846040516117549291906153e7565b9081526040519081900360200181205460ff169150600c9061177990869086906153e7565b90815260200160405180910390205491509250929050565b5f6109ef82613ac5565b5f818152600960205260408120600b015490808083815b81811015611863575f878152600e60209081526040808320848452909152902054600160481b900460ff1660018160038111156117f1576117f1614995565b0361180857856118008161540a565b96505061185a565b600281600381111561181c5761181c614995565b03611833578461182b8161540a565b95505061185a565b600381600381111561184757611847614995565b0361185a57836118568161540a565b9450505b506001016117b2565b50509193509193565b5f600261188061ffff808516908616615422565b61188a919061556f565b9392505050565b5f6001600160a01b0382166118bb576040516322718ad960e21b81525f6004820152602401610a6c565b506001600160a01b03165f9081526003602052604090205490565b5f806118e183613c4e565b6001600160a01b03160361190b57604051630f93f59160e31b815260048101839052602401610a6c565b505f908152600a60205260409020600b015460ff1690565b5f81815260096020526040902060080180546060919061165590615245565b61194a6146bc565b5f838152600960205260409020600b0154821061197a57604051635801cc1760e11b815260040160405180910390fd5b5f838152600960209081526040808320858452600c0182529182902082516101e0810190935280546001600160a01b0316835260018101805491928401916119c190615245565b80601f01602080910402602001604051908101604052809291908181526020018280546119ed90615245565b8015611a385780601f10611a0f57610100808354040283529160200191611a38565b820191905f5260205f20905b815481529060010190602001808311611a1b57829003601f168201915b50505050508152602001600282018054611a5190615245565b80601f0160208091040260200160405190810160405280929190818152602001828054611a7d90615245565b8015611ac85780601f10611a9f57610100808354040283529160200191611ac8565b820191905f5260205f20905b815481529060010190602001808311611aab57829003601f168201915b50505050508152602001600382018054611ae190615245565b80601f0160208091040260200160405190810160405280929190818152602001828054611b0d90615245565b8015611b585780601f10611b2f57610100808354040283529160200191611b58565b820191905f5260205f20905b815481529060010190602001808311611b3b57829003601f168201915b50505050508152602001600482018054611b7190615245565b80601f0160208091040260200160405190810160405280929190818152602001828054611b9d90615245565b8015611be85780601f10611bbf57610100808354040283529160200191611be8565b820191905f5260205f20905b815481529060010190602001808311611bcb57829003601f168201915b50505050508152602001600582018054611c0190615245565b80601f0160208091040260200160405190810160405280929190818152602001828054611c2d90615245565b8015611c785780601f10611c4f57610100808354040283529160200191611c78565b820191905f5260205f20905b815481529060010190602001808311611c5b57829003601f168201915b50505091835250506006820154602082015260078201546040820152600882015460609091019060ff166003811115611cb357611cb3614995565b6003811115611cc457611cc4614995565b81526020016008820160019054906101000a900460ff166001811115611cec57611cec614995565b6001811115611cfd57611cfd614995565b8152600882015462010000900461ffff166020820152600982018054604090920191611d2890615245565b80601f0160208091040260200160405190810160405280929190818152602001828054611d5490615245565b8015611d9f5780601f10611d7657610100808354040283529160200191611d9f565b820191905f5260205f20905b815481529060010190602001808311611d8257829003601f168201915b5050509183525050600a919091015461ffff808216602084015262010000820481166040840152600160201b909104166060909101529392505050565b5f9182526006602090815260408084206001600160a01b0393909316845291905290205460ff1690565b606060018054610b0b90615245565b5f80611e2084613c4e565b6001600160a01b031603611e4a57604051630f93f59160e31b815260048101849052602401610a6c565b5f838152600a60205260409020600b81015460ff168015611e6e5750828160050154145b91506001600f5f8681526020019081526020015f205f828254611e919190615422565b90915550505f848152600f6020908152604091829020548251851515815291820152339186917fa5ff363161033469580a9b7dbc23e5eda77432603f937cea792538dc9743e90f910160405180910390a35092915050565b610bbe338383613c7d565b5f808080611f0186613c4e565b6001600160a01b03161415915081611f2057505f915081905080611f4b565b505f848152600a60205260409020600b81015460ff1690818015611f475750848160050154145b9350505b9250925092565b5f805160206159a2833981519152611f6981613ab8565b6001600160a01b038216611f905760405163af0849dd60e01b815260040160405180910390fd5b611fa75f8051602061596283398151915283613b52565b5060405133906001600160a01b038416907fb78dff24c0721073f1e5983e2189caa160371ecc267f469c29e3935d709d6ea6905f90a35050565b5f6106408261ffff1610611ff757506003919050565b6105788261ffff161061200c57506002919050565b6104b08261ffff161061202157506001919050565b505f919050565b612033848484610ce4565b610d673385858585613d3c565b5f805160206159a283398151915261205781613ab8565b61206e5f8051602061596283398151915283613be3565b5060405133906001600160a01b038416907f3c289711dbaab920a7ae5e9930ac536bb206164e21979175555ab393d99a3b86905f90a35050565b5f805160206159a28339815191526120bf81613ab8565b6001600160a01b0382166120e65760405163af0849dd60e01b815260040160405180910390fd5b6120fd5f805160206159c283398151915283613b52565b5060405133906001600160a01b038416907f88637b409fc4fc38b0ba1ffccfdc593c419dfccbc63b98fee10dab290e8fae81905f90a35050565b5f805160206159a283398151915261214e81613ab8565b6001600160a01b0382166121755760405163af0849dd60e01b815260040160405180910390fd5b61218c5f8051602061598283398151915283613b52565b5060405133906001600160a01b038416907f3f4ac2fc79651e052af2351c6ef69225c6fdb144beccded23046940567bcf932905f90a35050565b5f805160206159a28339815191526121dd81613ab8565b6121f45f805160206159c283398151915283613be3565b5060405133906001600160a01b038416907fafadaca2ad86cdcfcb4e2407c4fd7803a77105a12ad81ad5378a6336e0cbb963905f90a35050565b5f6103de61ffff8316108015906109ef57506103e861ffff83161092915050565b60605f61225b83613c4e565b6001600160a01b03160361228557604051630f93f59160e31b815260048101839052602401610a6c565b5f828152600a602090815260409182902091516122a69260040191016155fd565b6040516020818303038152906040529050919050565b5f81815260096020526040812060038101546004820154600a830180548594606094909390926001600160a01b039091169181906122f990615245565b80601f016020809104026020016040519081016040528092919081815260200182805461232590615245565b80156123705780601f1061234757610100808354040283529160200191612370565b820191905f5260205f20905b81548152906001019060200180831161235357829003601f168201915b50505050509050935093509350509193909250565b6001600160a01b0381165f908152600d60209081526040918290208054835181840281018401909452808452606093928301828280156116cc57602002820191905f5260205f20905b8154815260200190600101908083116123ce5750505050509050919050565b5f8051602061598283398151915261240481613ab8565b5f888152600960205260409020600281015442111561243957604051635c4307a160e11b8152600481018a9052602401610a6c565b5f815460ff16600581111561245057612450614995565b1461247a578054604051632373f6fd60e01b8152610a6c918b9160ff909116905f90600401615510565b600b81015485146124e45760405162461bcd60e51b815260206004820152602e60248201527f7472616e73637269707443494473206c656e677468206d757374206d6174636860448201526d081cdd1d59195b9d0818dbdd5b9d60921b6064820152608401610a6c565b5f5b8781101561277c573689898381811061250157612501615435565b90506020028101906125139190615618565b600b84015490915081351061253e57604051630b3e71c960e31b815281356004820152602401610a6c565b61254b6040820182615468565b90505f0361256f57604051639e65b02760e01b815281356004820152602401610a6c565b6107d06125826040830160208401614dc0565b61ffff1611156125c457803561259e6040830160208401614dc0565b604051632ca1118560e01b8152600481019290925261ffff166024820152604401610a6c565b80355f908152600c840160205260409020600a0154600160201b900461ffff166103e8811015806125fa57506103de61ffff8216105b156126255760405163f4a8215560e01b81528235600482015261ffff82166024820152604401610a6c565b61ffff811661263a6040840160208501614dc0565b61ffff1611612684578135816126566040850160208601614dc0565b6040516379e1902560e11b8152600481019390935261ffff9182166024840152166044820152606401610a6c565b6103e86126976040840160208501614dc0565b61ffff1610156126d95781356126b36040840160208501614dc0565b604051636ee91b3760e11b8152600481019290925261ffff166024820152604401610a6c565b81355f908152600d85016020526040902082906126f6828261562c565b505081355f818152600e86016020908152604091829020805460ff191660011790558e917f48e4363a40cf6c877895731d3901244b704aaa7f948b013099ad9c69ee2fee1e91859161274d91908801908801614dc0565b61275a6040880188615468565b60405161276a949392919061573c565b60405180910390a350506001016124e6565b505f5b81600b01548110156128355786868281811061279d5761279d615435565b90506020028101906127af9190615468565b5f838152600f850160205260409020916127ca9190836152cf565b5061282d8a828989858181106127e2576127e2615435565b90506020028101906127f49190615468565b8080601f0160208091040260200160405190810160405280939291908181526020018383808284375f92019190915250613e6492505050565b60010161277f565b50805460ff19166001178155426003820155600481018054336001600160a01b0319909116179055600a810161286c8486836152cf565b5060405133908a907f19aef71b973a7ccd7f689ae7a6ce4cd354bfbd1b05d1cf436bcbe535cd5caf17906128a79042908c908a908a90615763565b60405180910390a3505050505050505050565b5f828152600660205260409020600101546128d481613ab8565b610d678383613be3565b5f805160206159a28339815191526128f581613ab8565b5f6128ff85613c4e565b6001600160a01b03160361292957604051630f93f59160e31b815260048101859052602401610a6c565b5f848152600a60205260409020600b015460ff1661295d5760405163178a635d60e31b815260048101859052602401610a6c565b5f82900361297e57604051636ab405cb60e11b815260040160405180910390fd5b5f848152600a60205260409020600b8101805460ff19169055600c016129a58385836152cf565b50336001600160a01b0316847f2e0fcfa3787174875549a3b636786e687846a6694381dd255df177006a1f71878585426040516129e493929190615782565b60405180910390a350505050565b60605f805160206159a2833981519152612a0b81613ab8565b612a136140c7565b5f8381526009602052604090206002810154421115612a4857604051635c4307a160e11b815260048101859052602401610a6c565b6003815460ff166005811115612a6057612a60614995565b14612a8b578054604051632373f6fd60e01b8152610a6c91869160ff90911690600390600401615510565b600b8101545f816001600160401b03811115612aa957612aa9614dee565b604051908082528060200260200182016040528015612ad2578160200160208202803683370190505b5090505f805b83811015613232575f888152600e6020908152604080832084845290915290208054600160581b900460ff1615613229575f828152600c87016020526040908190209051600b90612b2d9060028401906157a5565b9081526040519081900360200190205460ff1615612b635780600201604051637024c4ad60e11b8152600401610a6c91906157b0565b600780545f9182612b738361540a565b909155508254909150612b8f906001600160a01b0316826140f5565b604051806102200160405280836001018054612baa90615245565b80601f0160208091040260200160405190810160405280929190818152602001828054612bd690615245565b8015612c215780601f10612bf857610100808354040283529160200191612c21565b820191905f5260205f20905b815481529060010190602001808311612c0457829003601f168201915b50505050508152602001836002018054612c3a90615245565b80601f0160208091040260200160405190810160405280929190818152602001828054612c6690615245565b8015612cb15780601f10612c8857610100808354040283529160200191612cb1565b820191905f5260205f20905b815481529060010190602001808311612c9457829003601f168201915b50505050508152602001836003018054612cca90615245565b80601f0160208091040260200160405190810160405280929190818152602001828054612cf690615245565b8015612d415780601f10612d1857610100808354040283529160200191612d41565b820191905f5260205f20905b815481529060010190602001808311612d2457829003601f168201915b50505050508152602001836004018054612d5a90615245565b80601f0160208091040260200160405190810160405280929190818152602001828054612d8690615245565b8015612dd15780601f10612da857610100808354040283529160200191612dd1565b820191905f5260205f20905b815481529060010190602001808311612db457829003601f168201915b50505050508152602001836005018054612dea90615245565b80601f0160208091040260200160405190810160405280929190818152602001828054612e1690615245565b8015612e615780601f10612e3857610100808354040283529160200191612e61565b820191905f5260205f20905b815481529060010190602001808311612e4457829003601f168201915b50505091835250506006840154602082015260078401546040820152600884015460609091019060ff166003811115612e9c57612e9c614995565b81526020018360080160019054906101000a900460ff166001811115612ec457612ec4614995565b81528454602090910190600160401b900460ff166003811115612ee957612ee9614995565b8152845461ffff600160301b909104811660208301526008850154620100009004166040820152600984018054606090920191612f2590615245565b80601f0160208091040260200160405190810160405280929190818152602001828054612f5190615245565b8015612f9c5780601f10612f7357610100808354040283529160200191612f9c565b820191905f5260205f20905b815481529060010190602001808311612f7f57829003601f168201915b505050918352505060208082018e90524260408084019190915260016060840152805180830182525f808252608090940152848352600a909152902081518190612fe6908261583a565b5060208201516001820190612ffb908261583a565b5060408201516002820190613010908261583a565b5060608201516003820190613025908261583a565b506080820151600482019061303a908261583a565b5060a0820151600582015560c0820151600682015560e082015160078201805460ff1916600183600381111561307257613072614995565b0217905550610100828101516007830180549192909161ff001916908360018111156130a0576130a0614995565b021790555061012082015160078201805462ff00001916620100008360038111156130cd576130cd614995565b021790555061014082015160078201805461016085015161ffff908116650100000000000266ffff000000000019919094166301000000021666ffffffff0000001990911617919091179055610180820151600882019061312e908261583a565b506101a082015160098201556101c0820151600a8201556101e0820151600b8201805460ff1916911515919091179055610200820151600c820190613173908261583a565b509050506001600b8360020160405161318c91906157a5565b908152604051908190036020018120805492151560ff19909316929092179091558190600c906131c09060028601906157a5565b90815260408051602092819003830190209290925583546001600160a01b03165f908152600d825291822080546001810182559083529120018190558086866132088161540a565b97508151811061321a5761321a615435565b60200260200101818152505050505b50600101612ad8565b50806001600160401b0381111561324b5761324b614dee565b604051908082528060200260200182016040528015613274578160200160208202803683370190505b5095505f5b818110156132c05782818151811061329357613293615435565b60200260200101518782815181106132ad576132ad615435565b6020908102919091010152600101613279565b50835460ff1916600417845542600785015560405187907f4ed5c9274d188c58e9e331f03d9b267b4a6a7460e12cf04d2c2609df12b0010390613308908990879086906158f0565b60405180910390a25050505061333d60017f9b779b17422d0df92223018b32b4d1fa46e071723d6817e2486d003becc55f0055565b50919050565b6001600160a01b039182165f90815260056020908152604080832093909416825291909152205460ff1690565b6133ba60408051610120810182525f808252602082018190529181018290526060810182905290608082019081526020015f81525f60208201819052604082015260609081015290565b5f838152600e60209081526040808320858452825291829020825161012081018452815461ffff8082168352620100008204811694830194909452600160201b8104841694820194909452600160301b8404909216606083015290916080830190600160401b900460ff16600381111561343657613436614995565b600381111561344757613447614995565b81528154602090910190600160481b900460ff16600381111561346c5761346c614995565b600381111561347d5761347d614995565b8152815460ff600160501b8204811615156020840152600160581b90910416151560408201526001820180546060909201916134b890615245565b80601f01602080910402602001604051908101604052809291908181526020018280546134e490615245565b801561352f5780601f106135065761010080835404028352916020019161352f565b820191905f5260205f20905b81548152906001019060200180831161351257829003601f168201915b505050505081525050905092915050565b61354861474c565b5f61355283613c4e565b6001600160a01b03160361357c57604051630f93f59160e31b815260048101839052602401610a6c565b5f828152600a602052604090819020815161022081019092528054829082906135a490615245565b80601f01602080910402602001604051908101604052809291908181526020018280546135d090615245565b801561361b5780601f106135f25761010080835404028352916020019161361b565b820191905f5260205f20905b8154815290600101906020018083116135fe57829003601f168201915b5050505050815260200160018201805461363490615245565b80601f016020809104026020016040519081016040528092919081815260200182805461366090615245565b80156136ab5780601f10613682576101008083540402835291602001916136ab565b820191905f5260205f20905b81548152906001019060200180831161368e57829003601f168201915b505050505081526020016002820180546136c490615245565b80601f01602080910402602001604051908101604052809291908181526020018280546136f090615245565b801561373b5780601f106137125761010080835404028352916020019161373b565b820191905f5260205f20905b81548152906001019060200180831161371e57829003601f168201915b5050505050815260200160038201805461375490615245565b80601f016020809104026020016040519081016040528092919081815260200182805461378090615245565b80156137cb5780601f106137a2576101008083540402835291602001916137cb565b820191905f5260205f20905b8154815290600101906020018083116137ae57829003601f168201915b505050505081526020016004820180546137e490615245565b80601f016020809104026020016040519081016040528092919081815260200182805461381090615245565b801561385b5780601f106138325761010080835404028352916020019161385b565b820191905f5260205f20905b81548152906001019060200180831161383e57829003601f168201915b50505091835250506005820154602082015260068201546040820152600782015460609091019060ff16600381111561389657613896614995565b60038111156138a7576138a7614995565b81526020016007820160019054906101000a900460ff1660018111156138cf576138cf614995565b60018111156138e0576138e0614995565b81526020016007820160029054906101000a900460ff16600381111561390857613908614995565b600381111561391957613919614995565b8152600782015461ffff63010000008204811660208401526501000000000090910416604082015260088201805460609092019161395690615245565b80601f016020809104026020016040519081016040528092919081815260200182805461398290615245565b80156139cd5780601f106139a4576101008083540402835291602001916139cd565b820191905f5260205f20905b8154815290600101906020018083116139b057829003601f168201915b505050918352505060098201546020820152600a8201546040820152600b82015460ff1615156060820152600c82018054608090920191613a0d90615245565b80601f0160208091040260200160405190810160405280929190818152602001828054613a3990615245565b8015613a845780601f10613a5b57610100808354040283529160200191613a84565b820191905f5260205f20905b815481529060010190602001808311613a6757829003601f168201915b5050505050815250509050919050565b5f6001600160e01b03198216637965db0b60e01b14806109ef57506109ef8261410e565b613ac2813361415d565b50565b5f80613ad083613c4e565b90506001600160a01b0381166109ef57604051637e27328960e01b815260048101849052602401610a6c565b610dc48383836001614196565b5f80613b1484613c4e565b90506001600160a01b03811615613b3e57604051631e72c12960e31b815260040160405180910390fd5b613b4985858561429a565b95945050505050565b5f613b5d8383611ddc565b613bdc575f8381526006602090815260408083206001600160a01b03861684529091529020805460ff19166001179055613b943390565b6001600160a01b0316826001600160a01b0316847f2f8788117e7eff1d82e926ec794901d17c78024a50270940304540a733656f0d60405160405180910390a45060016109ef565b505f6109ef565b5f613bee8383611ddc565b15613bdc575f8381526006602090815260408083206001600160a01b0386168085529252808320805460ff1916905551339286917ff6391f5c32d9c69d2a47ea670b442974b53935d1edc7fd64eb21e047a839171b9190a45060016109ef565b5f908152600260205260409020546001600160a01b031690565b5f82613c748584614387565b14949350505050565b6001600160a01b038316613ca65760405163a9fbf51f60e01b81525f6004820152602401610a6c565b6001600160a01b038216613cd857604051630b61174360e31b81526001600160a01b0383166004820152602401610a6c565b6001600160a01b038381165f81815260056020908152604080832094871680845294825291829020805460ff191686151590811790915591519182527f17307eab39ab6107e8899845ad3d59bd9653f200f220920489ca2b5937696c319101611460565b6001600160a01b0383163b15613e5d57604051630a85bd0160e11b81526001600160a01b0384169063150b7a0290613d7e908890889087908790600401615914565b6020604051808303815f875af1925050508015613db8575060408051601f3d908101601f19168201909252613db591810190615946565b60015b613e1f573d808015613de5576040519150601f19603f3d011682016040523d82523d5f602084013e613dea565b606091505b5080515f03613e1757604051633250574960e11b81526001600160a01b0385166004820152602401610a6c565b805160208201fd5b6001600160e01b03198116630a85bd0160e11b14613e5b57604051633250574960e11b81526001600160a01b0385166004820152602401610a6c565b505b5050505050565b5f838152600960209081526040808320858452600c81018352818420600e820190935290832054909260ff9091169081613e9e575f613eb6565b5f868152600d8501602052604090206001015461ffff165b600a84015460088501549192505f91829182918291613efb9161ffff600160201b830481169281811692620100009091049091169060ff610100909104168a8a6143c9565b6040805161012081018252600a8d015461ffff808216835262010000820481166020840152600160201b90910481169282019290925290851660608201529397509195509350915060808101826003811115613f5957613f59614995565b8152602001846003811115613f7057613f70614995565b815287151560208083019190915284151560408084019190915260609283018d90525f8f8152600e83528181208f825283528190208451815493860151928601519486015161ffff908116600160301b0267ffff00000000000019968216600160201b029690961667ffffffff0000000019948216620100000263ffffffff19909616919092161793909317919091169190911791909117808255608083015190829068ff00000000000000001916600160401b83600381111561403657614036614995565b021790555060a08201518154829069ff0000000000000000001916600160481b83600381111561406857614068614995565b021790555060c0820151815460e08401511515600160581b0260ff60581b19921515600160501b029290921661ffff60501b199091161717815561010082015160018201906140b7908261583a565b5050505050505050505050505050565b6140cf61450c565b60027f9b779b17422d0df92223018b32b4d1fa46e071723d6817e2486d003becc55f0055565b610bbe828260405180602001604052805f815250614550565b5f6001600160e01b031982166380ac58cd60e01b148061413e57506001600160e01b03198216635b5e139f60e01b145b806109ef57506301ffc9a760e01b6001600160e01b03198316146109ef565b6141678282611ddc565b610bbe5760405163e2517d3f60e01b81526001600160a01b038216600482015260248101839052604401610a6c565b80806141aa57506001600160a01b03821615155b1561426b575f6141b984613ac5565b90506001600160a01b038316158015906141e55750826001600160a01b0316816001600160a01b031614155b80156141f857506141f68184613343565b155b156142215760405163a9fbf51f60e01b81526001600160a01b0384166004820152602401610a6c565b81156142695783856001600160a01b0316826001600160a01b03167f8c5be1e5ebec7d5bd14f71427d1e84f3dd0314c0f7b2291e5b200ac8c7c3b92560405160405180910390a45b505b50505f90815260046020526040902080546001600160a01b0319166001600160a01b0392909216919091179055565b5f806142a584613c4e565b90506001600160a01b038316156142c1576142c1818486614567565b6001600160a01b038116156142fb576142dc5f855f80614196565b6001600160a01b0381165f90815260036020526040902080545f190190555b6001600160a01b03851615614329576001600160a01b0385165f908152600360205260409020805460010190555b5f8481526002602052604080822080546001600160a01b0319166001600160a01b0389811691821790925591518793918516917fddf252ad1be2c89b69c2b068fc378daa952ba7f163c4a11628f55a4df523b3ef91a4949350505050565b5f81815b84518110156143c1576143b7828683815181106143aa576143aa615435565b60200260200101516145cb565b915060010161438b565b509392505050565b5f805f80856143d857896143da565b845b93505f8760018111156143ef576143ef614995565b03614440576103e861ffff85161061440e5760019250600191506144e9565b6103de61ffff851610614434578561442757600361442a565b60025b92508591506144e9565b600392505f91506144e9565b5f6103e861ffff8b16101580614464575086801561446457506103de61ffff8b1610155b90505f6103e861ffff8b1610158061448a575087801561448a57506103de61ffff8b1610155b90508180156144965750805b156144de57876144a75760016144aa565b60025b94506001935060026144c361ffff808d16908e16615422565b6144cd919061556f565b955087156144d9578695505b6144e6565b600394505f93505b50505b816144f4575f6144fd565b6144fd84611fe1565b90509650965096509692505050565b7f9b779b17422d0df92223018b32b4d1fa46e071723d6817e2486d003becc55f005460020361454e57604051633ee5aeb560e01b815260040160405180910390fd5b565b61455a83836145f7565b610dc4335f858585613d3c565b614572838383614658565b610dc4576001600160a01b0383166145a057604051637e27328960e01b815260048101829052602401610a6c565b60405163177e802f60e01b81526001600160a01b038316600482015260248101829052604401610a6c565b5f8183106145e5575f82815260208490526040902061188a565b5f83815260208390526040902061188a565b6001600160a01b03821661462057604051633250574960e11b81525f6004820152602401610a6c565b5f61462c83835f613b09565b90506001600160a01b03811615610dc4576040516339e3563760e11b81525f6004820152602401610a6c565b5f6001600160a01b038316158015906146b45750826001600160a01b0316846001600160a01b0316148061469157506146918484613343565b806146b457505f828152600460205260409020546001600160a01b038481169116145b949350505050565b604051806101e001604052805f6001600160a01b0316815260200160608152602001606081526020016060815260200160608152602001606081526020015f80191681526020015f80191681526020015f600381111561471e5761471e614995565b81526020015f81525f6020820181905260606040830181905282018190526080820181905260a09091015290565b60405180610220016040528060608152602001606081526020016060815260200160608152602001606081526020015f80191681526020015f80191681526020015f600381111561479f5761479f614995565b81526020015f81526020015f81526020015f61ffff1681526020015f61ffff168152602001606081526020015f81526020015f81526020015f15158152602001606081525090565b6001600160e01b031981168114613ac2575f80fd5b5f6020828403121561480c575f80fd5b813561188a816147e7565b5f8083601f840112614827575f80fd5b5081356001600160401b0381111561483d575f80fd5b602083019150836020828501011115614854575f80fd5b9250929050565b5f805f6040848603121561486d575f80fd5b8335925060208401356001600160401b03811115614889575f80fd5b61489586828701614817565b9497909650939450505050565b5f81518084528060208401602086015e5f602082860101526020601f19601f83011685010191505092915050565b602081525f61188a60208301846148a2565b5f602082840312156148f2575f80fd5b5035919050565b80356001600160a01b038116811461490f575f80fd5b919050565b5f8060408385031215614925575f80fd5b61492e836148f9565b946020939093013593505050565b5f806040838503121561494d575f80fd5b50508035926020909101359150565b5f805f6060848603121561496e575f80fd5b614977846148f9565b9250614985602085016148f9565b9150604084013590509250925092565b634e487b7160e01b5f52602160045260245ffd5b600681106149b9576149b9614995565b9052565b602081016109ef82846149a9565b5f80604083850312156149dc575f80fd5b823591506149ec602084016148f9565b90509250929050565b5f8060208385031215614a06575f80fd5b82356001600160401b03811115614a1b575f80fd5b614a2785828601614817565b90969095509350505050565b5f8083601f840112614a43575f80fd5b5081356001600160401b03811115614a59575f80fd5b6020830191508360208260051b8501011115614854575f80fd5b5f805f8060408587031215614a86575f80fd5b84356001600160401b0380821115614a9c575f80fd5b614aa888838901614a33565b90965094506020870135915080821115614ac0575f80fd5b50614acd87828801614817565b95989497509550505050565b61ffff81168114613ac2575f80fd5b5f805f805f805f805f60c08a8c031215614b00575f80fd5b8935985060208a01356001600160401b0380821115614b1d575f80fd5b614b298d838e01614817565b909a50985060408c0135915080821115614b41575f80fd5b614b4d8d838e01614817565b909850965060608c01359150614b6282614ad9565b90945060808b013590614b7482614ad9565b90935060a08b01359080821115614b89575f80fd5b50614b968c828d01614a33565b915080935050809150509295985092959850929598565b5f60208284031215614bbd575f80fd5b61188a826148f9565b5f8060408385031215614bd7575f80fd5b8235614be281614ad9565b91506020830135614bf281614ad9565b809150509250929050565b60048110613ac257613ac2614995565b6149b981614bfd565b600281106149b9576149b9614995565b60208152614c406020820183516001600160a01b03169052565b5f60208301516101e0806040850152614c5d6102008501836148a2565b91506040850151601f1980868503016060870152614c7b84836148a2565b93506060870151915080868503016080870152614c9884836148a2565b935060808701519150808685030160a0870152614cb584836148a2565b935060a08701519150808685030160c0870152614cd284836148a2565b935060c087015160e087015260e08701519150610100828188015280880151925050610120614d0381880184614c0d565b8701519150610140614d1787820184614c16565b8701519150610160614d2e8782018461ffff169052565b80880151925050610180818786030181880152614d4b85846148a2565b945080880151925050506101a0614d678187018361ffff169052565b86015190506101c0614d7e8682018361ffff169052565b9095015161ffff1693019290925250919050565b5f8060408385031215614da3575f80fd5b614dac836148f9565b915060208301358015158114614bf2575f80fd5b5f60208284031215614dd0575f80fd5b813561188a81614ad9565b60208101614de883614bfd565b91905290565b634e487b7160e01b5f52604160045260245ffd5b5f805f8060808587031215614e15575f80fd5b614e1e856148f9565b9350614e2c602086016148f9565b92506040850135915060608501356001600160401b0380821115614e4e575f80fd5b818701915087601f830112614e61575f80fd5b813581811115614e7357614e73614dee565b604051601f8201601f19908116603f01168101908382118183101715614e9b57614e9b614dee565b816040528281528a6020848701011115614eb3575f80fd5b826020860160208301375f60208483010152809550505050505092959194509250565b8381526001600160a01b03831660208201526060604082018190525f90613b49908301846148a2565b5f815180845260208085019450602084015f5b83811015614f2e57815187529582019590820190600101614f12565b509495945050505050565b602081525f61188a6020830184614eff565b5f805f805f805f6080888a031215614f61575f80fd5b8735965060208801356001600160401b0380821115614f7e575f80fd5b614f8a8b838c01614a33565b909850965060408a0135915080821115614fa2575f80fd5b614fae8b838c01614a33565b909650945060608a0135915080821115614fc6575f80fd5b50614fd38a828b01614817565b989b979a50959850939692959293505050565b5f8060408385031215614ff7575f80fd5b615000836148f9565b91506149ec602084016148f9565b6020815261502360208201835161ffff169052565b5f6020830151615039604084018261ffff169052565b50604083015161ffff8116606084015250606083015161ffff8116608084015250608083015161506c60a0840182614c0d565b5060a083015161507f60c0840182614c0d565b5060c083015180151560e08401525060e08301516101006150a38185018315159052565b8401516101208481015290506146b46101408401826148a2565b602081525f82516102208060208501526150db6102408501836148a2565b91506020850151601f19808685030160408701526150f984836148a2565b9350604087015191508086850301606087015261511684836148a2565b9350606087015191508086850301608087015261513384836148a2565b935060808701519150808685030160a087015261515084836148a2565b935060a087015160c087015260c087015160e087015260e0870151915061010061517c81880184614c0d565b870151915061012061519087820184614c16565b87015191506101406151a487820184614c0d565b87015191506101606151bb8782018461ffff169052565b87015191506101806151d28782018461ffff169052565b808801519250506101a08187860301818801526151ef85846148a2565b908801516101c0888101919091528801516101e08089019190915288015190945091506102006152228188018415159052565b87015186850390910183870152905061523b83826148a2565b9695505050505050565b600181811c9082168061525957607f821691505b60208210810361333d57634e487b7160e01b5f52602260045260245ffd5b601f821115610dc457805f5260205f20601f840160051c8101602085101561529c5750805b601f840160051c820191505b81811015613e5d575f81556001016152a8565b5f19600383901b1c191660019190911b1790565b6001600160401b038311156152e6576152e6614dee565b6152fa836152f48354615245565b83615277565b5f601f841160018114615326575f85156153145750838201355b61531e86826152bb565b845550613e5d565b5f83815260208120601f198716915b828110156153555786850135825560209485019460019092019101615335565b5086821015615371575f1960f88860031b161c19848701351681555b505060018560011b0183555050505050565b81835281816020850137505f828201602090810191909152601f909101601f19169091010190565b602081525f6146b4602083018486615383565b66697066733a2f2f60c81b81525f82518060208501600785015e5f920160070191825250919050565b818382375f9101908152919050565b634e487b7160e01b5f52601160045260245ffd5b5f6001820161541b5761541b6153f6565b5060010190565b808201808211156109ef576109ef6153f6565b634e487b7160e01b5f52603260045260245ffd5b5f82356101de1983360301811261545e575f80fd5b9190910192915050565b5f808335601e1984360301811261547d575f80fd5b8301803591506001600160401b03821115615496575f80fd5b602001915036819003821315614854575f80fd5b5f602082840312156154ba575f80fd5b81356004811061188a575f80fd5b5f602082840312156154d8575f80fd5b81356002811061188a575f80fd5b848152606060208201525f6154ff606083018587615383565b905082604083015295945050505050565b8381526060810161552460208301856149a9565b6146b460408301846149a9565b858782375f8682015f8152858782376001600160f01b031960f095861b8116969091019586529290931b909116600284015250506004019392505050565b5f8261558957634e487b7160e01b5f52601260045260245ffd5b500490565b5f815461559a81615245565b600182811680156155b257600181146155c7576155f3565b60ff19841687528215158302870194506155f3565b855f526020805f205f5b858110156155ea5781548a8201529084019082016155d1565b50505082870194505b5050505092915050565b66697066733a2f2f60c81b81525f61188a600783018461558e565b5f8235605e1983360301811261545e575f80fd5b81358155600180820160208085013561564481614ad9565b61ffff811661ffff19845416178355506002840191506040850135601e19863603018112615670575f80fd5b850180356001600160401b03811115615687575f80fd5b8036038383011315615697575f80fd5b6156ab816156a58654615245565b86615277565b5f601f8211600181146156d9575f83156156c757508382018501355b6156d184826152bb565b875550615731565b5f86815260208120601f198516915b82811015615707578685018801358255938701939089019087016156e8565b5084821015615725575f1960f88660031b161c198785880101351681555b505060018360011b0186555b505050505050505050565b5f61ffff80871683528086166020840152506060604083015261523b606083018486615383565b848152836020820152606060408201525f61523b606083018486615383565b604081525f615795604083018587615383565b9050826020830152949350505050565b5f61188a828461558e565b5f60208083525f84546157c281615245565b806020870152604060018084165f81146157e357600181146157ff5761582c565b60ff19851660408a0152604084151560051b8a0101955061582c565b895f5260205f205f5b858110156158235781548b8201860152908301908801615808565b8a016040019650505b509398975050505050505050565b81516001600160401b0381111561585357615853614dee565b615867816158618454615245565b84615277565b602080601f831160018114615895575f84156158835750858301515b61588d85826152bb565b865550613e5b565b5f85815260208120601f198616915b828110156158c3578886015182559484019460019091019084016158a4565b50858210156158e057878501515f19600388901b60f8161c191681555b5050505050600190811b01905550565b606081525f6159026060830186614eff565b60208301949094525060400152919050565b6001600160a01b03858116825284166020820152604081018390526080606082018190525f9061523b908301846148a2565b5f60208284031215615956575f80fd5b815161188a816147e756feba7924dbc18a088ff62f660bed95aba930bcbad059dcde0da6fc643115d44ba3f25036a6852152e96c39cc9bf999cf0e78b9ebf96c37327327f9c87088a5dfa7a49807205ce4d355092ef5a8a18f56e8913cf4a201fbe287825b095693c217755f1d1e303f9c0a1801dd708bdc4239781d66c88ca6cb941c5769ba09b5c1b285a2646970667358221220f3b2c4f5853963c7ac4e688dc30f0f4196d4587c3d7bc6efb60acc5b149eaade64736f6c63430008190033",
  "linkReferences": {},
  "deployedLinkReferences": {},
  "immutableReferences": {},
  "inputSourceName": "project/contracts/Univ.sol",
  "buildInfoId": "solc-0_8_25-03cf9723835dfa7440fe84465b5ca3d5eff77c76"
}