{
  "_format": "hh3-artifact-1",
  "contractName": "PFEDeliberation",
  "sourceName": "contracts/Deliberation.sol",
  "abi": [
    {
      "inputs": [],
      "stateMutability": "nonpayable",
      "type": "constructor"
    },
    {
      "inputs": [],
      "name": "AccessControlBadConfirmation",
      "type": "error"
    },
    {
      "inputs": [
        {
          "internalType": "address",
          "name": "account",
          "type": "address"
        },
        {
          "internalType": "bytes32",
          "name": "neededRole",
          "type": "bytes32"
        }
      ],
      "name": "AccessControlUnauthorizedAccount",
      "type": "error"
    },
    {
      "inputs": [],
      "name": "Cancel_InvalidState",
      "type": "error"
    },
    {
      "inputs": [],
      "name": "Grade_AlreadySubmitted",
      "type": "error"
    },
    {
      "inputs": [],
      "name": "Grade_ExceedsMax",
      "type": "error"
    },
    {
      "inputs": [],
      "name": "Grade_NotJuryMember",
      "type": "error"
    },
    {
      "inputs": [],
      "name": "Session_AlreadyCalculated",
      "type": "error"
    },
    {
      "inputs": [],
      "name": "Session_AlreadyExists",
      "type": "error"
    },
    {
      "inputs": [],
      "name": "Session_InvalidForAcademicYear",
      "type": "error"
    },
    {
      "inputs": [],
      "name": "Session_InvalidJury",
      "type": "error"
    },
    {
      "inputs": [],
      "name": "Session_MissingData",
      "type": "error"
    },
    {
      "inputs": [],
      "name": "Session_NotFound",
      "type": "error"
    },
    {
      "inputs": [],
      "name": "Session_NotOpen",
      "type": "error"
    },
    {
      "anonymous": false,
      "inputs": [
        {
          "indexed": true,
          "internalType": "uint256",
          "name": "sessionId",
          "type": "uint256"
        },
        {
          "indexed": true,
          "internalType": "address",
          "name": "professor",
          "type": "address"
        },
        {
          "indexed": false,
          "internalType": "enum PFEDeliberation.JuryRole",
          "name": "juryRole",
          "type": "uint8"
        },
        {
          "indexed": false,
          "internalType": "uint16",
          "name": "total",
          "type": "uint16"
        }
      ],
      "name": "GradeSubmitted",
      "type": "event"
    },
    {
      "anonymous": false,
      "inputs": [
        {
          "indexed": true,
          "internalType": "bytes32",
          "name": "role",
          "type": "bytes32"
        },
        {
          "indexed": true,
          "internalType": "bytes32",
          "name": "previousAdminRole",
          "type": "bytes32"
        },
        {
          "indexed": true,
          "internalType": "bytes32",
          "name": "newAdminRole",
          "type": "bytes32"
        }
      ],
      "name": "RoleAdminChanged",
      "type": "event"
    },
    {
      "anonymous": false,
      "inputs": [
        {
          "indexed": true,
          "internalType": "bytes32",
          "name": "role",
          "type": "bytes32"
        },
        {
          "indexed": true,
          "internalType": "address",
          "name": "account",
          "type": "address"
        },
        {
          "indexed": true,
          "internalType": "address",
          "name": "sender",
          "type": "address"
        }
      ],
      "name": "RoleGranted",
      "type": "event"
    },
    {
      "anonymous": false,
      "inputs": [
        {
          "indexed": true,
          "internalType": "bytes32",
          "name": "role",
          "type": "bytes32"
        },
        {
          "indexed": true,
          "internalType": "address",
          "name": "account",
          "type": "address"
        },
        {
          "indexed": true,
          "internalType": "address",
          "name": "sender",
          "type": "address"
        }
      ],
      "name": "RoleRevoked",
      "type": "event"
    },
    {
      "anonymous": false,
      "inputs": [
        {
          "indexed": true,
          "internalType": "uint256",
          "name": "sessionId",
          "type": "uint256"
        },
        {
          "indexed": false,
          "internalType": "string",
          "name": "matricule",
          "type": "string"
        },
        {
          "indexed": false,
          "internalType": "uint16",
          "name": "finalAverage",
          "type": "uint16"
        },
        {
          "indexed": false,
          "internalType": "enum PFEDeliberation.Mention",
          "name": "mention",
          "type": "uint8"
        }
      ],
      "name": "SessionCalculated",
      "type": "event"
    },
    {
      "anonymous": false,
      "inputs": [
        {
          "indexed": true,
          "internalType": "uint256",
          "name": "sessionId",
          "type": "uint256"
        },
        {
          "indexed": true,
          "internalType": "address",
          "name": "cancelledBy",
          "type": "address"
        },
        {
          "indexed": false,
          "internalType": "string",
          "name": "reason",
          "type": "string"
        }
      ],
      "name": "SessionCancelled",
      "type": "event"
    },
    {
      "anonymous": false,
      "inputs": [
        {
          "indexed": true,
          "internalType": "uint256",
          "name": "sessionId",
          "type": "uint256"
        },
        {
          "indexed": false,
          "internalType": "string",
          "name": "matricule",
          "type": "string"
        },
        {
          "indexed": false,
          "internalType": "address",
          "name": "president",
          "type": "address"
        },
        {
          "indexed": false,
          "internalType": "uint256",
          "name": "createdAt",
          "type": "uint256"
        }
      ],
      "name": "SessionInitialized",
      "type": "event"
    },
    {
      "inputs": [],
      "name": "ADMIN_ROLE",
      "outputs": [
        {
          "internalType": "bytes32",
          "name": "",
          "type": "bytes32"
        }
      ],
      "stateMutability": "view",
      "type": "function"
    },
    {
      "inputs": [],
      "name": "DEFAULT_ADMIN_ROLE",
      "outputs": [
        {
          "internalType": "bytes32",
          "name": "",
          "type": "bytes32"
        }
      ],
      "stateMutability": "view",
      "type": "function"
    },
    {
      "inputs": [],
      "name": "JURY_SIZE",
      "outputs": [
        {
          "internalType": "uint8",
          "name": "",
          "type": "uint8"
        }
      ],
      "stateMutability": "view",
      "type": "function"
    },
    {
      "inputs": [],
      "name": "MAX_APPLICATION",
      "outputs": [
        {
          "internalType": "uint16",
          "name": "",
          "type": "uint16"
        }
      ],
      "stateMutability": "view",
      "type": "function"
    },
    {
      "inputs": [],
      "name": "MAX_CONCEPTION",
      "outputs": [
        {
          "internalType": "uint16",
          "name": "",
          "type": "uint16"
        }
      ],
      "stateMutability": "view",
      "type": "function"
    },
    {
      "inputs": [],
      "name": "MAX_PRESENTATION",
      "outputs": [
        {
          "internalType": "uint16",
          "name": "",
          "type": "uint16"
        }
      ],
      "stateMutability": "view",
      "type": "function"
    },
    {
      "inputs": [],
      "name": "MAX_QA",
      "outputs": [
        {
          "internalType": "uint16",
          "name": "",
          "type": "uint16"
        }
      ],
      "stateMutability": "view",
      "type": "function"
    },
    {
      "inputs": [],
      "name": "MAX_RAPPORT",
      "outputs": [
        {
          "internalType": "uint16",
          "name": "",
          "type": "uint16"
        }
      ],
      "stateMutability": "view",
      "type": "function"
    },
    {
      "inputs": [],
      "name": "MAX_TOTAL",
      "outputs": [
        {
          "internalType": "uint16",
          "name": "",
          "type": "uint16"
        }
      ],
      "stateMutability": "view",
      "type": "function"
    },
    {
      "inputs": [],
      "name": "MENTION_AB",
      "outputs": [
        {
          "internalType": "uint16",
          "name": "",
          "type": "uint16"
        }
      ],
      "stateMutability": "view",
      "type": "function"
    },
    {
      "inputs": [],
      "name": "MENTION_B",
      "outputs": [
        {
          "internalType": "uint16",
          "name": "",
          "type": "uint16"
        }
      ],
      "stateMutability": "view",
      "type": "function"
    },
    {
      "inputs": [],
      "name": "MENTION_P",
      "outputs": [
        {
          "internalType": "uint16",
          "name": "",
          "type": "uint16"
        }
      ],
      "stateMutability": "view",
      "type": "function"
    },
    {
      "inputs": [],
      "name": "MENTION_TB",
      "outputs": [
        {
          "internalType": "uint16",
          "name": "",
          "type": "uint16"
        }
      ],
      "stateMutability": "view",
      "type": "function"
    },
    {
      "inputs": [
        {
          "internalType": "address",
          "name": "addr",
          "type": "address"
        }
      ],
      "name": "addAdmin",
      "outputs": [],
      "stateMutability": "nonpayable",
      "type": "function"
    },
    {
      "inputs": [
        {
          "internalType": "uint256",
          "name": "sessionId",
          "type": "uint256"
        },
        {
          "internalType": "string",
          "name": "reason",
          "type": "string"
        }
      ],
      "name": "cancelSession",
      "outputs": [],
      "stateMutability": "nonpayable",
      "type": "function"
    },
    {
      "inputs": [
        {
          "internalType": "uint256",
          "name": "sessionId",
          "type": "uint256"
        }
      ],
      "name": "getFinalGrade",
      "outputs": [
        {
          "internalType": "bool",
          "name": "isCalculated",
          "type": "bool"
        },
        {
          "internalType": "string",
          "name": "studentId",
          "type": "string"
        },
        {
          "internalType": "uint16",
          "name": "finalNote",
          "type": "uint16"
        },
        {
          "internalType": "string",
          "name": "mentionLabel",
          "type": "string"
        }
      ],
      "stateMutability": "view",
      "type": "function"
    },
    {
      "inputs": [
        {
          "internalType": "uint256",
          "name": "sessionId",
          "type": "uint256"
        }
      ],
      "name": "getJuryInfo",
      "outputs": [
        {
          "components": [
            {
              "internalType": "address",
              "name": "president",
              "type": "address"
            },
            {
              "internalType": "address",
              "name": "promoteur",
              "type": "address"
            },
            {
              "internalType": "address",
              "name": "examinateur1",
              "type": "address"
            },
            {
              "internalType": "address",
              "name": "examinateur2",
              "type": "address"
            }
          ],
          "internalType": "struct PFEDeliberation.JuryInfo",
          "name": "",
          "type": "tuple"
        }
      ],
      "stateMutability": "view",
      "type": "function"
    },
    {
      "inputs": [
        {
          "internalType": "bytes32",
          "name": "role",
          "type": "bytes32"
        }
      ],
      "name": "getRoleAdmin",
      "outputs": [
        {
          "internalType": "bytes32",
          "name": "",
          "type": "bytes32"
        }
      ],
      "stateMutability": "view",
      "type": "function"
    },
    {
      "inputs": [
        {
          "internalType": "uint256",
          "name": "sessionId",
          "type": "uint256"
        }
      ],
      "name": "getSessionStatus",
      "outputs": [
        {
          "internalType": "uint8",
          "name": "voteCount",
          "type": "uint8"
        },
        {
          "internalType": "bool",
          "name": "isCalculated",
          "type": "bool"
        },
        {
          "internalType": "uint16",
          "name": "finalAverage",
          "type": "uint16"
        },
        {
          "internalType": "string",
          "name": "mentionLabel",
          "type": "string"
        },
        {
          "internalType": "enum PFEDeliberation.SessionState",
          "name": "state",
          "type": "uint8"
        }
      ],
      "stateMutability": "view",
      "type": "function"
    },
    {
      "inputs": [
        {
          "internalType": "uint256",
          "name": "sessionId",
          "type": "uint256"
        }
      ],
      "name": "getStudentInfo",
      "outputs": [
        {
          "components": [
            {
              "internalType": "string",
              "name": "matricule",
              "type": "string"
            },
            {
              "internalType": "string",
              "name": "name",
              "type": "string"
            },
            {
              "internalType": "string",
              "name": "pfeTitle",
              "type": "string"
            },
            {
              "internalType": "string",
              "name": "specialty",
              "type": "string"
            },
            {
              "internalType": "string",
              "name": "academicYear",
              "type": "string"
            }
          ],
          "internalType": "struct PFEDeliberation.StudentInfo",
          "name": "",
          "type": "tuple"
        }
      ],
      "stateMutability": "view",
      "type": "function"
    },
    {
      "inputs": [
        {
          "internalType": "bytes32",
          "name": "role",
          "type": "bytes32"
        },
        {
          "internalType": "address",
          "name": "account",
          "type": "address"
        }
      ],
      "name": "grantRole",
      "outputs": [],
      "stateMutability": "nonpayable",
      "type": "function"
    },
    {
      "inputs": [
        {
          "internalType": "bytes32",
          "name": "role",
          "type": "bytes32"
        },
        {
          "internalType": "address",
          "name": "account",
          "type": "address"
        }
      ],
      "name": "hasRole",
      "outputs": [
        {
          "internalType": "bool",
          "name": "",
          "type": "bool"
        }
      ],
      "stateMutability": "view",
      "type": "function"
    },
    {
      "inputs": [
        {
          "components": [
            {
              "internalType": "string",
              "name": "matricule",
              "type": "string"
            },
            {
              "internalType": "string",
              "name": "name",
              "type": "string"
            },
            {
              "internalType": "string",
              "name": "pfeTitle",
              "type": "string"
            },
            {
              "internalType": "string",
              "name": "specialty",
              "type": "string"
            },
            {
              "internalType": "string",
              "name": "academicYear",
              "type": "string"
            }
          ],
          "internalType": "struct PFEDeliberation.StudentInfo",
          "name": "student",
          "type": "tuple"
        },
        {
          "components": [
            {
              "internalType": "address",
              "name": "president",
              "type": "address"
            },
            {
              "internalType": "address",
              "name": "promoteur",
              "type": "address"
            },
            {
              "internalType": "address",
              "name": "examinateur1",
              "type": "address"
            },
            {
              "internalType": "address",
              "name": "examinateur2",
              "type": "address"
            }
          ],
          "internalType": "struct PFEDeliberation.JuryInfo",
          "name": "jury",
          "type": "tuple"
        }
      ],
      "name": "initializeSession",
      "outputs": [
        {
          "internalType": "uint256",
          "name": "sessionId",
          "type": "uint256"
        }
      ],
      "stateMutability": "nonpayable",
      "type": "function"
    },
    {
      "inputs": [
        {
          "internalType": "bytes32",
          "name": "role",
          "type": "bytes32"
        },
        {
          "internalType": "address",
          "name": "callerConfirmation",
          "type": "address"
        }
      ],
      "name": "renounceRole",
      "outputs": [],
      "stateMutability": "nonpayable",
      "type": "function"
    },
    {
      "inputs": [
        {
          "internalType": "bytes32",
          "name": "role",
          "type": "bytes32"
        },
        {
          "internalType": "address",
          "name": "account",
          "type": "address"
        }
      ],
      "name": "revokeRole",
      "outputs": [],
      "stateMutability": "nonpayable",
      "type": "function"
    },
    {
      "inputs": [
        {
          "internalType": "uint256",
          "name": "sessionId",
          "type": "uint256"
        },
        {
          "internalType": "uint16",
          "name": "rapport",
          "type": "uint16"
        },
        {
          "internalType": "uint16",
          "name": "conception",
          "type": "uint16"
        },
        {
          "internalType": "uint16",
          "name": "application",
          "type": "uint16"
        },
        {
          "internalType": "uint16",
          "name": "presentation",
          "type": "uint16"
        },
        {
          "internalType": "uint16",
          "name": "qa",
          "type": "uint16"
        }
      ],
      "name": "submitGrade",
      "outputs": [],
      "stateMutability": "nonpayable",
      "type": "function"
    },
    {
      "inputs": [
        {
          "internalType": "bytes4",
          "name": "interfaceId",
          "type": "bytes4"
        }
      ],
      "name": "supportsInterface",
      "outputs": [
        {
          "internalType": "bool",
          "name": "",
          "type": "bool"
        }
      ],
      "stateMutability": "view",
      "type": "function"
    }
  ],
  "bytecode": "0x608060405234801561000f575f80fd5b5061001a5f3361004b565b506100457fa49807205ce4d355092ef5a8a18f56e8913cf4a201fbe287825b095693c217753361004b565b506100f4565b5f828152602081815260408083206001600160a01b038516845290915281205460ff166100eb575f838152602081815260408083206001600160a01b03861684529091529020805460ff191660011790556100a33390565b6001600160a01b0316826001600160a01b0316847f2f8788117e7eff1d82e926ec794901d17c78024a50270940304540a733656f0d60405160405180910390a45060016100ee565b505f5b92915050565b612536806101015f395ff3fe608060405234801561000f575f80fd5b50600436106101a1575f3560e01c806375b238fc116100f3578063afe2ffef11610093578063cd60fe351161006e578063cd60fe35146103bf578063d47f6ef0146103c8578063d547741f146103d1578063f1e345cf146101cd575f80fd5b8063afe2ffef14610390578063b774578d146103a3578063c486a639146103b6575f80fd5b806391d14854116100ce57806391d148541461035c578063963bed58146102b3578063a217fddf1461036f578063afaec52714610376575f80fd5b806375b238fc146103015780637e71220c14610315578063887caf5f14610338575f80fd5b80634c6e127b1161015e57806365a81d7d1161013957806365a81d7d146102bc57806368c2483f146102dc57806370480275146102e55780637212a6f6146102f8575f80fd5b80634c6e127b146102975780635b74f6b5146102a0578063608107d4146102b3575f80fd5b806301ffc9a7146101a55780630929078c146101cd578063248a9ca3146101e957806328a364fe146102195780632f2ff15d1461026f57806336568abe14610284575b5f80fd5b6101b86101b3366004611b9a565b6103e4565b60405190151581526020015b60405180910390f35b6101d661012c81565b60405161ffff90911681526020016101c4565b61020b6101f7366004611bc8565b5f9081526020819052604090206001015490565b6040519081526020016101c4565b61022c610227366004611bc8565b61041a565b6040516101c4919081516001600160a01b039081168252602080840151821690830152604080840151821690830152606092830151169181019190915260800190565b61028261027d366004611bf3565b6104b4565b005b610282610292366004611bf3565b6104de565b6101d66103e881565b6102826102ae366004611c21565b610516565b6101d66101f481565b6102cf6102ca366004611bc8565b61063c565b6040516101c49190611cc4565b6101d661057881565b6102826102f3366004611d5e565b610981565b6101d661064081565b61020b5f805160206124e183398151915281565b610328610323366004611bc8565b6109af565b6040516101c49493929190611d79565b61034b610346366004611bc8565b610aab565b6040516101c4959493929190611dce565b6101b861036a366004611bf3565b610b32565b61020b5f81565b61037e600481565b60405160ff90911681526020016101c4565b61028261039e366004611e33565b610b5a565b61020b6103b1366004611e9c565b611205565b6101d66104b081565b6101d66107d081565b6101d661019081565b6102826103df366004611bf3565b6117b5565b5f6001600160e01b03198216637965db0b60e01b148061041457506301ffc9a760e01b6001600160e01b03198316145b92915050565b604080516080810182525f808252602082018190529181018290526060810191909152600154821061045f57604051631ed1025b60e21b815260040160405180910390fd5b505f90815260026020908152604091829020825160808101845260068201546001600160a01b039081168252600783015481169382019390935260088201548316938101939093526009015416606082015290565b5f828152602081905260409020600101546104ce816117d9565b6104d883836117e6565b50505050565b6001600160a01b03811633146105075760405163334bd91960e11b815260040160405180910390fd5b6105118282611875565b505050565b5f805160206124e183398151915261052d816117d9565b600154841061054f57604051631ed1025b60e21b815260040160405180910390fd5b5f84815260026020526040902060138101546301000000900460ff1615610589576040516379329e2b60e11b815260040160405180910390fd5b60138101805464ff000000001916640200000000179055601681016105af848683611f8d565b506040515f906105cb90600184019060058501906020016120b6565b60408051601f1981840301815282825280516020918201205f8181526003909252919020805460ff191690559150339087907f1816d376e9c24be2f5548a9dd2f67f63361f4635662b3a2afc90b5d33a3634b09061062c90899089906120fa565b60405180910390a3505050505050565b61066e6040518060a0016040528060608152602001606081526020016060815260200160608152602001606081525090565b600154821061069057604051631ed1025b60e21b815260040160405180910390fd5b5f8281526002602052604090819020815160a081019092526001018054829082906106ba90611f0a565b80601f01602080910402602001604051908101604052809291908181526020018280546106e690611f0a565b80156107315780601f1061070857610100808354040283529160200191610731565b820191905f5260205f20905b81548152906001019060200180831161071457829003601f168201915b5050505050815260200160018201805461074a90611f0a565b80601f016020809104026020016040519081016040528092919081815260200182805461077690611f0a565b80156107c15780601f10610798576101008083540402835291602001916107c1565b820191905f5260205f20905b8154815290600101906020018083116107a457829003601f168201915b505050505081526020016002820180546107da90611f0a565b80601f016020809104026020016040519081016040528092919081815260200182805461080690611f0a565b80156108515780601f1061082857610100808354040283529160200191610851565b820191905f5260205f20905b81548152906001019060200180831161083457829003601f168201915b5050505050815260200160038201805461086a90611f0a565b80601f016020809104026020016040519081016040528092919081815260200182805461089690611f0a565b80156108e15780601f106108b8576101008083540402835291602001916108e1565b820191905f5260205f20905b8154815290600101906020018083116108c457829003601f168201915b505050505081526020016004820180546108fa90611f0a565b80601f016020809104026020016040519081016040528092919081815260200182805461092690611f0a565b80156109715780601f1061094857610100808354040283529160200191610971565b820191905f5260205f20905b81548152906001019060200180831161095457829003601f168201915b5050505050815250509050919050565b5f805160206124e1833981519152610998816117d9565b6105115f805160206124e1833981519152836117e6565b5f60605f606060015485106109d757604051631ed1025b60e21b815260040160405180910390fd5b5f858152600260205260409020601381015460ff63010000008204811691600184019161ffff821691610a119162010000909104166118de565b828054610a1d90611f0a565b80601f0160208091040260200160405190810160405280929190818152602001828054610a4990611f0a565b8015610a945780601f10610a6b57610100808354040283529160200191610a94565b820191905f5260205f20905b815481529060010190602001808311610a7757829003601f168201915b505050505092509450945094509450509193509193565b5f805f60605f6001548610610ad357604051631ed1025b60e21b815260040160405180910390fd5b5f868152600260205260409020600a810154601382015460ff918216916301000000820481169161ffff811691610b1091620100009004166118de565b601390940154929a919950975091955060ff600160201b909104169350915050565b5f918252602082815260408084206001600160a01b0393909316845291905290205460ff1690565b6001548610610b7c57604051631ed1025b60e21b815260040160405180910390fd5b5f868152600260205260408120906013820154600160201b900460ff166002811115610baa57610baa611dba565b14610bc85760405163d62b005360e01b815260040160405180910390fd5b60138101546301000000900460ff1615610bf857604051600162b80d5d60e01b0319815260040160405180910390fd5b60068101545f9081906001600160a01b03163303610c4657600a830154610100900460ff1615610c3b57604051631e0610dd60e01b815260040160405180910390fd5b505f90506001610d27565b60078301546001600160a01b03163303610c9157600a83015462010000900460ff1615610c8657604051631e0610dd60e01b815260040160405180910390fd5b506001905080610d27565b60088301546001600160a01b03163303610cde57600a8301546301000000900460ff1615610cd257604051631e0610dd60e01b815260040160405180910390fd5b50600290506001610d27565b60098301546001600160a01b03163303610d2757600a830154600160201b900460ff1615610d1f57604051631e0610dd60e01b815260040160405180910390fd5b506003905060015b80610d4457604051629c8d6f60e61b815260040160405180910390fd5b6101f461ffff89161180610d5d575061019061ffff8816115b80610d6d57506101f461ffff8716115b80610d7d575061012c61ffff8616115b80610d8d575061012c61ffff8516115b15610dab57604051630343a16760e31b815260040160405180910390fd5b5f848688610db98b8d612121565b610dc39190612121565b610dcd9190612121565b610dd79190612121565b6040805160e08101825261ffff808d1682528b811660208301528a8116928201929092528882166060820152878216608082015290821660a08201524260c08201529091505f846003811115610e2f57610e2f611dba565b03610ef6578051600b86018054602084015160408501516060860151608087015160a088015161ffff908116600160501b0261ffff60501b19928216600160401b029290921663ffffffff60401b19938216600160301b0261ffff60301b19958316600160201b029590951667ffffffff0000000019968316620100000263ffffffff19909816929099169190911795909517939093169590951717939093161791909117905560c0810151600c860155600a8501805461ff001916610100179055611169565b6001846003811115610f0a57610f0a611dba565b03610fcc578051600d86018054602084015160408501516060860151608087015160a088015161ffff97881663ffffffff19909616959095176201000094881685021767ffffffff000000001916600160201b9388169390930261ffff60301b191692909217600160301b918716919091021763ffffffff60401b1916600160401b9186169190910261ffff60501b191617600160501b949092169390930217905560c0820151600e870155600a8601805462ff000019169091179055611169565b6002846003811115610fe057610fe0611dba565b036110ab578051600f86018054602084015160408501516060860151608087015160a088015161ffff908116600160501b0261ffff60501b19928216600160401b029290921663ffffffff60401b19938216600160301b0261ffff60301b19958316600160201b029590951667ffffffff0000000019968316620100000263ffffffff19909816929099169190911795909517939093169590951717939093161791909117905560c08101516010860155600a8501805463ff00000019166301000000179055611169565b8051601186018054602084015160408501516060860151608087015160a088015161ffff97881663ffffffff199096169590951762010000948816949094029390931767ffffffff000000001916600160201b928716830261ffff60301b191617600160301b918716919091021763ffffffff60401b1916600160401b9286169290920261ffff60501b191691909117600160501b949092169390930217905560c08201516012870155600a8601805464ff00000000191690911790555b600a85018054600191905f9061118390849060ff16612143565b92506101000a81548160ff021916908360ff160217905550336001600160a01b03168b7fb9eb1c4ff829b38dc1e6744bc0b36a60490f9083515f6d2d4598db43bdec019a86856040516111d792919061215c565b60405180910390a3600a85015460ff16600319016111f8576111f88b6119fa565b5050505050505050505050565b5f5f805160206124e183398151915261121d816117d9565b6112278480612183565b15905080611241575061123d6020850185612183565b1590505b1561125f576040516330792f2d60e11b815260040160405180910390fd5b5f61126d6020850185611d5e565b6001600160a01b0316148061129957505f61128e6040850160208601611d5e565b6001600160a01b0316145b806112bb57505f6112b06060850160408601611d5e565b6001600160a01b0316145b806112dd57505f6112d26080850160608601611d5e565b6001600160a01b0316145b156112fb57604051638b78ad5f60e01b815260040160405180910390fd5b61130b6040840160208501611d5e565b6001600160a01b03166113216020850185611d5e565b6001600160a01b0316148061136257506113416060840160408501611d5e565b6001600160a01b03166113576020850185611d5e565b6001600160a01b0316145b8061139957506113786080840160608501611d5e565b6001600160a01b031661138e6020850185611d5e565b6001600160a01b0316145b806113d357506113af6060840160408501611d5e565b6001600160a01b03166113c86040850160208601611d5e565b6001600160a01b0316145b8061140d57506113e96080840160608501611d5e565b6001600160a01b03166114026040850160208601611d5e565b6001600160a01b0316145b8061144757506114236080840160608501611d5e565b6001600160a01b031661143c6060850160408601611d5e565b6001600160a01b0316145b1561146557604051638b78ad5f60e01b815260040160405180910390fd5b604051614c3360f01b602082015260220160408051601f19818403018152919052805160209091012061149b6080860186612183565b6040516020016114ac9291906121cd565b604051602081830303815290604052805190602001201415801561152b575060405161269960f11b602082015260220160408051601f1981840301815291905280516020909101206115016080860186612183565b6040516020016115129291906121cd565b6040516020818303038152906040528051906020012014155b156115495760405163c3c0393560e01b815260040160405180910390fd5b5f6115548580612183565b6115616080880188612183565b60405160200161157494939291906121dc565b60408051601f1981840301815291815281516020928301205f818152600390935291205490915060ff16156115bc5760405163ae0f8aab60e01b815260040160405180910390fd5b60018054905f6115cb836121fb565b909155505f81815260026020526040902081815590935085600182016115f18282612213565b50859050600682016116038282612367565b505060138101805464ff00000000191690554260148201556017810180546001600160a01b031916331790555f828152600360209081526040808320805460ff191660011790556004825282208690556005919061166390880188611d5e565b6001600160a01b0316815260208082019290925260409081015f90812080546001810182559082528382200187905560059290916116a691908901908901611d5e565b6001600160a01b0316815260208082019290925260409081015f9081208054600181018255908252928120909201869055600591906116eb9060608901908901611d5e565b6001600160a01b031681526020808201929092526040015f908120805460018101825590825291812090910185905560059061172d6080880160608901611d5e565b6001600160a01b031681526020808201929092526040015f908120805460018101825590825291902001849055837f35cf8cb412605e2726867cd0f089d99c16aed6f78b58be2b580235ac1d9004ed6117868880612183565b61179360208a018a611d5e565b426040516117a494939291906123d0565b60405180910390a250505092915050565b5f828152602081905260409020600101546117cf816117d9565b6104d88383611875565b6117e38133611b59565b50565b5f6117f18383610b32565b61186e575f838152602081815260408083206001600160a01b03861684529091529020805460ff191660011790556118263390565b6001600160a01b0316826001600160a01b0316847f2f8788117e7eff1d82e926ec794901d17c78024a50270940304540a733656f0d60405160405180910390a4506001610414565b505f610414565b5f6118808383610b32565b1561186e575f838152602081815260408083206001600160a01b0386168085529252808320805460ff1916905551339286917ff6391f5c32d9c69d2a47ea670b442974b53935d1edc7fd64eb21e047a839171b9190a4506001610414565b606060048260048111156118f4576118f4611dba565b0361191e5750506040805180820190915260098152682a3932b9902134b2b760b91b602082015290565b600382600481111561193257611932611dba565b036119575750506040805180820190915260048152632134b2b760e11b602082015290565b600282600481111561196b5761196b611dba565b0361199657505060408051808201909152600a81526920b9b9b2bd102134b2b760b11b602082015290565b60018260048111156119aa576119aa611dba565b036119d35750506040805180820190915260088152675061737361626c6560c01b602082015290565b505060408051808201909152600b81526a125b9cdd59999a5cd85b9d60aa1b602082015290565b5f8181526002602052604081206011810154600f820154600d830154600b84015493949361ffff600160501b9485900481169493849004811693611a459381900482169204166123ff565b611a4f91906123ff565b611a5991906123ff565b90505f611a67600483612412565b90505f61064061ffff831610611a7f57506004611aba565b61057861ffff831610611a9457506003611aba565b6104b061ffff831610611aa957506002611aba565b6103e861ffff831610611aba575060015b60138401805461ffff841661ffff1982168117835583929162ffffff19161762010000836004811115611aef57611aef611dba565b021790555060138401805464ffff000000191664010100000017905542601585015560405185907f0158404e2fbaede1961b34228d8be0f21114e36601d5375a56190d28e479393490611b4a90600188019086908690612445565b60405180910390a25050505050565b611b638282610b32565b611b965760405163e2517d3f60e01b81526001600160a01b03821660048201526024810183905260440160405180910390fd5b5050565b5f60208284031215611baa575f80fd5b81356001600160e01b031981168114611bc1575f80fd5b9392505050565b5f60208284031215611bd8575f80fd5b5035919050565b6001600160a01b03811681146117e3575f80fd5b5f8060408385031215611c04575f80fd5b823591506020830135611c1681611bdf565b809150509250929050565b5f805f60408486031215611c33575f80fd5b83359250602084013567ffffffffffffffff80821115611c51575f80fd5b818601915086601f830112611c64575f80fd5b813581811115611c72575f80fd5b876020828501011115611c83575f80fd5b6020830194508093505050509250925092565b5f81518084528060208401602086015e5f602082860101526020601f19601f83011685010191505092915050565b602081525f825160a06020840152611cdf60c0840182611c96565b90506020840151601f1980858403016040860152611cfd8383611c96565b92506040860151915080858403016060860152611d1a8383611c96565b92506060860151915080858403016080860152611d378383611c96565b925060808601519150808584030160a086015250611d558282611c96565b95945050505050565b5f60208284031215611d6e575f80fd5b8135611bc181611bdf565b8415158152608060208201525f611d936080830186611c96565b61ffff851660408401528281036060840152611daf8185611c96565b979650505050505050565b634e487b7160e01b5f52602160045260245ffd5b60ff86168152841515602082015261ffff8416604082015260a060608201525f611dfb60a0830185611c96565b905060038310611e0d57611e0d611dba565b8260808301529695505050505050565b803561ffff81168114611e2e575f80fd5b919050565b5f805f805f8060c08789031215611e48575f80fd5b86359550611e5860208801611e1d565b9450611e6660408801611e1d565b9350611e7460608801611e1d565b9250611e8260808801611e1d565b9150611e9060a08801611e1d565b90509295509295509295565b5f8082840360a0811215611eae575f80fd5b833567ffffffffffffffff811115611ec4575f80fd5b840160a08187031215611ed5575f80fd5b92506080601f1982011215611ee8575f80fd5b506020830190509250929050565b634e487b7160e01b5f52604160045260245ffd5b600181811c90821680611f1e57607f821691505b602082108103611f3c57634e487b7160e01b5f52602260045260245ffd5b50919050565b601f82111561051157805f5260205f20601f840160051c81016020851015611f675750805b601f840160051c820191505b81811015611f86575f8155600101611f73565b5050505050565b67ffffffffffffffff831115611fa557611fa5611ef6565b611fb983611fb38354611f0a565b83611f42565b5f601f841160018114611fea575f8515611fd35750838201355b5f19600387901b1c1916600186901b178355611f86565b5f83815260208120601f198716915b828110156120195786850135825560209485019460019092019101611ff9565b5086821015612035575f1960f88860031b161c19848701351681555b505060018560011b0183555050505050565b5f815461205381611f0a565b6001828116801561206b5760018114612080576120ac565b60ff19841687528215158302870194506120ac565b855f526020805f205f5b858110156120a35781548a82015290840190820161208a565b50505082870194505b5050505092915050565b5f6120ca6120c48386612047565b84612047565b949350505050565b81835281816020850137505f828201602090810191909152601f909101601f19169091010190565b602081525f6120ca6020830184866120d2565b634e487b7160e01b5f52601160045260245ffd5b61ffff81811683821601908082111561213c5761213c61210d565b5092915050565b60ff81811683821601908111156104145761041461210d565b604081016004841061217057612170611dba565b92815261ffff9190911660209091015290565b5f808335601e19843603018112612198575f80fd5b83018035915067ffffffffffffffff8211156121b2575f80fd5b6020019150368190038213156121c6575f80fd5b9250929050565b818382375f9101908152919050565b838582375f8482015f8152838582375f93019283525090949350505050565b5f6001820161220c5761220c61210d565b5060010190565b61221d8283612183565b67ffffffffffffffff81111561223557612235611ef6565b612249816122438554611f0a565b85611f42565b5f601f82116001811461227a575f83156122635750838201355b5f19600385901b1c1916600184901b1785556122d1565b5f85815260208120601f198516915b828110156122a95786850135825560209485019460019092019101612289565b50848210156122c5575f1960f88660031b161c19848701351681555b505060018360011b0185555b505050506122e26020830183612183565b6122f0818360018601611f8d565b50506122ff6040830183612183565b61230d818360028601611f8d565b505061231c6060830183612183565b61232a818360038601611f8d565b50506123396080830183612183565b6104d8818360048601611f8d565b80546001600160a01b0319166001600160a01b0392909216919091179055565b813561237281611bdf565b61237c8183612347565b50602082013561238b81611bdf565b6123988160018401612347565b5060408201356123a781611bdf565b6123b48160028401612347565b5060608201356123c381611bdf565b6105118160038401612347565b606081525f6123e36060830186886120d2565b6001600160a01b03949094166020830152506040015292915050565b808201808211156104145761041461210d565b5f8261242c57634e487b7160e01b5f52601260045260245ffd5b500490565b6005811061244157612441611dba565b9052565b606081525f80855461245681611f0a565b806060860152608060018084165f81146124775760018114612493576124c2565b60ff1985166080890152608084151560051b89010195506124c2565b8a5f526020805f205f5b868110156124b85781548b820187015290840190820161249d565b8a01608001975050505b5050505061ffff861660208501525090506120ca604083018461243156fea49807205ce4d355092ef5a8a18f56e8913cf4a201fbe287825b095693c21775a2646970667358221220a7d98be0fdda00a28e4fca5297a75c87aaec0bb614ca31ec84d94f9d97734c1c64736f6c63430008190033",
  "linkReferences": {},
  "deployedLinkReferences": {},
  "immutableReferences": {},
  "inputSourceName": "project/contracts/Deliberation.sol",
  "buildInfoId": "solc-0_8_25-65c21eec224809b087d54fde053c47ab4bd93d8f"
}