{
  "_format": "hh3-artifact-1",
  "contractName": "UniversityDiploma",
  "sourceName": "contracts/univ.sol",
  "abi": [
    {
      "inputs": [
        {
          "internalType": "address",
          "name": "admin",
          "type": "address"
        }
      ],
      "stateMutability": "nonpayable",
      "type": "constructor"
    },
    {
      "inputs": [],
      "name": "AccessControlBadConfirmation",
      "type": "error"
    },
    {
      "inputs": [
        {
          "internalType": "address",
          "name": "account",
          "type": "address"
        },
        {
          "internalType": "bytes32",
          "name": "neededRole",
          "type": "bytes32"
        }
      ],
      "name": "AccessControlUnauthorizedAccount",
      "type": "error"
    },
    {
      "inputs": [
        {
          "internalType": "uint256",
          "name": "batchId",
          "type": "uint256"
        }
      ],
      "name": "Batch_CannotCancel",
      "type": "error"
    },
    {
      "inputs": [],
      "name": "Batch_EmptyStudentList",
      "type": "error"
    },
    {
      "inputs": [
        {
          "internalType": "uint256",
          "name": "batchId",
          "type": "uint256"
        }
      ],
      "name": "Batch_Expired",
      "type": "error"
    },
    {
      "inputs": [
        {
          "internalType": "uint256",
          "name": "index",
          "type": "uint256"
        }
      ],
      "name": "Batch_InvalidGraduationYear",
      "type": "error"
    },
    {
      "inputs": [
        {
          "internalType": "uint256",
          "name": "batchId",
          "type": "uint256"
        },
        {
          "internalType": "enum UniversityDiploma.BatchStatus",
          "name": "current",
          "type": "uint8"
        },
        {
          "internalType": "enum UniversityDiploma.BatchStatus",
          "name": "required",
          "type": "uint8"
        }
      ],
      "name": "Batch_InvalidStatus",
      "type": "error"
    },
    {
      "inputs": [
        {
          "internalType": "uint256",
          "name": "index",
          "type": "uint256"
        }
      ],
      "name": "Batch_InvalidStudentWallet",
      "type": "error"
    },
    {
      "inputs": [
        {
          "internalType": "string",
          "name": "matricule",
          "type": "string"
        }
      ],
      "name": "Batch_MatriculeAlreadyMinted",
      "type": "error"
    },
    {
      "inputs": [
        {
          "internalType": "uint256",
          "name": "index",
          "type": "uint256"
        }
      ],
      "name": "Batch_MissingCID",
      "type": "error"
    },
    {
      "inputs": [],
      "name": "Batch_MissingCancelReason",
      "type": "error"
    },
    {
      "inputs": [
        {
          "internalType": "uint256",
          "name": "index",
          "type": "uint256"
        }
      ],
      "name": "Batch_MissingDepartment",
      "type": "error"
    },
    {
      "inputs": [
        {
          "internalType": "uint256",
          "name": "index",
          "type": "uint256"
        }
      ],
      "name": "Batch_MissingHash",
      "type": "error"
    },
    {
      "inputs": [
        {
          "internalType": "uint256",
          "name": "index",
          "type": "uint256"
        }
      ],
      "name": "Batch_MissingMatricule",
      "type": "error"
    },
    {
      "inputs": [
        {
          "internalType": "uint256",
          "name": "index",
          "type": "uint256"
        }
      ],
      "name": "Batch_MissingName",
      "type": "error"
    },
    {
      "inputs": [
        {
          "internalType": "uint256",
          "name": "provided",
          "type": "uint256"
        },
        {
          "internalType": "uint256",
          "name": "max",
          "type": "uint256"
        }
      ],
      "name": "Batch_TooLarge",
      "type": "error"
    },
    {
      "inputs": [
        {
          "internalType": "address",
          "name": "sender",
          "type": "address"
        },
        {
          "internalType": "uint256",
          "name": "tokenId",
          "type": "uint256"
        },
        {
          "internalType": "address",
          "name": "owner",
          "type": "address"
        }
      ],
      "name": "ERC721IncorrectOwner",
      "type": "error"
    },
    {
      "inputs": [
        {
          "internalType": "address",
          "name": "operator",
          "type": "address"
        },
        {
          "internalType": "uint256",
          "name": "tokenId",
          "type": "uint256"
        }
      ],
      "name": "ERC721InsufficientApproval",
      "type": "error"
    },
    {
      "inputs": [
        {
          "internalType": "address",
          "name": "approver",
          "type": "address"
        }
      ],
      "name": "ERC721InvalidApprover",
      "type": "error"
    },
    {
      "inputs": [
        {
          "internalType": "address",
          "name": "operator",
          "type": "address"
        }
      ],
      "name": "ERC721InvalidOperator",
      "type": "error"
    },
    {
      "inputs": [
        {
          "internalType": "address",
          "name": "owner",
          "type": "address"
        }
      ],
      "name": "ERC721InvalidOwner",
      "type": "error"
    },
    {
      "inputs": [
        {
          "internalType": "address",
          "name": "receiver",
          "type": "address"
        }
      ],
      "name": "ERC721InvalidReceiver",
      "type": "error"
    },
    {
      "inputs": [
        {
          "internalType": "address",
          "name": "sender",
          "type": "address"
        }
      ],
      "name": "ERC721InvalidSender",
      "type": "error"
    },
    {
      "inputs": [
        {
          "internalType": "uint256",
          "name": "tokenId",
          "type": "uint256"
        }
      ],
      "name": "ERC721NonexistentToken",
      "type": "error"
    },
    {
      "inputs": [],
      "name": "ReentrancyGuardReentrantCall",
      "type": "error"
    },
    {
      "inputs": [],
      "name": "Role_ZeroAddress",
      "type": "error"
    },
    {
      "inputs": [],
      "name": "SBT_TransferNotAllowed",
      "type": "error"
    },
    {
      "inputs": [
        {
          "internalType": "uint256",
          "name": "tokenId",
          "type": "uint256"
        }
      ],
      "name": "Token_AlreadyRevoked",
      "type": "error"
    },
    {
      "inputs": [
        {
          "internalType": "uint256",
          "name": "tokenId",
          "type": "uint256"
        }
      ],
      "name": "Token_DoesNotExist",
      "type": "error"
    },
    {
      "inputs": [],
      "name": "Token_MissingRevocationReason",
      "type": "error"
    },
    {
      "anonymous": false,
      "inputs": [
        {
          "indexed": true,
          "internalType": "address",
          "name": "owner",
          "type": "address"
        },
        {
          "indexed": true,
          "internalType": "address",
          "name": "approved",
          "type": "address"
        },
        {
          "indexed": true,
          "internalType": "uint256",
          "name": "tokenId",
          "type": "uint256"
        }
      ],
      "name": "Approval",
      "type": "event"
    },
    {
      "anonymous": false,
      "inputs": [
        {
          "indexed": true,
          "internalType": "address",
          "name": "owner",
          "type": "address"
        },
        {
          "indexed": true,
          "internalType": "address",
          "name": "operator",
          "type": "address"
        },
        {
          "indexed": false,
          "internalType": "bool",
          "name": "approved",
          "type": "bool"
        }
      ],
      "name": "ApprovalForAll",
      "type": "event"
    },
    {
      "anonymous": false,
      "inputs": [
        {
          "indexed": true,
          "internalType": "uint256",
          "name": "batchId",
          "type": "uint256"
        },
        {
          "indexed": true,
          "internalType": "address",
          "name": "cancelledBy",
          "type": "address"
        },
        {
          "indexed": false,
          "internalType": "string",
          "name": "reason",
          "type": "string"
        }
      ],
      "name": "BatchCancelled",
      "type": "event"
    },
    {
      "anonymous": false,
      "inputs": [
        {
          "indexed": true,
          "internalType": "uint256",
          "name": "batchId",
          "type": "uint256"
        },
        {
          "indexed": true,
          "internalType": "address",
          "name": "proposer",
          "type": "address"
        },
        {
          "indexed": false,
          "internalType": "uint256",
          "name": "studentCount",
          "type": "uint256"
        },
        {
          "indexed": false,
          "internalType": "string",
          "name": "description",
          "type": "string"
        },
        {
          "indexed": false,
          "internalType": "uint256",
          "name": "expiresAt",
          "type": "uint256"
        }
      ],
      "name": "BatchProposed",
      "type": "event"
    },
    {
      "anonymous": false,
      "inputs": [
        {
          "indexed": true,
          "internalType": "uint256",
          "name": "batchId",
          "type": "uint256"
        },
        {
          "indexed": true,
          "internalType": "address",
          "name": "dean",
          "type": "address"
        },
        {
          "indexed": false,
          "internalType": "uint256",
          "name": "timestamp",
          "type": "uint256"
        }
      ],
      "name": "BatchSignedByDean",
      "type": "event"
    },
    {
      "anonymous": false,
      "inputs": [
        {
          "indexed": true,
          "internalType": "uint256",
          "name": "batchId",
          "type": "uint256"
        },
        {
          "indexed": true,
          "internalType": "address",
          "name": "rector",
          "type": "address"
        },
        {
          "indexed": false,
          "internalType": "uint256",
          "name": "timestamp",
          "type": "uint256"
        }
      ],
      "name": "BatchSignedByRector",
      "type": "event"
    },
    {
      "anonymous": false,
      "inputs": [
        {
          "indexed": true,
          "internalType": "address",
          "name": "dean",
          "type": "address"
        },
        {
          "indexed": true,
          "internalType": "address",
          "name": "assignedBy",
          "type": "address"
        }
      ],
      "name": "DeanAssigned",
      "type": "event"
    },
    {
      "anonymous": false,
      "inputs": [
        {
          "indexed": true,
          "internalType": "address",
          "name": "dean",
          "type": "address"
        },
        {
          "indexed": true,
          "internalType": "address",
          "name": "removedBy",
          "type": "address"
        }
      ],
      "name": "DeanRemoved",
      "type": "event"
    },
    {
      "anonymous": false,
      "inputs": [
        {
          "indexed": true,
          "internalType": "uint256",
          "name": "tokenId",
          "type": "uint256"
        },
        {
          "indexed": true,
          "internalType": "address",
          "name": "revokedBy",
          "type": "address"
        },
        {
          "indexed": false,
          "internalType": "string",
          "name": "reason",
          "type": "string"
        },
        {
          "indexed": false,
          "internalType": "uint256",
          "name": "timestamp",
          "type": "uint256"
        }
      ],
      "name": "DiplomaRevoked",
      "type": "event"
    },
    {
      "anonymous": false,
      "inputs": [
        {
          "indexed": true,
          "internalType": "uint256",
          "name": "tokenId",
          "type": "uint256"
        },
        {
          "indexed": true,
          "internalType": "address",
          "name": "verifier",
          "type": "address"
        },
        {
          "indexed": false,
          "internalType": "bool",
          "name": "isAuthentic",
          "type": "bool"
        },
        {
          "indexed": false,
          "internalType": "uint256",
          "name": "count",
          "type": "uint256"
        }
      ],
      "name": "DiplomaVerified",
      "type": "event"
    },
    {
      "anonymous": false,
      "inputs": [
        {
          "indexed": true,
          "internalType": "uint256",
          "name": "batchId",
          "type": "uint256"
        },
        {
          "indexed": false,
          "internalType": "uint256[]",
          "name": "tokenIds",
          "type": "uint256[]"
        }
      ],
      "name": "DiplomasMinted",
      "type": "event"
    },
    {
      "anonymous": false,
      "inputs": [
        {
          "indexed": true,
          "internalType": "address",
          "name": "rector",
          "type": "address"
        },
        {
          "indexed": true,
          "internalType": "address",
          "name": "assignedBy",
          "type": "address"
        }
      ],
      "name": "RectorAssigned",
      "type": "event"
    },
    {
      "anonymous": false,
      "inputs": [
        {
          "indexed": true,
          "internalType": "address",
          "name": "rector",
          "type": "address"
        },
        {
          "indexed": true,
          "internalType": "address",
          "name": "removedBy",
          "type": "address"
        }
      ],
      "name": "RectorRemoved",
      "type": "event"
    },
    {
      "anonymous": false,
      "inputs": [
        {
          "indexed": true,
          "internalType": "bytes32",
          "name": "role",
          "type": "bytes32"
        },
        {
          "indexed": true,
          "internalType": "bytes32",
          "name": "previousAdminRole",
          "type": "bytes32"
        },
        {
          "indexed": true,
          "internalType": "bytes32",
          "name": "newAdminRole",
          "type": "bytes32"
        }
      ],
      "name": "RoleAdminChanged",
      "type": "event"
    },
    {
      "anonymous": false,
      "inputs": [
        {
          "indexed": true,
          "internalType": "bytes32",
          "name": "role",
          "type": "bytes32"
        },
        {
          "indexed": true,
          "internalType": "address",
          "name": "account",
          "type": "address"
        },
        {
          "indexed": true,
          "internalType": "address",
          "name": "sender",
          "type": "address"
        }
      ],
      "name": "RoleGranted",
      "type": "event"
    },
    {
      "anonymous": false,
      "inputs": [
        {
          "indexed": true,
          "internalType": "bytes32",
          "name": "role",
          "type": "bytes32"
        },
        {
          "indexed": true,
          "internalType": "address",
          "name": "account",
          "type": "address"
        },
        {
          "indexed": true,
          "internalType": "address",
          "name": "sender",
          "type": "address"
        }
      ],
      "name": "RoleRevoked",
      "type": "event"
    },
    {
      "anonymous": false,
      "inputs": [
        {
          "indexed": true,
          "internalType": "address",
          "name": "from",
          "type": "address"
        },
        {
          "indexed": true,
          "internalType": "address",
          "name": "to",
          "type": "address"
        },
        {
          "indexed": true,
          "internalType": "uint256",
          "name": "tokenId",
          "type": "uint256"
        }
      ],
      "name": "Transfer",
      "type": "event"
    },
    {
      "inputs": [],
      "name": "ADMIN_ROLE",
      "outputs": [
        {
          "internalType": "bytes32",
          "name": "",
          "type": "bytes32"
        }
      ],
      "stateMutability": "view",
      "type": "function"
    },
    {
      "inputs": [],
      "name": "DEAN_ROLE",
      "outputs": [
        {
          "internalType": "bytes32",
          "name": "",
          "type": "bytes32"
        }
      ],
      "stateMutability": "view",
      "type": "function"
    },
    {
      "inputs": [],
      "name": "DEFAULT_ADMIN_ROLE",
      "outputs": [
        {
          "internalType": "bytes32",
          "name": "",
          "type": "bytes32"
        }
      ],
      "stateMutability": "view",
      "type": "function"
    },
    {
      "inputs": [],
      "name": "MAX_BATCH_SIZE",
      "outputs": [
        {
          "internalType": "uint256",
          "name": "",
          "type": "uint256"
        }
      ],
      "stateMutability": "view",
      "type": "function"
    },
    {
      "inputs": [],
      "name": "PROPOSAL_EXPIRY",
      "outputs": [
        {
          "internalType": "uint256",
          "name": "",
          "type": "uint256"
        }
      ],
      "stateMutability": "view",
      "type": "function"
    },
    {
      "inputs": [],
      "name": "RECTOR_ROLE",
      "outputs": [
        {
          "internalType": "bytes32",
          "name": "",
          "type": "bytes32"
        }
      ],
      "stateMutability": "view",
      "type": "function"
    },
    {
      "inputs": [
        {
          "internalType": "address",
          "name": "to",
          "type": "address"
        },
        {
          "internalType": "uint256",
          "name": "tokenId",
          "type": "uint256"
        }
      ],
      "name": "approve",
      "outputs": [],
      "stateMutability": "nonpayable",
      "type": "function"
    },
    {
      "inputs": [
        {
          "internalType": "address",
          "name": "dean",
          "type": "address"
        }
      ],
      "name": "assignDean",
      "outputs": [],
      "stateMutability": "nonpayable",
      "type": "function"
    },
    {
      "inputs": [
        {
          "internalType": "address",
          "name": "rector",
          "type": "address"
        }
      ],
      "name": "assignRector",
      "outputs": [],
      "stateMutability": "nonpayable",
      "type": "function"
    },
    {
      "inputs": [
        {
          "internalType": "address",
          "name": "owner",
          "type": "address"
        }
      ],
      "name": "balanceOf",
      "outputs": [
        {
          "internalType": "uint256",
          "name": "",
          "type": "uint256"
        }
      ],
      "stateMutability": "view",
      "type": "function"
    },
    {
      "inputs": [
        {
          "internalType": "uint256",
          "name": "batchId",
          "type": "uint256"
        },
        {
          "internalType": "string",
          "name": "reason",
          "type": "string"
        }
      ],
      "name": "cancelBatch",
      "outputs": [],
      "stateMutability": "nonpayable",
      "type": "function"
    },
    {
      "inputs": [
        {
          "internalType": "uint256",
          "name": "tokenId",
          "type": "uint256"
        }
      ],
      "name": "getApproved",
      "outputs": [
        {
          "internalType": "address",
          "name": "",
          "type": "address"
        }
      ],
      "stateMutability": "view",
      "type": "function"
    },
    {
      "inputs": [
        {
          "internalType": "uint256",
          "name": "batchId",
          "type": "uint256"
        }
      ],
      "name": "getBatchCancelReason",
      "outputs": [
        {
          "internalType": "string",
          "name": "",
          "type": "string"
        }
      ],
      "stateMutability": "view",
      "type": "function"
    },
    {
      "inputs": [
        {
          "internalType": "uint256",
          "name": "batchId",
          "type": "uint256"
        }
      ],
      "name": "getBatchDescription",
      "outputs": [
        {
          "internalType": "string",
          "name": "",
          "type": "string"
        }
      ],
      "stateMutability": "view",
      "type": "function"
    },
    {
      "inputs": [
        {
          "internalType": "uint256",
          "name": "batchId",
          "type": "uint256"
        }
      ],
      "name": "getBatchExpiry",
      "outputs": [
        {
          "internalType": "uint256",
          "name": "",
          "type": "uint256"
        }
      ],
      "stateMutability": "view",
      "type": "function"
    },
    {
      "inputs": [
        {
          "internalType": "uint256",
          "name": "batchId",
          "type": "uint256"
        }
      ],
      "name": "getBatchStatus",
      "outputs": [
        {
          "internalType": "enum UniversityDiploma.BatchStatus",
          "name": "",
          "type": "uint8"
        }
      ],
      "stateMutability": "view",
      "type": "function"
    },
    {
      "inputs": [
        {
          "internalType": "uint256",
          "name": "batchId",
          "type": "uint256"
        }
      ],
      "name": "getBatchStudentCount",
      "outputs": [
        {
          "internalType": "uint256",
          "name": "",
          "type": "uint256"
        }
      ],
      "stateMutability": "view",
      "type": "function"
    },
    {
      "inputs": [
        {
          "internalType": "uint256",
          "name": "tokenId",
          "type": "uint256"
        }
      ],
      "name": "getDiplomaRecord",
      "outputs": [
        {
          "components": [
            {
              "internalType": "string",
              "name": "studentName",
              "type": "string"
            },
            {
              "internalType": "string",
              "name": "matricule",
              "type": "string"
            },
            {
              "internalType": "string",
              "name": "dateOfBirth",
              "type": "string"
            },
            {
              "internalType": "string",
              "name": "placeOfBirth",
              "type": "string"
            },
            {
              "internalType": "string",
              "name": "metadataCID",
              "type": "string"
            },
            {
              "internalType": "bytes32",
              "name": "sha256Hash",
              "type": "bytes32"
            },
            {
              "internalType": "enum UniversityDiploma.Specialty",
              "name": "specialty",
              "type": "uint8"
            },
            {
              "internalType": "enum UniversityDiploma.Cycle",
              "name": "cycle",
              "type": "uint8"
            },
            {
              "internalType": "enum UniversityDiploma.Mention",
              "name": "mention",
              "type": "uint8"
            },
            {
              "internalType": "uint16",
              "name": "graduationYear",
              "type": "uint16"
            },
            {
              "internalType": "string",
              "name": "department",
              "type": "string"
            },
            {
              "internalType": "uint256",
              "name": "batchId",
              "type": "uint256"
            },
            {
              "internalType": "uint256",
              "name": "mintedAt",
              "type": "uint256"
            },
            {
              "internalType": "bool",
              "name": "valid",
              "type": "bool"
            },
            {
              "internalType": "string",
              "name": "revocationReason",
              "type": "string"
            }
          ],
          "internalType": "struct UniversityDiploma.DiplomaRecord",
          "name": "",
          "type": "tuple"
        }
      ],
      "stateMutability": "view",
      "type": "function"
    },
    {
      "inputs": [
        {
          "internalType": "bytes32",
          "name": "role",
          "type": "bytes32"
        }
      ],
      "name": "getRoleAdmin",
      "outputs": [
        {
          "internalType": "bytes32",
          "name": "",
          "type": "bytes32"
        }
      ],
      "stateMutability": "view",
      "type": "function"
    },
    {
      "inputs": [
        {
          "internalType": "address",
          "name": "student",
          "type": "address"
        }
      ],
      "name": "getStudentDiplomas",
      "outputs": [
        {
          "internalType": "uint256[]",
          "name": "",
          "type": "uint256[]"
        }
      ],
      "stateMutability": "view",
      "type": "function"
    },
    {
      "inputs": [
        {
          "internalType": "bytes32",
          "name": "role",
          "type": "bytes32"
        },
        {
          "internalType": "address",
          "name": "account",
          "type": "address"
        }
      ],
      "name": "grantRole",
      "outputs": [],
      "stateMutability": "nonpayable",
      "type": "function"
    },
    {
      "inputs": [
        {
          "internalType": "bytes32",
          "name": "role",
          "type": "bytes32"
        },
        {
          "internalType": "address",
          "name": "account",
          "type": "address"
        }
      ],
      "name": "hasRole",
      "outputs": [
        {
          "internalType": "bool",
          "name": "",
          "type": "bool"
        }
      ],
      "stateMutability": "view",
      "type": "function"
    },
    {
      "inputs": [
        {
          "internalType": "address",
          "name": "owner",
          "type": "address"
        },
        {
          "internalType": "address",
          "name": "operator",
          "type": "address"
        }
      ],
      "name": "isApprovedForAll",
      "outputs": [
        {
          "internalType": "bool",
          "name": "",
          "type": "bool"
        }
      ],
      "stateMutability": "view",
      "type": "function"
    },
    {
      "inputs": [
        {
          "internalType": "uint256",
          "name": "tokenId",
          "type": "uint256"
        }
      ],
      "name": "isDiplomaValid",
      "outputs": [
        {
          "internalType": "bool",
          "name": "",
          "type": "bool"
        }
      ],
      "stateMutability": "view",
      "type": "function"
    },
    {
      "inputs": [
        {
          "internalType": "string",
          "name": "matricule",
          "type": "string"
        }
      ],
      "name": "isMatriculeUsed",
      "outputs": [
        {
          "internalType": "bool",
          "name": "",
          "type": "bool"
        }
      ],
      "stateMutability": "view",
      "type": "function"
    },
    {
      "inputs": [
        {
          "internalType": "uint256",
          "name": "batchId",
          "type": "uint256"
        }
      ],
      "name": "mintBatch",
      "outputs": [
        {
          "internalType": "uint256[]",
          "name": "tokenIds",
          "type": "uint256[]"
        }
      ],
      "stateMutability": "nonpayable",
      "type": "function"
    },
    {
      "inputs": [],
      "name": "name",
      "outputs": [
        {
          "internalType": "string",
          "name": "",
          "type": "string"
        }
      ],
      "stateMutability": "view",
      "type": "function"
    },
    {
      "inputs": [],
      "name": "nextBatchId",
      "outputs": [
        {
          "internalType": "uint256",
          "name": "",
          "type": "uint256"
        }
      ],
      "stateMutability": "view",
      "type": "function"
    },
    {
      "inputs": [],
      "name": "nextTokenId",
      "outputs": [
        {
          "internalType": "uint256",
          "name": "",
          "type": "uint256"
        }
      ],
      "stateMutability": "view",
      "type": "function"
    },
    {
      "inputs": [
        {
          "internalType": "uint256",
          "name": "tokenId",
          "type": "uint256"
        }
      ],
      "name": "ownerOf",
      "outputs": [
        {
          "internalType": "address",
          "name": "",
          "type": "address"
        }
      ],
      "stateMutability": "view",
      "type": "function"
    },
    {
      "inputs": [
        {
          "components": [
            {
              "internalType": "address",
              "name": "wallet",
              "type": "address"
            },
            {
              "internalType": "string",
              "name": "studentName",
              "type": "string"
            },
            {
              "internalType": "string",
              "name": "matricule",
              "type": "string"
            },
            {
              "internalType": "string",
              "name": "dateOfBirth",
              "type": "string"
            },
            {
              "internalType": "string",
              "name": "placeOfBirth",
              "type": "string"
            },
            {
              "internalType": "string",
              "name": "metadataCID",
              "type": "string"
            },
            {
              "internalType": "bytes32",
              "name": "sha256Hash",
              "type": "bytes32"
            },
            {
              "internalType": "enum UniversityDiploma.Specialty",
              "name": "specialty",
              "type": "uint8"
            },
            {
              "internalType": "enum UniversityDiploma.Cycle",
              "name": "cycle",
              "type": "uint8"
            },
            {
              "internalType": "enum UniversityDiploma.Mention",
              "name": "mention",
              "type": "uint8"
            },
            {
              "internalType": "uint16",
              "name": "graduationYear",
              "type": "uint16"
            },
            {
              "internalType": "string",
              "name": "department",
              "type": "string"
            }
          ],
          "internalType": "struct UniversityDiploma.StudentEntry[]",
          "name": "students",
          "type": "tuple[]"
        },
        {
          "internalType": "string",
          "name": "description",
          "type": "string"
        }
      ],
      "name": "proposeBatch",
      "outputs": [
        {
          "internalType": "uint256",
          "name": "batchId",
          "type": "uint256"
        }
      ],
      "stateMutability": "nonpayable",
      "type": "function"
    },
    {
      "inputs": [
        {
          "internalType": "address",
          "name": "dean",
          "type": "address"
        }
      ],
      "name": "removeDean",
      "outputs": [],
      "stateMutability": "nonpayable",
      "type": "function"
    },
    {
      "inputs": [
        {
          "internalType": "address",
          "name": "rector",
          "type": "address"
        }
      ],
      "name": "removeRector",
      "outputs": [],
      "stateMutability": "nonpayable",
      "type": "function"
    },
    {
      "inputs": [
        {
          "internalType": "bytes32",
          "name": "role",
          "type": "bytes32"
        },
        {
          "internalType": "address",
          "name": "callerConfirmation",
          "type": "address"
        }
      ],
      "name": "renounceRole",
      "outputs": [],
      "stateMutability": "nonpayable",
      "type": "function"
    },
    {
      "inputs": [
        {
          "internalType": "uint256",
          "name": "tokenId",
          "type": "uint256"
        },
        {
          "internalType": "string",
          "name": "reason",
          "type": "string"
        }
      ],
      "name": "revokeDiploma",
      "outputs": [],
      "stateMutability": "nonpayable",
      "type": "function"
    },
    {
      "inputs": [
        {
          "internalType": "bytes32",
          "name": "role",
          "type": "bytes32"
        },
        {
          "internalType": "address",
          "name": "account",
          "type": "address"
        }
      ],
      "name": "revokeRole",
      "outputs": [],
      "stateMutability": "nonpayable",
      "type": "function"
    },
    {
      "inputs": [
        {
          "internalType": "address",
          "name": "from",
          "type": "address"
        },
        {
          "internalType": "address",
          "name": "to",
          "type": "address"
        },
        {
          "internalType": "uint256",
          "name": "tokenId",
          "type": "uint256"
        }
      ],
      "name": "safeTransferFrom",
      "outputs": [],
      "stateMutability": "nonpayable",
      "type": "function"
    },
    {
      "inputs": [
        {
          "internalType": "address",
          "name": "from",
          "type": "address"
        },
        {
          "internalType": "address",
          "name": "to",
          "type": "address"
        },
        {
          "internalType": "uint256",
          "name": "tokenId",
          "type": "uint256"
        },
        {
          "internalType": "bytes",
          "name": "data",
          "type": "bytes"
        }
      ],
      "name": "safeTransferFrom",
      "outputs": [],
      "stateMutability": "nonpayable",
      "type": "function"
    },
    {
      "inputs": [
        {
          "internalType": "address",
          "name": "operator",
          "type": "address"
        },
        {
          "internalType": "bool",
          "name": "approved",
          "type": "bool"
        }
      ],
      "name": "setApprovalForAll",
      "outputs": [],
      "stateMutability": "nonpayable",
      "type": "function"
    },
    {
      "inputs": [
        {
          "internalType": "uint256",
          "name": "batchId",
          "type": "uint256"
        }
      ],
      "name": "signByDean",
      "outputs": [],
      "stateMutability": "nonpayable",
      "type": "function"
    },
    {
      "inputs": [
        {
          "internalType": "uint256",
          "name": "batchId",
          "type": "uint256"
        }
      ],
      "name": "signByRector",
      "outputs": [],
      "stateMutability": "nonpayable",
      "type": "function"
    },
    {
      "inputs": [
        {
          "internalType": "bytes4",
          "name": "interfaceId",
          "type": "bytes4"
        }
      ],
      "name": "supportsInterface",
      "outputs": [
        {
          "internalType": "bool",
          "name": "",
          "type": "bool"
        }
      ],
      "stateMutability": "view",
      "type": "function"
    },
    {
      "inputs": [],
      "name": "symbol",
      "outputs": [
        {
          "internalType": "string",
          "name": "",
          "type": "string"
        }
      ],
      "stateMutability": "view",
      "type": "function"
    },
    {
      "inputs": [
        {
          "internalType": "uint256",
          "name": "tokenId",
          "type": "uint256"
        }
      ],
      "name": "tokenURI",
      "outputs": [
        {
          "internalType": "string",
          "name": "",
          "type": "string"
        }
      ],
      "stateMutability": "view",
      "type": "function"
    },
    {
      "inputs": [
        {
          "internalType": "address",
          "name": "from",
          "type": "address"
        },
        {
          "internalType": "address",
          "name": "to",
          "type": "address"
        },
        {
          "internalType": "uint256",
          "name": "tokenId",
          "type": "uint256"
        }
      ],
      "name": "transferFrom",
      "outputs": [],
      "stateMutability": "nonpayable",
      "type": "function"
    },
    {
      "inputs": [
        {
          "internalType": "uint256",
          "name": "",
          "type": "uint256"
        }
      ],
      "name": "verificationCount",
      "outputs": [
        {
          "internalType": "uint256",
          "name": "",
          "type": "uint256"
        }
      ],
      "stateMutability": "view",
      "type": "function"
    },
    {
      "inputs": [
        {
          "internalType": "uint256",
          "name": "tokenId",
          "type": "uint256"
        },
        {
          "internalType": "bytes32",
          "name": "pdfHash",
          "type": "bytes32"
        }
      ],
      "name": "verifyDiploma",
      "outputs": [
        {
          "internalType": "bool",
          "name": "isAuthentic",
          "type": "bool"
        }
      ],
      "stateMutability": "nonpayable",
      "type": "function"
    }
  ],
  "bytecode": "0x608060405234801561000f575f80fd5b50604051613bfd380380613bfd83398101604081905261002e916101de565b60405180604001604052806011815260200170556e69766572736974794469706c6f6d6160781b815250604051806040016040528060048152602001630554449560e41b815250815f908161008391906102a3565b50600161009082826102a3565b50505060016100a96100a661010d60201b60201c565b90565b556001600160a01b0381166100d15760405163af0849dd60e01b815260040160405180910390fd5b6100db5f82610131565b506101067fa49807205ce4d355092ef5a8a18f56e8913cf4a201fbe287825b095693c2177582610131565b5050610362565b7f9b779b17422d0df92223018b32b4d1fa46e071723d6817e2486d003becc55f0090565b5f8281526006602090815260408083206001600160a01b038516845290915281205460ff166101d5575f8381526006602090815260408083206001600160a01b03861684529091529020805460ff1916600117905561018d3390565b6001600160a01b0316826001600160a01b0316847f2f8788117e7eff1d82e926ec794901d17c78024a50270940304540a733656f0d60405160405180910390a45060016101d8565b505f5b92915050565b5f602082840312156101ee575f80fd5b81516001600160a01b0381168114610204575f80fd5b9392505050565b634e487b7160e01b5f52604160045260245ffd5b600181811c9082168061023357607f821691505b60208210810361025157634e487b7160e01b5f52602260045260245ffd5b50919050565b601f82111561029e57805f5260205f20601f840160051c8101602085101561027c5750805b601f840160051c820191505b8181101561029b575f8155600101610288565b50505b505050565b81516001600160401b038111156102bc576102bc61020b565b6102d0816102ca845461021f565b84610257565b602080601f831160018114610303575f84156102ec5750858301515b5f19600386901b1c1916600185901b17855561035a565b5f85815260208120601f198616915b8281101561033157888601518255948401946001909101908401610312565b508582101561034e57878501515f19600388901b60f8161c191681555b505060018460011b0185555b505050505050565b61388e8061036f5f395ff3fe608060405234801561000f575f80fd5b506004361061028c575f3560e01c806370a0823111610161578063a77dca88116100ca578063cfdbf25411610084578063cfdbf25414610609578063d1b9329214610612578063d547741f14610625578063d57a3c0714610638578063e985e9c51461064b578063ee818e201461065e575f80fd5b8063a77dca8814610597578063b88d4fde146105aa578063b94f02c1146105bd578063bc37532f146105d0578063c02763c3146105e3578063c87b56dd146105f6575f80fd5b80638a14e3d01161011b5780638a14e3d01461054557806391d148541461054f57806395d89b411461056257806395fa12d61461056a578063a217fddf1461057d578063a22cb46514610584575f80fd5b806370a08231146104e857806370c7e6c3146104fb57806375794a3c1461050e57806375b238fc146105165780637785113e1461052a5780638462a7f81461053d575f80fd5b80632d1bbc8e11610203578063483028ca116101bd578063483028ca1461044f578063536e448c1461046e57806354f3bce11461048157806358f95664146104a35780636352211e146104b65780636f2ed084146104c9575f80fd5b80632d1bbc8e146103be5780632f2ff15d146103f057806336568abe1461040357806337d18db51461041657806341cd09771461042957806342842e0e1461043c575f80fd5b8063113d06b611610254578063113d06b61461032057806320e409b41461034157806323b872dd14610361578063248a9ca31461037457806324d42a37146103965780632ac7cf45146103aa575f80fd5b806301ffc9a71461029057806305beaad5146102b857806306fdde03146102cd578063081812fc146102e2578063095ea7b31461030d575b5f80fd5b6102a361029e366004612b0c565b61067e565b60405190151581526020015b60405180910390f35b6102cb6102c6366004612b73565b61068e565b005b6102d561079d565b6040516102af9190612be9565b6102f56102f0366004612bfb565b61082c565b6040516001600160a01b0390911681526020016102af565b6102cb61031b366004612c26565b610853565b61033361032e366004612c50565b610862565b6040519081526020016102af565b61035461034f366004612bfb565b610b5d565b6040516102af9190612ce2565b6102cb61036f366004612d25565b61138c565b610333610382366004612bfb565b5f9081526006602052604090206001015490565b6103335f8051602061383983398151915281565b6103335f805160206137f983398151915281565b6103e36103cc366004612bfb565b5f9081526009602052604090206001015460ff1690565b6040516102af9190612d8b565b6102cb6103fe366004612d99565b611415565b6102cb610411366004612d99565b611439565b6102a3610424366004612dc7565b611471565b6102cb610437366004612bfb565b61149f565b6102cb61044a366004612d25565b611583565b61033361045d366004612bfb565b5f9081526009602052604090205490565b6102cb61047c366004612bfb565b61159d565b61033361048f366004612bfb565b5f9081526009602052604090206003015490565b6102d56104b1366004612bfb565b61167c565b6102f56104c4366004612bfb565b61171e565b6103336104d7366004612bfb565b600d6020525f908152604090205481565b6103336104f6366004612e06565b611728565b6102a3610509366004612bfb565b61176d565b600754610333565b6103335f8051602061381983398151915281565b6102d5610538366004612bfb565b6117bb565b600854610333565b61033362093a8081565b6102a361055d366004612d99565b6117da565b6102d5611804565b6102a3610578366004612e21565b611813565b6103335f81565b6102cb610592366004612e41565b6118e9565b6102cb6105a5366004612e06565b6118f4565b6102cb6105b8366004612e85565b611983565b6102cb6105cb366004612e06565b61199b565b6102cb6105de366004612e06565b611a03565b6102cb6105f1366004612e06565b611a92565b6102d5610604366004612bfb565b611afa565b61033361012c81565b610354610620366004612e06565b611b67565b6102cb610633366004612d99565b611bcf565b6102cb610646366004612b73565b611bf3565b6102a3610659366004612f5e565b611d0a565b61067161066c366004612bfb565b611d37565b6040516102af9190612fb3565b5f61068882612270565b92915050565b5f805160206138198339815191526106a581612294565b5f848152600960205260409020600181015460ff1660038160048111156106ce576106ce612d63565b14806106eb575060048160048111156106e9576106e9612d63565b145b1561071157604051630aa7920560e31b8152600481018790526024015b60405180910390fd5b5f8490036107325760405163546d6d5960e01b815260040160405180910390fd5b60018201805460ff1916600417905560078201610750858783613190565b50336001600160a01b0316867fc554792a539c0d5fb25762225b65f807a7741dc70229828b2ea03bc3e1bdc245878760405161078d929190613272565b60405180910390a3505050505050565b60605f80546107ab9061311a565b80601f01602080910402602001604051908101604052809291908181526020018280546107d79061311a565b80156108225780601f106107f957610100808354040283529160200191610822565b820191905f5260205f20905b81548152906001019060200180831161080557829003601f168201915b5050505050905090565b5f610836826122a1565b505f828152600460205260409020546001600160a01b0316610688565b61085e8282336122d8565b5050565b5f5f8051602061381983398151915261087a81612294565b5f85900361089b57604051631b10e56960e31b815260040160405180910390fd5b61012c8511156108c95760405163508fa55b60e11b81526004810186905261012c6024820152604401610708565b60088054905f6108d883613299565b909155505f8181526009602052604090206001810180546001600160a81b031916336101000217905542600282018190559193509061091b9062093a80906132b1565b60038201556006810161092f858783613190565b505f5b86811015610b0c573688888381811061094d5761094d6132c4565b905060200281019061095f91906132d8565b90505f61096f6020830183612e06565b6001600160a01b0316036109995760405163de5adc5760e01b815260048101839052602401610708565b6109a660208201826132f7565b90505f036109ca5760405163d8e4ebe960e01b815260048101839052602401610708565b6109d760408201826132f7565b90505f036109fb5760405163d9838b0560e01b815260048101839052602401610708565b610a0860a08201826132f7565b90505f03610a2c5760405163499d57c160e11b815260048101839052602401610708565b60c0810135610a515760405163b03c971560e01b815260048101839052602401610708565b610a5f6101608201826132f7565b90505f03610a8357604051638648509960e01b815260048101839052602401610708565b6107d0610a9861016083016101408401613349565b61ffff161080610abe5750610834610ab861016083016101408401613349565b61ffff16115b15610ade5760405162d3858760e41b815260048101839052602401610708565b82546001810184555f84815260209020829160090201610afe8282613401565b505081600101915050610932565b506003810154604051339185917f47a716cb413982e1d1051fa38eb2c3de9b57ae937e17125476d667a8f721d77191610b4b918b918b918b9190613553565b60405180910390a35050949350505050565b60605f80516020613819833981519152610b7681612294565b610b7e6122e5565b5f8381526009602052604090206003810154421115610bb357604051635c4307a160e11b815260048101859052602401610708565b6002600182015460ff166004811115610bce57610bce612d63565b14610bfc576001810154604051632373f6fd60e01b815261070891869160ff9091169060029060040161357d565b80548067ffffffffffffffff811115610c1757610c17612e71565b604051908082528060200260200182016040528015610c40578160200160208202803683370190505b5093505f5b81811015611311575f835f018281548110610c6257610c626132c4565b905f5260205f2090600902019050600b81600201604051610c83919061360d565b9081526040519081900360200190205460ff1615610cb95780600201604051637024c4ad60e11b81526004016107089190613618565b600780545f9182610cc983613299565b909155508254909150610ce5906001600160a01b031682612313565b604051806101e00160405280836001018054610d009061311a565b80601f0160208091040260200160405190810160405280929190818152602001828054610d2c9061311a565b8015610d775780601f10610d4e57610100808354040283529160200191610d77565b820191905f5260205f20905b815481529060010190602001808311610d5a57829003601f168201915b50505050508152602001836002018054610d909061311a565b80601f0160208091040260200160405190810160405280929190818152602001828054610dbc9061311a565b8015610e075780601f10610dde57610100808354040283529160200191610e07565b820191905f5260205f20905b815481529060010190602001808311610dea57829003601f168201915b50505050508152602001836003018054610e209061311a565b80601f0160208091040260200160405190810160405280929190818152602001828054610e4c9061311a565b8015610e975780601f10610e6e57610100808354040283529160200191610e97565b820191905f5260205f20905b815481529060010190602001808311610e7a57829003601f168201915b50505050508152602001836004018054610eb09061311a565b80601f0160208091040260200160405190810160405280929190818152602001828054610edc9061311a565b8015610f275780601f10610efe57610100808354040283529160200191610f27565b820191905f5260205f20905b815481529060010190602001808311610f0a57829003601f168201915b50505050508152602001836005018054610f409061311a565b80601f0160208091040260200160405190810160405280929190818152602001828054610f6c9061311a565b8015610fb75780601f10610f8e57610100808354040283529160200191610fb7565b820191905f5260205f20905b815481529060010190602001808311610f9a57829003601f168201915b505050918352505060068401546020820152600784015460409091019060ff166003811115610fe857610fe8612d63565b81526020018360070160019054906101000a900460ff16600181111561101057611010612d63565b81526020018360070160029054906101000a900460ff16600381111561103857611038612d63565b815260078401546301000000900461ffff1660208201526008840180546040909201916110649061311a565b80601f01602080910402602001604051908101604052809291908181526020018280546110909061311a565b80156110db5780601f106110b2576101008083540402835291602001916110db565b820191905f5260205f20905b8154815290600101906020018083116110be57829003601f168201915b505050918352505060208082018b90524260408084019190915260016060840152805180830182525f808252608090940152848352600a90915290208151819061112590826136a2565b506020820151600182019061113a90826136a2565b506040820151600282019061114f90826136a2565b506060820151600382019061116490826136a2565b506080820151600482019061117990826136a2565b5060a0820151600582015560c082015160068201805460ff191660018360038111156111a7576111a7612d63565b021790555060e082015160068201805461ff0019166101008360018111156111d1576111d1612d63565b021790555061010082015160068201805462ff00001916620100008360038111156111fe576111fe612d63565b021790555061012082015160068201805461ffff90921663010000000264ffff00000019909216919091179055610140820151600782019061124090826136a2565b50610160820151600882015561018082015160098201556101a0820151600a8201805460ff19169115159190911790556101c0820151600b82019061128590826136a2565b509050506001600b8360020160405161129e919061360d565b9081526040805160209281900383019020805460ff19169315159390931790925583546001600160a01b03165f908152600c82529182208054600181018255908352912001819055865181908890859081106112fc576112fc6132c4565b60209081029190910101525050600101610c45565b5060018201805460ff1916600317905560405185907f5e33bd39b860afb968e64e6ae6b18f462ce1f9262e3fb7d34d6cb661b95f43a790611353908790612ce2565b60405180910390a2505061138660017f9b779b17422d0df92223018b32b4d1fa46e071723d6817e2486d003becc55f0055565b50919050565b6001600160a01b0382166113b557604051633250574960e11b81525f6004820152602401610708565b5f6113c183833361232c565b9050836001600160a01b0316816001600160a01b03161461140f576040516364283d7b60e01b81526001600160a01b0380861660048301526024820184905282166044820152606401610708565b50505050565b5f8281526006602052604090206001015461142f81612294565b61140f8383612375565b6001600160a01b03811633146114625760405163334bd91960e11b815260040160405180910390fd5b61146c8282612406565b505050565b5f600b838360405161148492919061375e565b9081526040519081900360200190205460ff16905092915050565b5f805160206138398339815191526114b681612294565b5f82815260096020526040902060038101544211156114eb57604051635c4307a160e11b815260048101849052602401610708565b60018082015460ff16600481111561150557611505612d63565b1461152f57600180820154604051632373f6fd60e01b815261070892869260ff169160040161357d565b60018101805460ff191660021790554260058201819055604051908152339084907f9b96e7cab3372e0696cb1cc0225c297c6ac2eb98d39fc2509159d6da3b2a112f906020015b60405180910390a3505050565b61146c83838360405180602001604052805f815250611983565b5f805160206137f98339815191526115b481612294565b5f82815260096020526040902060038101544211156115e957604051635c4307a160e11b815260048101849052602401610708565b5f600182015460ff16600481111561160357611603612d63565b14611630576001810154604051632373f6fd60e01b815261070891859160ff909116905f9060040161357d565b6001818101805460ff191690911790554260048201819055604051908152339084907f01dbe9111fada9353a4888fcd49a2b94b1e8b9f93bd2e48fc74d1eb7cdbab8d790602001611576565b5f81815260096020526040902060070180546060919061169b9061311a565b80601f01602080910402602001604051908101604052809291908181526020018280546116c79061311a565b80156117125780601f106116e957610100808354040283529160200191611712565b820191905f5260205f20905b8154815290600101906020018083116116f557829003601f168201915b50505050509050919050565b5f610688826122a1565b5f6001600160a01b038216611752576040516322718ad960e21b81525f6004820152602401610708565b506001600160a01b03165f9081526003602052604090205490565b5f8061177883612471565b6001600160a01b0316036117a257604051630f93f59160e31b815260048101839052602401610708565b505f908152600a60208190526040909120015460ff1690565b5f81815260096020526040902060060180546060919061169b9061311a565b5f9182526006602090815260408084206001600160a01b0393909316845291905290205460ff1690565b6060600180546107ab9061311a565b5f8061181e84612471565b6001600160a01b03160361184857604051630f93f59160e31b815260048101849052602401610708565b5f838152600a602081905260409091209081015460ff16801561186e5750828160050154145b91506001600d5f8681526020019081526020015f205f82825461189191906132b1565b90915550505f848152600d6020908152604091829020548251851515815291820152339186917fa5ff363161033469580a9b7dbc23e5eda77432603f937cea792538dc9743e90f910160405180910390a35092915050565b61085e33838361248b565b5f8051602061381983398151915261190b81612294565b6001600160a01b0382166119325760405163af0849dd60e01b815260040160405180910390fd5b6119495f805160206137f983398151915283612375565b5060405133906001600160a01b038416907fb78dff24c0721073f1e5983e2189caa160371ecc267f469c29e3935d709d6ea6905f90a35050565b61198e84848461138c565b61140f338585858561254a565b5f805160206138198339815191526119b281612294565b6119c95f805160206137f983398151915283612406565b5060405133906001600160a01b038416907f3c289711dbaab920a7ae5e9930ac536bb206164e21979175555ab393d99a3b86905f90a35050565b5f80516020613819833981519152611a1a81612294565b6001600160a01b038216611a415760405163af0849dd60e01b815260040160405180910390fd5b611a585f8051602061383983398151915283612375565b5060405133906001600160a01b038416907f88637b409fc4fc38b0ba1ffccfdc593c419dfccbc63b98fee10dab290e8fae81905f90a35050565b5f80516020613819833981519152611aa981612294565b611ac05f8051602061383983398151915283612406565b5060405133906001600160a01b038416907fafadaca2ad86cdcfcb4e2407c4fd7803a77105a12ad81ad5378a6336e0cbb963905f90a35050565b60605f611b0683612471565b6001600160a01b031603611b3057604051630f93f59160e31b815260048101839052602401610708565b5f828152600a60209081526040918290209151611b5192600401910161376d565b6040516020818303038152906040529050919050565b6001600160a01b0381165f908152600c602090815260409182902080548351818402810184019094528084526060939283018282801561171257602002820191905f5260205f20905b815481526020019060010190808311611bb05750505050509050919050565b5f82815260066020526040902060010154611be981612294565b61140f8383612406565b5f80516020613819833981519152611c0a81612294565b5f611c1485612471565b6001600160a01b031603611c3e57604051630f93f59160e31b815260048101859052602401610708565b5f848152600a60208190526040909120015460ff16611c735760405163178a635d60e31b815260048101859052602401610708565b5f829003611c9457604051636ab405cb60e11b815260040160405180910390fd5b5f848152600a60208190526040909120908101805460ff19169055600b01611cbd838583613190565b50336001600160a01b0316847f2e0fcfa3787174875549a3b636786e687846a6694381dd255df177006a1f7187858542604051611cfc93929190613788565b60405180910390a350505050565b6001600160a01b039182165f90815260056020908152604080832093909416825291909152205460ff1690565b611d3f612a6f565b5f611d4983612471565b6001600160a01b031603611d7357604051630f93f59160e31b815260048101839052602401610708565b5f828152600a60205260409081902081516101e08101909252805482908290611d9b9061311a565b80601f0160208091040260200160405190810160405280929190818152602001828054611dc79061311a565b8015611e125780601f10611de957610100808354040283529160200191611e12565b820191905f5260205f20905b815481529060010190602001808311611df557829003601f168201915b50505050508152602001600182018054611e2b9061311a565b80601f0160208091040260200160405190810160405280929190818152602001828054611e579061311a565b8015611ea25780601f10611e7957610100808354040283529160200191611ea2565b820191905f5260205f20905b815481529060010190602001808311611e8557829003601f168201915b50505050508152602001600282018054611ebb9061311a565b80601f0160208091040260200160405190810160405280929190818152602001828054611ee79061311a565b8015611f325780601f10611f0957610100808354040283529160200191611f32565b820191905f5260205f20905b815481529060010190602001808311611f1557829003601f168201915b50505050508152602001600382018054611f4b9061311a565b80601f0160208091040260200160405190810160405280929190818152602001828054611f779061311a565b8015611fc25780601f10611f9957610100808354040283529160200191611fc2565b820191905f5260205f20905b815481529060010190602001808311611fa557829003601f168201915b50505050508152602001600482018054611fdb9061311a565b80601f01602080910402602001604051908101604052809291908181526020018280546120079061311a565b80156120525780601f1061202957610100808354040283529160200191612052565b820191905f5260205f20905b81548152906001019060200180831161203557829003601f168201915b505050918352505060058201546020820152600682015460409091019060ff16600381111561208357612083612d63565b600381111561209457612094612d63565b81526020016006820160019054906101000a900460ff1660018111156120bc576120bc612d63565b60018111156120cd576120cd612d63565b81526020016006820160029054906101000a900460ff1660038111156120f5576120f5612d63565b600381111561210657612106612d63565b815260068201546301000000900461ffff1660208201526007820180546040909201916121329061311a565b80601f016020809104026020016040519081016040528092919081815260200182805461215e9061311a565b80156121a95780601f10612180576101008083540402835291602001916121a9565b820191905f5260205f20905b81548152906001019060200180831161218c57829003601f168201915b50505091835250506008820154602082015260098201546040820152600a82015460ff1615156060820152600b820180546080909201916121e99061311a565b80601f01602080910402602001604051908101604052809291908181526020018280546122159061311a565b80156122605780601f1061223757610100808354040283529160200191612260565b820191905f5260205f20905b81548152906001019060200180831161224357829003601f168201915b5050505050815250509050919050565b5f6001600160e01b03198216637965db0b60e01b1480610688575061068882612672565b61229e81336126c1565b50565b5f806122ac83612471565b90506001600160a01b03811661068857604051637e27328960e01b815260048101849052602401610708565b61146c83838360016126fa565b6122ed6127fe565b60027f9b779b17422d0df92223018b32b4d1fa46e071723d6817e2486d003becc55f0055565b61085e828260405180602001604052805f815250612842565b5f8061233784612471565b90506001600160a01b0381161561236157604051631e72c12960e31b815260040160405180910390fd5b61236c858585612859565b95945050505050565b5f61238083836117da565b6123ff575f8381526006602090815260408083206001600160a01b03861684529091529020805460ff191660011790556123b73390565b6001600160a01b0316826001600160a01b0316847f2f8788117e7eff1d82e926ec794901d17c78024a50270940304540a733656f0d60405160405180910390a4506001610688565b505f610688565b5f61241183836117da565b156123ff575f8381526006602090815260408083206001600160a01b0386168085529252808320805460ff1916905551339286917ff6391f5c32d9c69d2a47ea670b442974b53935d1edc7fd64eb21e047a839171b9190a4506001610688565b5f908152600260205260409020546001600160a01b031690565b6001600160a01b0383166124b45760405163a9fbf51f60e01b81525f6004820152602401610708565b6001600160a01b0382166124e657604051630b61174360e31b81526001600160a01b0383166004820152602401610708565b6001600160a01b038381165f81815260056020908152604080832094871680845294825291829020805460ff191686151590811790915591519182527f17307eab39ab6107e8899845ad3d59bd9653f200f220920489ca2b5937696c319101611576565b6001600160a01b0383163b1561266b57604051630a85bd0160e11b81526001600160a01b0384169063150b7a029061258c9088908890879087906004016137ab565b6020604051808303815f875af19250505080156125c6575060408051601f3d908101601f191682019092526125c3918101906137dd565b60015b61262d573d8080156125f3576040519150601f19603f3d011682016040523d82523d5f602084013e6125f8565b606091505b5080515f0361262557604051633250574960e11b81526001600160a01b0385166004820152602401610708565b805160208201fd5b6001600160e01b03198116630a85bd0160e11b1461266957604051633250574960e11b81526001600160a01b0385166004820152602401610708565b505b5050505050565b5f6001600160e01b031982166380ac58cd60e01b14806126a257506001600160e01b03198216635b5e139f60e01b145b8061068857506301ffc9a760e01b6001600160e01b0319831614610688565b6126cb82826117da565b61085e5760405163e2517d3f60e01b81526001600160a01b038216600482015260248101839052604401610708565b808061270e57506001600160a01b03821615155b156127cf575f61271d846122a1565b90506001600160a01b038316158015906127495750826001600160a01b0316816001600160a01b031614155b801561275c575061275a8184611d0a565b155b156127855760405163a9fbf51f60e01b81526001600160a01b0384166004820152602401610708565b81156127cd5783856001600160a01b0316826001600160a01b03167f8c5be1e5ebec7d5bd14f71427d1e84f3dd0314c0f7b2291e5b200ac8c7c3b92560405160405180910390a45b505b50505f90815260046020526040902080546001600160a01b0319166001600160a01b0392909216919091179055565b7f9b779b17422d0df92223018b32b4d1fa46e071723d6817e2486d003becc55f005460020361284057604051633ee5aeb560e01b815260040160405180910390fd5b565b61284c8383612946565b61146c335f85858561254a565b5f8061286484612471565b90506001600160a01b03831615612880576128808184866129a7565b6001600160a01b038116156128ba5761289b5f855f806126fa565b6001600160a01b0381165f90815260036020526040902080545f190190555b6001600160a01b038516156128e8576001600160a01b0385165f908152600360205260409020805460010190555b5f8481526002602052604080822080546001600160a01b0319166001600160a01b0389811691821790925591518793918516917fddf252ad1be2c89b69c2b068fc378daa952ba7f163c4a11628f55a4df523b3ef91a4949350505050565b6001600160a01b03821661296f57604051633250574960e11b81525f6004820152602401610708565b5f61297b83835f61232c565b90506001600160a01b0381161561146c576040516339e3563760e11b81525f6004820152602401610708565b6129b2838383612a0b565b61146c576001600160a01b0383166129e057604051637e27328960e01b815260048101829052602401610708565b60405163177e802f60e01b81526001600160a01b038316600482015260248101829052604401610708565b5f6001600160a01b03831615801590612a675750826001600160a01b0316846001600160a01b03161480612a445750612a448484611d0a565b80612a6757505f828152600460205260409020546001600160a01b038481169116145b949350505050565b604051806101e0016040528060608152602001606081526020016060815260200160608152602001606081526020015f80191681526020015f6003811115612ab957612ab9612d63565b81526020015f81526020015f81526020015f61ffff168152602001606081526020015f81526020015f81526020015f15158152602001606081525090565b6001600160e01b03198116811461229e575f80fd5b5f60208284031215612b1c575f80fd5b8135612b2781612af7565b9392505050565b5f8083601f840112612b3e575f80fd5b50813567ffffffffffffffff811115612b55575f80fd5b602083019150836020828501011115612b6c575f80fd5b9250929050565b5f805f60408486031215612b85575f80fd5b83359250602084013567ffffffffffffffff811115612ba2575f80fd5b612bae86828701612b2e565b9497909650939450505050565b5f81518084528060208401602086015e5f602082860101526020601f19601f83011685010191505092915050565b602081525f612b276020830184612bbb565b5f60208284031215612c0b575f80fd5b5035919050565b6001600160a01b038116811461229e575f80fd5b5f8060408385031215612c37575f80fd5b8235612c4281612c12565b946020939093013593505050565b5f805f8060408587031215612c63575f80fd5b843567ffffffffffffffff80821115612c7a575f80fd5b818701915087601f830112612c8d575f80fd5b813581811115612c9b575f80fd5b8860208260051b8501011115612caf575f80fd5b602092830196509450908601359080821115612cc9575f80fd5b50612cd687828801612b2e565b95989497509550505050565b602080825282518282018190525f9190848201906040850190845b81811015612d1957835183529284019291840191600101612cfd565b50909695505050505050565b5f805f60608486031215612d37575f80fd5b8335612d4281612c12565b92506020840135612d5281612c12565b929592945050506040919091013590565b634e487b7160e01b5f52602160045260245ffd5b60058110612d8757612d87612d63565b9052565b602081016106888284612d77565b5f8060408385031215612daa575f80fd5b823591506020830135612dbc81612c12565b809150509250929050565b5f8060208385031215612dd8575f80fd5b823567ffffffffffffffff811115612dee575f80fd5b612dfa85828601612b2e565b90969095509350505050565b5f60208284031215612e16575f80fd5b8135612b2781612c12565b5f8060408385031215612e32575f80fd5b50508035926020909101359150565b5f8060408385031215612e52575f80fd5b8235612e5d81612c12565b915060208301358015158114612dbc575f80fd5b634e487b7160e01b5f52604160045260245ffd5b5f805f8060808587031215612e98575f80fd5b8435612ea381612c12565b93506020850135612eb381612c12565b925060408501359150606085013567ffffffffffffffff80821115612ed6575f80fd5b818701915087601f830112612ee9575f80fd5b813581811115612efb57612efb612e71565b604051601f8201601f19908116603f01168101908382118183101715612f2357612f23612e71565b816040528281528a6020848701011115612f3b575f80fd5b826020860160208301375f60208483010152809550505050505092959194509250565b5f8060408385031215612f6f575f80fd5b8235612f7a81612c12565b91506020830135612dbc81612c12565b6004811061229e5761229e612d63565b612d8781612f8a565b60028110612d8757612d87612d63565b602081525f82516101e0806020850152612fd1610200850183612bbb565b91506020850151601f1980868503016040870152612fef8483612bbb565b9350604087015191508086850301606087015261300c8483612bbb565b935060608701519150808685030160808701526130298483612bbb565b935060808701519150808685030160a08701526130468483612bbb565b935060a087015160c087015260c0870151915061306660e0870183612f9a565b60e0870151915061010061307c81880184612fa3565b870151915061012061309087820184612f9a565b87015191506101406130a78782018461ffff169052565b808801519250506101608187860301818801526130c48584612bbb565b90880151610180888101919091528801516101a08089019190915288015190945091506101c06130f78188018415159052565b8701518685039091018387015290506131108382612bbb565b9695505050505050565b600181811c9082168061312e57607f821691505b60208210810361138657634e487b7160e01b5f52602260045260245ffd5b601f82111561146c57805f5260205f20601f840160051c810160208510156131715750805b601f840160051c820191505b8181101561266b575f815560010161317d565b67ffffffffffffffff8311156131a8576131a8612e71565b6131bc836131b6835461311a565b8361314c565b5f601f8411600181146131ed575f85156131d65750838201355b5f19600387901b1c1916600186901b17835561266b565b5f83815260208120601f198716915b8281101561321c57868501358255602094850194600190920191016131fc565b5086821015613238575f1960f88860031b161c19848701351681555b505060018560011b0183555050505050565b81835281816020850137505f828201602090810191909152601f909101601f19169091010190565b602081525f612a6760208301848661324a565b634e487b7160e01b5f52601160045260245ffd5b5f600182016132aa576132aa613285565b5060010190565b8082018082111561068857610688613285565b634e487b7160e01b5f52603260045260245ffd5b5f823561017e198336030181126132ed575f80fd5b9190910192915050565b5f808335601e1984360301811261330c575f80fd5b83018035915067ffffffffffffffff821115613326575f80fd5b602001915036819003821315612b6c575f80fd5b61ffff8116811461229e575f80fd5b5f60208284031215613359575f80fd5b8135612b278161333a565b5f813561068881612c12565b5f813560048110610688575f80fd5b61338882612f8a565b60ff1981541660ff831681178255505050565b5f813560028110610688575f80fd5b600282106133ba576133ba612d63565b805461ff008360081b1661ff00198216178255505050565b6133db82612f8a565b805462ff00008360101b1662ff0000198216178255505050565b5f81356106888161333a565b61342a61340d83613364565b82546001600160a01b0319166001600160a01b0391909116178255565b61343760208301836132f7565b613445818360018601613190565b505061345460408301836132f7565b613462818360028601613190565b505061347160608301836132f7565b61347f818360038601613190565b505061348e60808301836132f7565b61349c818360048601613190565b50506134ab60a08301836132f7565b6134b9818360058601613190565b505060c08201356006820155600781016134de6134d860e08501613370565b8261337f565b6134f46134ee610100850161339b565b826133aa565b61350a6135046101208501613370565b826133d2565b61353661351a61014085016133f5565b825464ffff000000191660189190911b64ffff00000016178255565b506135456101608301836132f7565b61140f818360088601613190565b848152606060208201525f61356c60608301858761324a565b905082604083015295945050505050565b838152606081016135916020830185612d77565b612a676040830184612d77565b5f81546135aa8161311a565b600182811680156135c257600181146135d757613603565b60ff1984168752821515830287019450613603565b855f526020805f205f5b858110156135fa5781548a8201529084019082016135e1565b50505082870194505b5050505092915050565b5f612b27828461359e565b5f60208083525f845461362a8161311a565b806020870152604060018084165f811461364b576001811461366757613694565b60ff19851660408a0152604084151560051b8a01019550613694565b895f5260205f205f5b8581101561368b5781548b8201860152908301908801613670565b8a016040019650505b509398975050505050505050565b815167ffffffffffffffff8111156136bc576136bc612e71565b6136d0816136ca845461311a565b8461314c565b602080601f831160018114613703575f84156136ec5750858301515b5f19600386901b1c1916600185901b178555612669565b5f85815260208120601f198616915b8281101561373157888601518255948401946001909101908401613712565b508582101561374e57878501515f19600388901b60f8161c191681555b5050505050600190811b01905550565b818382375f9101908152919050565b66697066733a2f2f60c81b81525f612b27600783018461359e565b604081525f61379b60408301858761324a565b9050826020830152949350505050565b6001600160a01b03858116825284166020820152604081018390526080606082018190525f9061311090830184612bbb565b5f602082840312156137ed575f80fd5b8151612b2781612af756feba7924dbc18a088ff62f660bed95aba930bcbad059dcde0da6fc643115d44ba3a49807205ce4d355092ef5a8a18f56e8913cf4a201fbe287825b095693c217755f1d1e303f9c0a1801dd708bdc4239781d66c88ca6cb941c5769ba09b5c1b285a26469706673582212202f889311260220ab4f8cb92ff9ae715d9716989e29a59c2b21bee1fb3bb7e1c464736f6c63430008190033",
  "linkReferences": {},
  "deployedLinkReferences": {},
  "immutableReferences": {},
  "inputSourceName": "project/contracts/univ.sol",
  "buildInfoId": "solc-0_8_25-adde1b190fb97f5727cb452e39e65e436aa3b288"
}